{
  "contractName": "Test",
  "abi": [
    {
      "inputs": [],
      "stateMutability": "nonpayable",
      "type": "constructor"
    },
    {
      "anonymous": false,
      "inputs": [
        {
          "indexed": false,
          "internalType": "uint256",
          "name": "newCount",
          "type": "uint256"
        },
        {
          "indexed": false,
          "internalType": "uint256",
          "name": "timestamp",
          "type": "uint256"
        }
      ],
      "name": "CountIncremented",
      "type": "event"
    },
    {
      "inputs": [],
      "name": "increment",
      "outputs": [],
      "stateMutability": "nonpayable",
      "type": "function"
    },
    {
      "inputs": [],
      "name": "getCount",
      "outputs": [
        {
          "internalType": "uint256",
          "name": "",
          "type": "uint256"
        }
      ],
      "stateMutability": "view",
      "type": "function",
      "constant": true
    }
  ],
  "bytecode": "0x6080604052348015600f57600080fd5b506000808190555060ed806100256000396000f3fe6080604052348015600f57600080fd5b506004361060325760003560e01c8063a87d942c146037578063d09de08a146053575b600080fd5b603d605b565b6040518082815260200191505060405180910390f35b60596064565b005b60008054905090565b600360008082825401925050819055507fe0d5b76b775cf0f994b283c5466b2c06ea955889556d77be0e9b48d67130550660005442604051808381526020018281526020019250505060405180910390a156fea2646970667358221220e3fdddf1da09fd07bc713bf348042a7c0a5b4684873c719b1899093cc6eca49164736f6c63430007010033",
  "immutableReferences": {},
  "source": "// SPDX-License-Identifier: MIT\npragma solidity >=0.7.0 <0.9.0;\ncontract Test {\n    uint256 private count;\n    \n    event CountIncremented(uint256 newCount, uint256 timestamp);\n\n    constructor() {\n        count = 0;\n    }\n\n    function increment() public {\n        count += 3;\n        emit CountIncremented(count, block.timestamp);\n    }\n\n    function getCount() public view returns (uint256) {\n        return count;\n    }\n}",
  "sourcePath": "C:\\Users\\Lenovo\\Desktop\\medProject-main\\contracts\\Test.sol",
  "compiler": {
    "name": "solc",
    "version": "0.7.1+commit.f4a555be.Emscripten.clang"
  },
  "schemaVersion": "3.4.16",
  "updatedAt": "2025-05-05T18:07:29.212Z",
  "networkType": "ethereum",
  "devdoc": {
    "kind": "dev",
    "methods": {},
    "version": 1
  },
  "userdoc": {
    "kind": "user",
    "methods": {},
    "version": 1
  }
}