{
  "contractName": "Medecin",
  "abi": [
    {
      "anonymous": false,
      "inputs": [
        {
          "indexed": true,
          "internalType": "string",
          "name": "boxId",
          "type": "string"
        },
        {
          "indexed": false,
          "internalType": "uint256",
          "name": "lotId",
          "type": "uint256"
        },
        {
          "indexed": false,
          "internalType": "uint256",
          "name": "medicamentCount",
          "type": "uint256"
        }
      ],
      "name": "BoxAssembled",
      "type": "event"
    },
    {
      "anonymous": false,
      "inputs": [
        {
          "indexed": true,
          "internalType": "uint256",
          "name": "lotId",
          "type": "uint256"
        },
        {
          "indexed": false,
          "internalType": "string",
          "name": "nomMedicament",
          "type": "string"
        },
        {
          "indexed": false,
          "internalType": "uint256",
          "name": "timestamp",
          "type": "uint256"
        }
      ],
      "name": "LotCree",
      "type": "event"
    },
    {
      "anonymous": false,
      "inputs": [
        {
          "indexed": true,
          "internalType": "string",
          "name": "medicamentId",
          "type": "string"
        },
        {
          "indexed": false,
          "internalType": "uint256",
          "name": "lotId",
          "type": "uint256"
        }
      ],
      "name": "MedicamentCreated",
      "type": "event"
    },
    {
      "inputs": [
        {
          "internalType": "string",
          "name": "",
          "type": "string"
        },
        {
          "internalType": "uint256",
          "name": "",
          "type": "uint256"
        }
      ],
      "name": "boxToMedicaments",
      "outputs": [
        {
          "internalType": "string",
          "name": "",
          "type": "string"
        }
      ],
      "stateMutability": "view",
      "type": "function",
      "constant": true
    },
    {
      "inputs": [
        {
          "internalType": "uint256",
          "name": "",
          "type": "uint256"
        }
      ],
      "name": "lots",
      "outputs": [
        {
          "internalType": "uint256",
          "name": "lotId",
          "type": "uint256"
        },
        {
          "internalType": "string",
          "name": "nomMedicament",
          "type": "string"
        },
        {
          "internalType": "string",
          "name": "substanceActive",
          "type": "string"
        },
        {
          "internalType": "string",
          "name": "forme",
          "type": "string"
        },
        {
          "internalType": "string",
          "name": "dateFabrication",
          "type": "string"
        },
        {
          "internalType": "string",
          "name": "datePeremption",
          "type": "string"
        },
        {
          "internalType": "string",
          "name": "nomFabricant",
          "type": "string"
        },
        {
          "internalType": "string",
          "name": "paysOrigine",
          "type": "string"
        },
        {
          "internalType": "string",
          "name": "amm",
          "type": "string"
        },
        {
          "components": [
            {
              "internalType": "int8",
              "name": "temperatureMax",
              "type": "int8"
            },
            {
              "internalType": "int8",
              "name": "temperatureMin",
              "type": "int8"
            },
            {
              "internalType": "uint8",
              "name": "humiditeMax",
              "type": "uint8"
            },
            {
              "internalType": "uint8",
              "name": "humiditeMin",
              "type": "uint8"
            }
          ],
          "internalType": "struct Medecin.Conservation",
          "name": "conditionsConservation",
          "type": "tuple"
        },
        {
          "internalType": "uint256",
          "name": "timestamp",
          "type": "uint256"
        }
      ],
      "stateMutability": "view",
      "type": "function",
      "constant": true
    },
    {
      "inputs": [
        {
          "internalType": "string",
          "name": "",
          "type": "string"
        }
      ],
      "name": "medicaments",
      "outputs": [
        {
          "internalType": "string",
          "name": "medicamentId",
          "type": "string"
        },
        {
          "internalType": "uint256",
          "name": "lotId",
          "type": "uint256"
        },
        {
          "components": [
            {
              "internalType": "int8",
              "name": "temperature",
              "type": "int8"
            },
            {
              "internalType": "uint8",
              "name": "humidite",
              "type": "uint8"
            },
            {
              "internalType": "string",
              "name": "positionX",
              "type": "string"
            },
            {
              "internalType": "string",
              "name": "positionY",
              "type": "string"
            },
            {
              "internalType": "uint256",
              "name": "timestamp",
              "type": "uint256"
            }
          ],
          "internalType": "struct Medecin.ConditionsActuelles",
          "name": "conditionsActuelles",
          "type": "tuple"
        },
        {
          "internalType": "uint256",
          "name": "timestampCreation",
          "type": "uint256"
        }
      ],
      "stateMutability": "view",
      "type": "function",
      "constant": true
    },
    {
      "inputs": [],
      "name": "nextLotId",
      "outputs": [
        {
          "internalType": "uint256",
          "name": "",
          "type": "uint256"
        }
      ],
      "stateMutability": "view",
      "type": "function",
      "constant": true
    },
    {
      "inputs": [
        {
          "components": [
            {
              "internalType": "string",
              "name": "nomMedicament",
              "type": "string"
            },
            {
              "internalType": "string",
              "name": "substanceActive",
              "type": "string"
            },
            {
              "internalType": "string",
              "name": "forme",
              "type": "string"
            },
            {
              "internalType": "string",
              "name": "dateFabrication",
              "type": "string"
            },
            {
              "internalType": "string",
              "name": "datePeremption",
              "type": "string"
            },
            {
              "internalType": "string",
              "name": "nomFabricant",
              "type": "string"
            },
            {
              "internalType": "string",
              "name": "paysOrigine",
              "type": "string"
            },
            {
              "internalType": "string",
              "name": "amm",
              "type": "string"
            }
          ],
          "internalType": "struct Medecin.LotDetails",
          "name": "_lotDetails",
          "type": "tuple"
        },
        {
          "components": [
            {
              "internalType": "int8",
              "name": "temperatureMax",
              "type": "int8"
            },
            {
              "internalType": "int8",
              "name": "temperatureMin",
              "type": "int8"
            },
            {
              "internalType": "uint8",
              "name": "humiditeMax",
              "type": "uint8"
            },
            {
              "internalType": "uint8",
              "name": "humiditeMin",
              "type": "uint8"
            }
          ],
          "internalType": "struct Medecin.Conservation",
          "name": "_conservation",
          "type": "tuple"
        },
        {
          "components": [
            {
              "internalType": "string",
              "name": "nom",
              "type": "string"
            },
            {
              "internalType": "string",
              "name": "origine",
              "type": "string"
            },
            {
              "internalType": "string",
              "name": "fournisseur",
              "type": "string"
            },
            {
              "internalType": "string",
              "name": "degrePurete",
              "type": "string"
            },
            {
              "internalType": "string",
              "name": "quantiteParUnite",
              "type": "string"
            },
            {
              "internalType": "string",
              "name": "certificatAnalyse",
              "type": "string"
            },
            {
              "internalType": "string",
              "name": "dateReception",
              "type": "string"
            },
            {
              "internalType": "string",
              "name": "transport",
              "type": "string"
            }
          ],
          "internalType": "struct Medecin.MatierePremiere[]",
          "name": "_matieresPremieresLot",
          "type": "tuple[]"
        }
      ],
      "name": "creerLotMedicament",
      "outputs": [
        {
          "internalType": "uint256",
          "name": "",
          "type": "uint256"
        }
      ],
      "stateMutability": "nonpayable",
      "type": "function"
    },
    {
      "inputs": [
        {
          "internalType": "string[]",
          "name": "_medicamentIds",
          "type": "string[]"
        },
        {
          "internalType": "uint256",
          "name": "_lotId",
          "type": "uint256"
        },
        {
          "components": [
            {
              "internalType": "int8",
              "name": "temperature",
              "type": "int8"
            },
            {
              "internalType": "uint8",
              "name": "humidite",
              "type": "uint8"
            },
            {
              "internalType": "string",
              "name": "positionX",
              "type": "string"
            },
            {
              "internalType": "string",
              "name": "positionY",
              "type": "string"
            },
            {
              "internalType": "uint256",
              "name": "timestamp",
              "type": "uint256"
            }
          ],
          "internalType": "struct Medecin.ConditionsActuelles",
          "name": "_conditions",
          "type": "tuple"
        }
      ],
      "name": "createMedicamentUnits",
      "outputs": [],
      "stateMutability": "nonpayable",
      "type": "function"
    },
    {
      "inputs": [
        {
          "components": [
            {
              "internalType": "string",
              "name": "boxId",
              "type": "string"
            },
            {
              "internalType": "string[]",
              "name": "medicamentIds",
              "type": "string[]"
            }
          ],
          "internalType": "struct Medecin.Box[]",
          "name": "_boxes",
          "type": "tuple[]"
        },
        {
          "internalType": "uint256",
          "name": "_lotId",
          "type": "uint256"
        },
        {
          "components": [
            {
              "internalType": "int8",
              "name": "temperature",
              "type": "int8"
            },
            {
              "internalType": "uint8",
              "name": "humidite",
              "type": "uint8"
            },
            {
              "internalType": "string",
              "name": "positionX",
              "type": "string"
            },
            {
              "internalType": "string",
              "name": "positionY",
              "type": "string"
            },
            {
              "internalType": "uint256",
              "name": "timestamp",
              "type": "uint256"
            }
          ],
          "internalType": "struct Medecin.ConditionsActuelles",
          "name": "_conditions",
          "type": "tuple"
        }
      ],
      "name": "createAndAssignMedicaments",
      "outputs": [],
      "stateMutability": "nonpayable",
      "type": "function"
    },
    {
      "inputs": [
        {
          "internalType": "string",
          "name": "_boxId",
          "type": "string"
        }
      ],
      "name": "getMedicamentsInBox",
      "outputs": [
        {
          "internalType": "string[]",
          "name": "",
          "type": "string[]"
        }
      ],
      "stateMutability": "view",
      "type": "function",
      "constant": true
    },
    {
      "inputs": [
        {
          "internalType": "string",
          "name": "_medicamentId",
          "type": "string"
        }
      ],
      "name": "getMedicamentDetails",
      "outputs": [
        {
          "components": [
            {
              "internalType": "string",
              "name": "medicamentId",
              "type": "string"
            },
            {
              "internalType": "uint256",
              "name": "lotId",
              "type": "uint256"
            },
            {
              "components": [
                {
                  "internalType": "int8",
                  "name": "temperature",
                  "type": "int8"
                },
                {
                  "internalType": "uint8",
                  "name": "humidite",
                  "type": "uint8"
                },
                {
                  "internalType": "string",
                  "name": "positionX",
                  "type": "string"
                },
                {
                  "internalType": "string",
                  "name": "positionY",
                  "type": "string"
                },
                {
                  "internalType": "uint256",
                  "name": "timestamp",
                  "type": "uint256"
                }
              ],
              "internalType": "struct Medecin.ConditionsActuelles",
              "name": "conditionsActuelles",
              "type": "tuple"
            },
            {
              "internalType": "uint256",
              "name": "timestampCreation",
              "type": "uint256"
            }
          ],
          "internalType": "struct Medecin.UniteMedicament",
          "name": "",
          "type": "tuple"
        }
      ],
      "stateMutability": "view",
      "type": "function",
      "constant": true
    },
    {
      "inputs": [
        {
          "internalType": "uint256",
          "name": "_lotId",
          "type": "uint256"
        }
      ],
      "name": "getMatieresPremieresForLot",
      "outputs": [
        {
          "components": [
            {
              "internalType": "string",
              "name": "nom",
              "type": "string"
            },
            {
              "internalType": "string",
              "name": "origine",
              "type": "string"
            },
            {
              "internalType": "string",
              "name": "fournisseur",
              "type": "string"
            },
            {
              "internalType": "string",
              "name": "degrePurete",
              "type": "string"
            },
            {
              "internalType": "string",
              "name": "quantiteParUnite",
              "type": "string"
            },
            {
              "internalType": "string",
              "name": "certificatAnalyse",
              "type": "string"
            },
            {
              "internalType": "string",
              "name": "dateReception",
              "type": "string"
            },
            {
              "internalType": "string",
              "name": "transport",
              "type": "string"
            }
          ],
          "internalType": "struct Medecin.MatierePremiere[]",
          "name": "",
          "type": "tuple[]"
        }
      ],
      "stateMutability": "view",
      "type": "function",
      "constant": true
    }
  ],
  "bytecode": "0x6080604052600160035534801561001557600080fd5b50612f59806100256000396000f3fe608060405234801561001057600080fd5b506004361061009e5760003560e01c806383bed8311161006657806383bed83114610182578063d666f29e1461019e578063de2aa76f146101bc578063e4b5efb9146101ec578063f1648e841461021c5761009e565b806315334e32146100a35780634e3acf2d146100d35780634fb039ee1461010357806371b401931461013657806376bb904f14610152575b600080fd5b6100bd60048036038101906100b891906124db565b610256565b6040516100ca9190612ba3565b60405180910390f35b6100ed60048036038101906100e89190612570565b6104ec565b6040516100fa9190612bc5565b60405180910390f35b61011d600480360381019061011891906124db565b610833565b60405161012d9493929190612b50565b60405180910390f35b610150600480360381019061014b91906123dd565b610aa3565b005b61016c6004803603810190610167919061251c565b610c4f565b6040516101799190612afe565b60405180910390f35b61019c6004803603810190610197919061245c565b610d2b565b005b6101a6610ff7565b6040516101b39190612bc5565b60405180910390f35b6101d660048036038101906101d191906124db565b610ffd565b6040516101e39190612aba565b60405180910390f35b610206600480360381019061020191906125ef565b611104565b6040516102139190612adc565b60405180910390f35b610236600480360381019061023191906125ef565b611689565b60405161024d9b9a99989796959493929190612be0565b60405180910390f35b61025e611c21565b610266611c21565b6002836040516102769190612aa3565b9081526020016040518091039020604051806080016040529081600082018054600181600116156101000203166002900480601f0160208091040260200160405190810160405280929190818152602001828054600181600116156101000203166002900480156103285780601f106102fd57610100808354040283529160200191610328565b820191906000526020600020905b81548152906001019060200180831161030b57829003601f168201915b5050505050815260200160018201548152602001600282016040518060a00160405290816000820160009054906101000a900460000b60000b60000b81526020016000820160019054906101000a900460ff1660ff1660ff168152602001600182018054600181600116156101000203166002900480601f01602080910402602001604051908101604052809291908181526020018280546001816001161561010002031660029004801561041e5780601f106103f35761010080835404028352916020019161041e565b820191906000526020600020905b81548152906001019060200180831161040157829003601f168201915b50505050508152602001600282018054600181600116156101000203166002900480601f0160208091040260200160405190810160405280929190818152602001828054600181600116156101000203166002900480156104c05780601f10610495576101008083540402835291602001916104c0565b820191906000526020600020905b8154815290600101906020018083116104a357829003601f168201915b505050505081526020016003820154815250508152602001600682015481525050905080915050919050565b6000806003600081548092919060010191905055905060008060008381526020019081526020016000209050818160000181905550856000015181600101908051906020019061053d929190611c4f565b50856020015181600201908051906020019061055a929190611c4f565b508560400151816003019080519060200190610577929190611c4f565b508560600151816004019080519060200190610594929190611c4f565b5085608001518160050190805190602001906105b1929190611c4f565b508560a001518160060190805190602001906105ce929190611c4f565b508560c001518160070190805190602001906105eb929190611c4f565b508560e00151816008019080519060200190610608929190611c4f565b50848160090160008201518160000160006101000a81548160ff021916908360000b60ff16021790555060208201518160000160016101000a81548160ff021916908360000b60ff16021790555060408201518160000160026101000a81548160ff021916908360ff16021790555060608201518160000160036101000a81548160ff021916908360ff1602179055509050504281600b018190555060005b84518110156107e85781600a018582815181106106c057fe5b60200260200101519080600181540180825580915050600190039060005260206000209060080201600090919091909150600082015181600001908051906020019061070d929190611c4f565b50602082015181600101908051906020019061072a929190611c4f565b506040820151816002019080519060200190610747929190611c4f565b506060820151816003019080519060200190610764929190611c4f565b506080820151816004019080519060200190610781929190611c4f565b5060a082015181600501908051906020019061079e929190611c4f565b5060c08201518160060190805190602001906107bb929190611c4f565b5060e08201518160070190805190602001906107d8929190611c4f565b50505080806001019150506106a7565b50817f96438370e509f7b4e5442d1afc3c7c3457b7ad2d4b175878c807d48a4d90516287600001514260405161081f929190612b20565b60405180910390a281925050509392505050565b600281805160208101820180518482526020830160208501208183528095505050505050600091509050806000018054600181600116156101000203166002900480601f0160208091040260200160405190810160405280929190818152602001828054600181600116156101000203166002900480156108f55780601f106108ca576101008083540402835291602001916108f5565b820191906000526020600020905b8154815290600101906020018083116108d857829003601f168201915b505050505090806001015490806002016040518060a00160405290816000820160009054906101000a900460000b60000b60000b81526020016000820160019054906101000a900460ff1660ff1660ff168152602001600182018054600181600116156101000203166002900480601f0160208091040260200160405190810160405280929190818152602001828054600181600116156101000203166002900480156109e35780601f106109b8576101008083540402835291602001916109e3565b820191906000526020600020905b8154815290600101906020018083116109c657829003601f168201915b50505050508152602001600282018054600181600116156101000203166002900480601f016020809104026020016040519081016040528092919081815260200182805460018160011615610100020316600290048015610a855780601f10610a5a57610100808354040283529160200191610a85565b820191906000526020600020905b815481529060010190602001808311610a6857829003601f168201915b50505050508152602001600382015481525050908060060154905084565b60005b8351811015610c49576040518060800160405280858381518110610ac657fe5b60200260200101518152602001848152602001838152602001428152506002858381518110610af157fe5b6020026020010151604051610b069190612aa3565b90815260200160405180910390206000820151816000019080519060200190610b30929190611c4f565b506020820151816001015560408201518160020160008201518160000160006101000a81548160ff021916908360000b60ff16021790555060208201518160000160016101000a81548160ff021916908360ff1602179055506040820151816001019080519060200190610ba5929190611c4f565b506060820151816002019080519060200190610bc2929190611c4f565b5060808201518160030155505060608201518160060155905050838181518110610be857fe5b6020026020010151604051610bfd9190612aa3565b60405180910390207f5c53b353e824876ab4ca986d8e539d2cd5a6a6aa71510449b801419ba5076e6a84604051610c349190612bc5565b60405180910390a28080600101915050610aa6565b50505050565b6001828051602081018201805184825260208301602085012081835280955050505050508181548110610c7e57fe5b90600052602060002001600091509150508054600181600116156101000203166002900480601f016020809104026020016040519081016040528092919081815260200182805460018160011615610100020316600290048015610d235780601f10610cf857610100808354040283529160200191610d23565b820191906000526020600020905b815481529060010190602001808311610d0657829003601f168201915b505050505081565b60005b8351811015610ff157610d3f611ccf565b848281518110610d4b57fe5b6020026020010151905060608160200151905060005b8151811015610f04576040518060800160405280838381518110610d8157fe5b60200260200101518152602001878152602001868152602001428152506002838381518110610dac57fe5b6020026020010151604051610dc19190612aa3565b90815260200160405180910390206000820151816000019080519060200190610deb929190611c4f565b506020820151816001015560408201518160020160008201518160000160006101000a81548160ff021916908360000b60ff16021790555060208201518160000160016101000a81548160ff021916908360ff1602179055506040820151816001019080519060200190610e60929190611c4f565b506060820151816002019080519060200190610e7d929190611c4f565b5060808201518160030155505060608201518160060155905050818181518110610ea357fe5b6020026020010151604051610eb89190612aa3565b60405180910390207f5c53b353e824876ab4ca986d8e539d2cd5a6a6aa71510449b801419ba5076e6a87604051610eef9190612bc5565b60405180910390a28080600101915050610d61565b5060005b8151811015610f8d5760018360000151604051610f259190612aa3565b9081526020016040518091039020828281518110610f3f57fe5b6020026020010151908060018154018082558091505060019003906000526020600020016000909190919091509080519060200190610f7f929190611c4f565b508080600101915050610f08565b508160000151604051610fa09190612aa3565b60405180910390207fa1e72c2b1494438483667dce1ee48e91fd4c25b91d5efe16e005c9e9eb25214f868351604051610fda929190612cc3565b60405180910390a250508080600101915050610d2e565b50505050565b60035481565b606060018260405161100f9190612aa3565b9081526020016040518091039020805480602002602001604051908101604052809291908181526020016000905b828210156110f9578382906000526020600020018054600181600116156101000203166002900480601f0160208091040260200160405190810160405280929190818152602001828054600181600116156101000203166002900480156110e55780601f106110ba576101008083540402835291602001916110e5565b820191906000526020600020905b8154815290600101906020018083116110c857829003601f168201915b50505050508152602001906001019061103d565b505050509050919050565b6060600080838152602001908152602001600020600a01805480602002602001604051908101604052809291908181526020016000905b8282101561167e578382906000526020600020906008020160405180610100016040529081600082018054600181600116156101000203166002900480601f0160208091040260200160405190810160405280929190818152602001828054600181600116156101000203166002900480156111f85780601f106111cd576101008083540402835291602001916111f8565b820191906000526020600020905b8154815290600101906020018083116111db57829003601f168201915b50505050508152602001600182018054600181600116156101000203166002900480601f01602080910402602001604051908101604052809291908181526020018280546001816001161561010002031660029004801561129a5780601f1061126f5761010080835404028352916020019161129a565b820191906000526020600020905b81548152906001019060200180831161127d57829003601f168201915b50505050508152602001600282018054600181600116156101000203166002900480601f01602080910402602001604051908101604052809291908181526020018280546001816001161561010002031660029004801561133c5780601f106113115761010080835404028352916020019161133c565b820191906000526020600020905b81548152906001019060200180831161131f57829003601f168201915b50505050508152602001600382018054600181600116156101000203166002900480601f0160208091040260200160405190810160405280929190818152602001828054600181600116156101000203166002900480156113de5780601f106113b3576101008083540402835291602001916113de565b820191906000526020600020905b8154815290600101906020018083116113c157829003601f168201915b50505050508152602001600482018054600181600116156101000203166002900480601f0160208091040260200160405190810160405280929190818152602001828054600181600116156101000203166002900480156114805780601f1061145557610100808354040283529160200191611480565b820191906000526020600020905b81548152906001019060200180831161146357829003601f168201915b50505050508152602001600582018054600181600116156101000203166002900480601f0160208091040260200160405190810160405280929190818152602001828054600181600116156101000203166002900480156115225780601f106114f757610100808354040283529160200191611522565b820191906000526020600020905b81548152906001019060200180831161150557829003601f168201915b50505050508152602001600682018054600181600116156101000203166002900480601f0160208091040260200160405190810160405280929190818152602001828054600181600116156101000203166002900480156115c45780601f10611599576101008083540402835291602001916115c4565b820191906000526020600020905b8154815290600101906020018083116115a757829003601f168201915b50505050508152602001600782018054600181600116156101000203166002900480601f0160208091040260200160405190810160405280929190818152602001828054600181600116156101000203166002900480156116665780601f1061163b57610100808354040283529160200191611666565b820191906000526020600020905b81548152906001019060200180831161164957829003601f168201915b5050505050815250508152602001906001019061113b565b505050509050919050565b6000602052806000526040600020600091509050806000015490806001018054600181600116156101000203166002900480601f01602080910402602001604051908101604052809291908181526020018280546001816001161561010002031660029004801561173b5780601f106117105761010080835404028352916020019161173b565b820191906000526020600020905b81548152906001019060200180831161171e57829003601f168201915b505050505090806002018054600181600116156101000203166002900480601f0160208091040260200160405190810160405280929190818152602001828054600181600116156101000203166002900480156117d95780601f106117ae576101008083540402835291602001916117d9565b820191906000526020600020905b8154815290600101906020018083116117bc57829003601f168201915b505050505090806003018054600181600116156101000203166002900480601f0160208091040260200160405190810160405280929190818152602001828054600181600116156101000203166002900480156118775780601f1061184c57610100808354040283529160200191611877565b820191906000526020600020905b81548152906001019060200180831161185a57829003601f168201915b505050505090806004018054600181600116156101000203166002900480601f0160208091040260200160405190810160405280929190818152602001828054600181600116156101000203166002900480156119155780601f106118ea57610100808354040283529160200191611915565b820191906000526020600020905b8154815290600101906020018083116118f857829003601f168201915b505050505090806005018054600181600116156101000203166002900480601f0160208091040260200160405190810160405280929190818152602001828054600181600116156101000203166002900480156119b35780601f10611988576101008083540402835291602001916119b3565b820191906000526020600020905b81548152906001019060200180831161199657829003601f168201915b505050505090806006018054600181600116156101000203166002900480601f016020809104026020016040519081016040528092919081815260200182805460018160011615610100020316600290048015611a515780601f10611a2657610100808354040283529160200191611a51565b820191906000526020600020905b815481529060010190602001808311611a3457829003601f168201915b505050505090806007018054600181600116156101000203166002900480601f016020809104026020016040519081016040528092919081815260200182805460018160011615610100020316600290048015611aef5780601f10611ac457610100808354040283529160200191611aef565b820191906000526020600020905b815481529060010190602001808311611ad257829003601f168201915b505050505090806008018054600181600116156101000203166002900480601f016020809104026020016040519081016040528092919081815260200182805460018160011615610100020316600290048015611b8d5780601f10611b6257610100808354040283529160200191611b8d565b820191906000526020600020905b815481529060010190602001808311611b7057829003601f168201915b505050505090806009016040518060800160405290816000820160009054906101000a900460000b60000b60000b81526020016000820160019054906101000a900460000b60000b60000b81526020016000820160029054906101000a900460ff1660ff1660ff1681526020016000820160039054906101000a900460ff1660ff1660ff16815250509080600b015490508b565b60405180608001604052806060815260200160008152602001611c42611ce9565b8152602001600081525090565b828054600181600116156101000203166002900490600052602060002090601f016020900481019282601f10611c9057805160ff1916838001178555611cbe565b82800160010185558215611cbe579182015b82811115611cbd578251825591602001919060010190611ca2565b5b509050611ccb9190611d1d565b5090565b604051806040016040528060608152602001606081525090565b6040518060a001604052806000800b8152602001600060ff1681526020016060815260200160608152602001600081525090565b5b80821115611d36576000816000905550600101611d1e565b5090565b600082601f830112611d4b57600080fd5b8135611d5e611d5982612d19565b612cec565b9150818183526020840193506020810190508360005b83811015611da45781358601611d8a8882611eab565b845260208401935060208301925050600181019050611d74565b5050505092915050565b600082601f830112611dbf57600080fd5b8135611dd2611dcd82612d41565b612cec565b9150818183526020840193506020810190508360005b83811015611e185781358601611dfe8882611eff565b845260208401935060208301925050600181019050611de8565b5050505092915050565b600082601f830112611e3357600080fd5b8135611e46611e4182612d69565b612cec565b9150818183526020840193506020810190508360005b83811015611e8c5781358601611e72888261222d565b845260208401935060208301925050600181019050611e5c565b5050505092915050565b600081359050611ea581612ede565b92915050565b600082601f830112611ebc57600080fd5b8135611ecf611eca82612d91565b612cec565b91508082526020830160208301858383011115611eeb57600080fd5b611ef6838284612e8b565b50505092915050565b600060408284031215611f1157600080fd5b611f1b6040612cec565b9050600082013567ffffffffffffffff811115611f3757600080fd5b611f4384828501611eab565b600083015250602082013567ffffffffffffffff811115611f6357600080fd5b611f6f84828501611d3a565b60208301525092915050565b600060a08284031215611f8d57600080fd5b611f9760a0612cec565b90506000611fa784828501611e96565b6000830152506020611fbb848285016123c8565b602083015250604082013567ffffffffffffffff811115611fdb57600080fd5b611fe784828501611eab565b604083015250606082013567ffffffffffffffff81111561200757600080fd5b61201384828501611eab565b6060830152506080612027848285016123b3565b60808301525092915050565b60006080828403121561204557600080fd5b61204f6080612cec565b9050600061205f84828501611e96565b600083015250602061207384828501611e96565b6020830152506040612087848285016123c8565b604083015250606061209b848285016123c8565b60608301525092915050565b600061010082840312156120ba57600080fd5b6120c5610100612cec565b9050600082013567ffffffffffffffff8111156120e157600080fd5b6120ed84828501611eab565b600083015250602082013567ffffffffffffffff81111561210d57600080fd5b61211984828501611eab565b602083015250604082013567ffffffffffffffff81111561213957600080fd5b61214584828501611eab565b604083015250606082013567ffffffffffffffff81111561216557600080fd5b61217184828501611eab565b606083015250608082013567ffffffffffffffff81111561219157600080fd5b61219d84828501611eab565b60808301525060a082013567ffffffffffffffff8111156121bd57600080fd5b6121c984828501611eab565b60a08301525060c082013567ffffffffffffffff8111156121e957600080fd5b6121f584828501611eab565b60c08301525060e082013567ffffffffffffffff81111561221557600080fd5b61222184828501611eab565b60e08301525092915050565b6000610100828403121561224057600080fd5b61224b610100612cec565b9050600082013567ffffffffffffffff81111561226757600080fd5b61227384828501611eab565b600083015250602082013567ffffffffffffffff81111561229357600080fd5b61229f84828501611eab565b602083015250604082013567ffffffffffffffff8111156122bf57600080fd5b6122cb84828501611eab565b604083015250606082013567ffffffffffffffff8111156122eb57600080fd5b6122f784828501611eab565b606083015250608082013567ffffffffffffffff81111561231757600080fd5b61232384828501611eab565b60808301525060a082013567ffffffffffffffff81111561234357600080fd5b61234f84828501611eab565b60a08301525060c082013567ffffffffffffffff81111561236f57600080fd5b61237b84828501611eab565b60c08301525060e082013567ffffffffffffffff81111561239b57600080fd5b6123a784828501611eab565b60e08301525092915050565b6000813590506123c281612ef5565b92915050565b6000813590506123d781612f0c565b92915050565b6000806000606084860312156123f257600080fd5b600084013567ffffffffffffffff81111561240c57600080fd5b61241886828701611d3a565b9350506020612429868287016123b3565b925050604084013567ffffffffffffffff81111561244657600080fd5b61245286828701611f7b565b9150509250925092565b60008060006060848603121561247157600080fd5b600084013567ffffffffffffffff81111561248b57600080fd5b61249786828701611dae565b93505060206124a8868287016123b3565b925050604084013567ffffffffffffffff8111156124c557600080fd5b6124d186828701611f7b565b9150509250925092565b6000602082840312156124ed57600080fd5b600082013567ffffffffffffffff81111561250757600080fd5b61251384828501611eab565b91505092915050565b6000806040838503121561252f57600080fd5b600083013567ffffffffffffffff81111561254957600080fd5b61255585828601611eab565b9250506020612566858286016123b3565b9150509250929050565b600080600060c0848603121561258557600080fd5b600084013567ffffffffffffffff81111561259f57600080fd5b6125ab868287016120a7565b93505060206125bc86828701612033565b92505060a084013567ffffffffffffffff8111156125d957600080fd5b6125e586828701611e22565b9150509250925092565b60006020828403121561260157600080fd5b600061260f848285016123b3565b91505092915050565b60006126248383612739565b905092915050565b6000612638838361292b565b905092915050565b600061264b82612ddd565b6126558185612e18565b93508360208202850161266785612dbd565b8060005b858110156126a357848403895281516126848582612618565b945061268f83612dfe565b925060208a0199505060018101905061266b565b50829750879550505050505092915050565b60006126c082612de8565b6126ca8185612e29565b9350836020820285016126dc85612dcd565b8060005b8581101561271857848403895281516126f9858261262c565b945061270483612e0b565b925060208a019950506001810190506126e0565b50829750879550505050505092915050565b61273381612e67565b82525050565b600061274482612df3565b61274e8185612e3a565b935061275e818560208601612e9a565b61276781612ecd565b840191505092915050565b600061277d82612df3565b6127878185612e4b565b9350612797818560208601612e9a565b6127a081612ecd565b840191505092915050565b60006127b682612df3565b6127c08185612e5c565b93506127d0818560208601612e9a565b80840191505092915050565b600060a0830160008301516127f4600086018261272a565b5060208301516128076020860182612a94565b506040830151848203604086015261281f8282612739565b915050606083015184820360608601526128398282612739565b915050608083015161284e6080860182612a76565b508091505092915050565b600060a083016000830151612871600086018261272a565b5060208301516128846020860182612a94565b506040830151848203604086015261289c8282612739565b915050606083015184820360608601526128b68282612739565b91505060808301516128cb6080860182612a76565b508091505092915050565b6080820160008201516128ec600085018261272a565b5060208201516128ff602085018261272a565b5060408201516129126040850182612a94565b5060608201516129256060850182612a94565b50505050565b60006101008301600083015184820360008601526129498282612739565b915050602083015184820360208601526129638282612739565b9150506040830151848203604086015261297d8282612739565b915050606083015184820360608601526129978282612739565b915050608083015184820360808601526129b18282612739565b91505060a083015184820360a08601526129cb8282612739565b91505060c083015184820360c08601526129e58282612739565b91505060e083015184820360e08601526129ff8282612739565b9150508091505092915050565b60006080830160008301518482036000860152612a298282612739565b9150506020830151612a3e6020860182612a76565b5060408301518482036040860152612a5682826127dc565b9150506060830151612a6b6060860182612a76565b508091505092915050565b612a7f81612e74565b82525050565b612a8e81612e74565b82525050565b612a9d81612e7e565b82525050565b6000612aaf82846127ab565b915081905092915050565b60006020820190508181036000830152612ad48184612640565b905092915050565b60006020820190508181036000830152612af681846126b5565b905092915050565b60006020820190508181036000830152612b188184612772565b905092915050565b60006040820190508181036000830152612b3a8185612772565b9050612b496020830184612a85565b9392505050565b60006080820190508181036000830152612b6a8187612772565b9050612b796020830186612a85565b8181036040830152612b8b8185612859565b9050612b9a6060830184612a85565b95945050505050565b60006020820190508181036000830152612bbd8184612a0c565b905092915050565b6000602082019050612bda6000830184612a85565b92915050565b60006101c082019050612bf6600083018e612a85565b8181036020830152612c08818d612772565b90508181036040830152612c1c818c612772565b90508181036060830152612c30818b612772565b90508181036080830152612c44818a612772565b905081810360a0830152612c588189612772565b905081810360c0830152612c6c8188612772565b905081810360e0830152612c808187612772565b9050818103610100830152612c958186612772565b9050612ca56101208301856128d6565b612cb36101a0830184612a85565b9c9b505050505050505050505050565b6000604082019050612cd86000830185612a85565b612ce56020830184612a85565b9392505050565b6000604051905081810181811067ffffffffffffffff82111715612d0f57600080fd5b8060405250919050565b600067ffffffffffffffff821115612d3057600080fd5b602082029050602081019050919050565b600067ffffffffffffffff821115612d5857600080fd5b602082029050602081019050919050565b600067ffffffffffffffff821115612d8057600080fd5b602082029050602081019050919050565b600067ffffffffffffffff821115612da857600080fd5b601f19601f8301169050602081019050919050565b6000819050602082019050919050565b6000819050602082019050919050565b600081519050919050565b600081519050919050565b600081519050919050565b6000602082019050919050565b6000602082019050919050565b600082825260208201905092915050565b600082825260208201905092915050565b600082825260208201905092915050565b600082825260208201905092915050565b600081905092915050565b60008160000b9050919050565b6000819050919050565b600060ff82169050919050565b82818337600083830152505050565b60005b83811015612eb8578082015181840152602081019050612e9d565b83811115612ec7576000848401525b50505050565b6000601f19601f8301169050919050565b612ee781612e67565b8114612ef257600080fd5b50565b612efe81612e74565b8114612f0957600080fd5b50565b612f1581612e7e565b8114612f2057600080fd5b5056fea2646970667358221220cd9bd5b952c1c76d887f8783903e9f0fc75fc9e72ab6715f7e50de8d380ca3f564736f6c63430007010033",
  "immutableReferences": {},
  "source": "// SPDX-License-Identifier: MIT\r\npragma solidity >=0.7.0 <0.9.0;\r\npragma experimental ABIEncoderV2;\r\n\r\ncontract Medecin {\r\n    // Structures de données\r\n    struct Conservation {\r\n        int8 temperatureMax;\r\n        int8 temperatureMin;\r\n        uint8 humiditeMax;\r\n        uint8 humiditeMin;\r\n    }\r\n\r\n    struct MatierePremiere {\r\n        string nom;\r\n        string origine;\r\n        string fournisseur;\r\n        string degrePurete;\r\n        string quantiteParUnite;\r\n        string certificatAnalyse;\r\n        string dateReception;\r\n        string transport;\r\n    }\r\n\r\n    struct ConditionsActuelles {\r\n        int8 temperature;\r\n        uint8 humidite;\r\n        string positionX;\r\n        string positionY;\r\n        uint256 timestamp;\r\n    }\r\n\r\n    struct LotDetails {\r\n        string nomMedicament;\r\n        string substanceActive;\r\n        string forme;\r\n        string dateFabrication;\r\n        string datePeremption;\r\n        string nomFabricant;\r\n        string paysOrigine;\r\n        string amm;\r\n    }\r\n\r\n    struct LotMedicament {\r\n        uint256 lotId;\r\n        string nomMedicament;\r\n        string substanceActive;\r\n        string forme;\r\n        string dateFabrication;\r\n        string datePeremption;\r\n        string nomFabricant;\r\n        string paysOrigine;\r\n        string amm;\r\n        Conservation conditionsConservation;\r\n        MatierePremiere[] matieresPremieresLot;\r\n        uint256 timestamp;\r\n    }\r\n\r\n    struct UniteMedicament {\r\n        string medicamentId;\r\n        uint256 lotId;\r\n        ConditionsActuelles conditionsActuelles;\r\n        uint256 timestampCreation;\r\n    }\r\n\r\n    struct Box {\r\n        string boxId;\r\n        string[] medicamentIds;\r\n    }\r\n\r\n    // Storage\r\n    mapping(uint256 => LotMedicament) public lots;\r\n    mapping(string => string[]) public boxToMedicaments; // Maps boxId to array of medicamentIds\r\n    mapping(string => UniteMedicament) public medicaments; // Maps medicamentId to its data\r\n    uint256 public nextLotId = 1;\r\n\r\n    // Events\r\n    event LotCree(uint256 indexed lotId, string nomMedicament, uint256 timestamp);\r\n    event BoxAssembled(string indexed boxId, uint256 lotId, uint256 medicamentCount);\r\n    event MedicamentCreated(string indexed medicamentId, uint256 lotId);\r\n\r\n    // Fonction d'ajout d'un lot avec structs regroupés\r\n    function creerLotMedicament(\r\n        LotDetails memory _lotDetails,\r\n        Conservation memory _conservation,\r\n        MatierePremiere[] memory _matieresPremieresLot\r\n    ) public returns (uint256) {\r\n        uint256 lotId = nextLotId++;\r\n        \r\n        LotMedicament storage lot = lots[lotId];\r\n        lot.lotId = lotId;\r\n        lot.nomMedicament = _lotDetails.nomMedicament;\r\n        lot.substanceActive = _lotDetails.substanceActive;\r\n        lot.forme = _lotDetails.forme;\r\n        lot.dateFabrication = _lotDetails.dateFabrication;\r\n        lot.datePeremption = _lotDetails.datePeremption;\r\n        lot.nomFabricant = _lotDetails.nomFabricant;\r\n        lot.paysOrigine = _lotDetails.paysOrigine;\r\n        lot.amm = _lotDetails.amm;\r\n        lot.conditionsConservation = _conservation;\r\n        lot.timestamp = block.timestamp;\r\n\r\n        for (uint i = 0; i < _matieresPremieresLot.length; i++) {\r\n            lot.matieresPremieresLot.push(_matieresPremieresLot[i]);\r\n        }\r\n\r\n        emit LotCree(lotId, _lotDetails.nomMedicament, block.timestamp);\r\n        return lotId;\r\n    }\r\n\r\n    // Create multiple medicine units with same parameters (except IDs)\r\n    function createMedicamentUnits(\r\n        string[] memory _medicamentIds,\r\n        uint256 _lotId,\r\n        ConditionsActuelles memory _conditions\r\n    ) public {\r\n        for (uint i = 0; i < _medicamentIds.length; i++) {\r\n            medicaments[_medicamentIds[i]] = UniteMedicament({\r\n                medicamentId: _medicamentIds[i],\r\n                lotId: _lotId,\r\n                conditionsActuelles: _conditions,\r\n                timestampCreation: block.timestamp\r\n            });\r\n            \r\n            emit MedicamentCreated(_medicamentIds[i], _lotId);\r\n        }\r\n    }\r\n\r\n    function createAndAssignMedicaments(\r\n        Box[] memory _boxes,\r\n        uint256 _lotId,\r\n        ConditionsActuelles memory _conditions\r\n    ) public {\r\n        // Loop through each box in the input array\r\n        for (uint boxIndex = 0; boxIndex < _boxes.length; boxIndex++) {\r\n            Box memory currentBox = _boxes[boxIndex];\r\n            string[] memory medicamentIds = currentBox.medicamentIds;\r\n            \r\n            // 1. Create the medicaments for this box\r\n            for (uint i = 0; i < medicamentIds.length; i++) {\r\n                medicaments[medicamentIds[i]] = UniteMedicament({\r\n                    medicamentId: medicamentIds[i],\r\n                    lotId: _lotId,\r\n                    conditionsActuelles: _conditions,\r\n                    timestampCreation: block.timestamp\r\n                });\r\n\r\n                emit MedicamentCreated(medicamentIds[i], _lotId);\r\n            }\r\n\r\n            // 2. Associate them with the current box\r\n            for (uint i = 0; i < medicamentIds.length; i++) {\r\n                boxToMedicaments[currentBox.boxId].push(medicamentIds[i]);\r\n            }\r\n\r\n            emit BoxAssembled(currentBox.boxId, _lotId, medicamentIds.length);\r\n        }\r\n    }\r\n\r\n\r\n    // Get all medicine IDs in a box\r\n    function getMedicamentsInBox(string memory _boxId) public view returns (string[] memory) {\r\n        return boxToMedicaments[_boxId];\r\n    }\r\n\r\n    // Get medicine details\r\n    function getMedicamentDetails(string memory _medicamentId) public view returns (\r\n        UniteMedicament memory\r\n    ) {\r\n        UniteMedicament memory unit = medicaments[_medicamentId];\r\n        return (unit);\r\n    }\r\n\r\n    function getMatieresPremieresForLot(uint256 _lotId) public view returns (MatierePremiere[] memory) {\r\n        return lots[_lotId].matieresPremieresLot;\r\n    }\r\n}",
  "sourcePath": "C:\\Users\\HP\\Documents\\GitHub\\medproject\\contracts\\Medecin.sol",
  "compiler": {
    "name": "solc",
    "version": "0.7.1+commit.f4a555be.Emscripten.clang"
  },
  "schemaVersion": "3.4.16",
  "updatedAt": "2025-05-01T10:21:30.088Z",
  "networkType": "ethereum",
  "devdoc": {
    "kind": "dev",
    "methods": {},
    "version": 1
  },
  "userdoc": {
    "kind": "user",
    "methods": {},
    "version": 1
  }
}