{
  "contractName": "Medecin",
  "abi": [
    {
      "anonymous": false,
      "inputs": [
        {
          "indexed": true,
          "internalType": "string",
          "name": "boxId",
          "type": "string"
        },
        {
          "indexed": false,
          "internalType": "uint256",
          "name": "lotId",
          "type": "uint256"
        },
        {
          "indexed": false,
          "internalType": "uint256",
          "name": "medicamentCount",
          "type": "uint256"
        }
      ],
      "name": "BoxAssembled",
      "type": "event"
    },
    {
      "anonymous": false,
      "inputs": [
        {
          "indexed": true,
          "internalType": "uint256",
          "name": "lotId",
          "type": "uint256"
        },
        {
          "indexed": false,
          "internalType": "string",
          "name": "nomMedicament",
          "type": "string"
        },
        {
          "indexed": false,
          "internalType": "uint256",
          "name": "timestamp",
          "type": "uint256"
        }
      ],
      "name": "LotCree",
      "type": "event"
    },
    {
      "anonymous": false,
      "inputs": [
        {
          "indexed": true,
          "internalType": "string",
          "name": "medicamentId",
          "type": "string"
        },
        {
          "indexed": false,
          "internalType": "uint256",
          "name": "lotId",
          "type": "uint256"
        }
      ],
      "name": "MedicamentCreated",
      "type": "event"
    },
    {
      "inputs": [
        {
          "internalType": "string",
          "name": "",
          "type": "string"
        },
        {
          "internalType": "uint256",
          "name": "",
          "type": "uint256"
        }
      ],
      "name": "boxToMedicaments",
      "outputs": [
        {
          "internalType": "string",
          "name": "",
          "type": "string"
        }
      ],
      "stateMutability": "view",
      "type": "function",
      "constant": true
    },
    {
      "inputs": [
        {
          "internalType": "uint256",
          "name": "",
          "type": "uint256"
        }
      ],
      "name": "lots",
      "outputs": [
        {
          "internalType": "uint256",
          "name": "lotId",
          "type": "uint256"
        },
        {
          "internalType": "string",
          "name": "nomMedicament",
          "type": "string"
        },
        {
          "internalType": "string",
          "name": "substanceActive",
          "type": "string"
        },
        {
          "internalType": "string",
          "name": "forme",
          "type": "string"
        },
        {
          "internalType": "string",
          "name": "dateFabrication",
          "type": "string"
        },
        {
          "internalType": "string",
          "name": "datePeremption",
          "type": "string"
        },
        {
          "internalType": "string",
          "name": "nomFabricant",
          "type": "string"
        },
        {
          "internalType": "string",
          "name": "paysOrigine",
          "type": "string"
        },
        {
          "internalType": "string",
          "name": "amm",
          "type": "string"
        },
        {
          "components": [
            {
              "internalType": "int8",
              "name": "temperatureMax",
              "type": "int8"
            },
            {
              "internalType": "int8",
              "name": "temperatureMin",
              "type": "int8"
            },
            {
              "internalType": "uint8",
              "name": "humiditeMax",
              "type": "uint8"
            },
            {
              "internalType": "uint8",
              "name": "humiditeMin",
              "type": "uint8"
            }
          ],
          "internalType": "struct Medecin.Conservation",
          "name": "conditionsConservation",
          "type": "tuple"
        },
        {
          "internalType": "uint256",
          "name": "timestamp",
          "type": "uint256"
        }
      ],
      "stateMutability": "view",
      "type": "function",
      "constant": true
    },
    {
      "inputs": [
        {
          "internalType": "string",
          "name": "",
          "type": "string"
        }
      ],
      "name": "medicaments",
      "outputs": [
        {
          "internalType": "string",
          "name": "medicamentId",
          "type": "string"
        },
        {
          "internalType": "uint256",
          "name": "lotId",
          "type": "uint256"
        },
        {
          "components": [
            {
              "internalType": "int8",
              "name": "temperature",
              "type": "int8"
            },
            {
              "internalType": "uint8",
              "name": "humidite",
              "type": "uint8"
            },
            {
              "internalType": "string",
              "name": "positionX",
              "type": "string"
            },
            {
              "internalType": "string",
              "name": "positionY",
              "type": "string"
            },
            {
              "internalType": "uint256",
              "name": "timestamp",
              "type": "uint256"
            }
          ],
          "internalType": "struct Medecin.ConditionsActuelles",
          "name": "conditionsActuelles",
          "type": "tuple"
        },
        {
          "internalType": "uint256",
          "name": "timestampCreation",
          "type": "uint256"
        }
      ],
      "stateMutability": "view",
      "type": "function",
      "constant": true
    },
    {
      "inputs": [],
      "name": "nextLotId",
      "outputs": [
        {
          "internalType": "uint256",
          "name": "",
          "type": "uint256"
        }
      ],
      "stateMutability": "view",
      "type": "function",
      "constant": true
    },
    {
      "inputs": [
        {
          "components": [
            {
              "internalType": "string",
              "name": "nomMedicament",
              "type": "string"
            },
            {
              "internalType": "string",
              "name": "substanceActive",
              "type": "string"
            },
            {
              "internalType": "string",
              "name": "forme",
              "type": "string"
            },
            {
              "internalType": "string",
              "name": "dateFabrication",
              "type": "string"
            },
            {
              "internalType": "string",
              "name": "datePeremption",
              "type": "string"
            },
            {
              "internalType": "string",
              "name": "nomFabricant",
              "type": "string"
            },
            {
              "internalType": "string",
              "name": "paysOrigine",
              "type": "string"
            },
            {
              "internalType": "string",
              "name": "amm",
              "type": "string"
            }
          ],
          "internalType": "struct Medecin.LotDetails",
          "name": "_lotDetails",
          "type": "tuple"
        },
        {
          "components": [
            {
              "internalType": "int8",
              "name": "temperatureMax",
              "type": "int8"
            },
            {
              "internalType": "int8",
              "name": "temperatureMin",
              "type": "int8"
            },
            {
              "internalType": "uint8",
              "name": "humiditeMax",
              "type": "uint8"
            },
            {
              "internalType": "uint8",
              "name": "humiditeMin",
              "type": "uint8"
            }
          ],
          "internalType": "struct Medecin.Conservation",
          "name": "_conservation",
          "type": "tuple"
        },
        {
          "components": [
            {
              "internalType": "string",
              "name": "nom",
              "type": "string"
            },
            {
              "internalType": "string",
              "name": "origine",
              "type": "string"
            },
            {
              "internalType": "string",
              "name": "fournisseur",
              "type": "string"
            },
            {
              "internalType": "string",
              "name": "degrePurete",
              "type": "string"
            },
            {
              "internalType": "string",
              "name": "quantiteParUnite",
              "type": "string"
            },
            {
              "internalType": "string",
              "name": "certificatAnalyse",
              "type": "string"
            },
            {
              "internalType": "string",
              "name": "dateReception",
              "type": "string"
            },
            {
              "internalType": "string",
              "name": "transport",
              "type": "string"
            }
          ],
          "internalType": "struct Medecin.MatierePremiere[]",
          "name": "_matieresPremieresLot",
          "type": "tuple[]"
        }
      ],
      "name": "creerLotMedicament",
      "outputs": [
        {
          "internalType": "uint256",
          "name": "",
          "type": "uint256"
        }
      ],
      "stateMutability": "nonpayable",
      "type": "function"
    },
    {
      "inputs": [
        {
          "internalType": "string[]",
          "name": "_medicamentIds",
          "type": "string[]"
        },
        {
          "internalType": "uint256",
          "name": "_lotId",
          "type": "uint256"
        },
        {
          "components": [
            {
              "internalType": "int8",
              "name": "temperature",
              "type": "int8"
            },
            {
              "internalType": "uint8",
              "name": "humidite",
              "type": "uint8"
            },
            {
              "internalType": "string",
              "name": "positionX",
              "type": "string"
            },
            {
              "internalType": "string",
              "name": "positionY",
              "type": "string"
            },
            {
              "internalType": "uint256",
              "name": "timestamp",
              "type": "uint256"
            }
          ],
          "internalType": "struct Medecin.ConditionsActuelles",
          "name": "_conditions",
          "type": "tuple"
        }
      ],
      "name": "createMedicamentUnits",
      "outputs": [],
      "stateMutability": "nonpayable",
      "type": "function"
    },
    {
      "inputs": [
        {
          "internalType": "string",
          "name": "_boxId",
          "type": "string"
        },
        {
          "internalType": "string[]",
          "name": "_medicamentIds",
          "type": "string[]"
        }
      ],
      "name": "assignMedicamentsToBox",
      "outputs": [],
      "stateMutability": "nonpayable",
      "type": "function"
    },
    {
      "inputs": [
        {
          "internalType": "string",
          "name": "_boxId",
          "type": "string"
        }
      ],
      "name": "getMedicamentsInBox",
      "outputs": [
        {
          "internalType": "string[]",
          "name": "",
          "type": "string[]"
        }
      ],
      "stateMutability": "view",
      "type": "function",
      "constant": true
    },
    {
      "inputs": [
        {
          "internalType": "string",
          "name": "_medicamentId",
          "type": "string"
        }
      ],
      "name": "getMedicamentDetails",
      "outputs": [
        {
          "components": [
            {
              "internalType": "string",
              "name": "medicamentId",
              "type": "string"
            },
            {
              "internalType": "uint256",
              "name": "lotId",
              "type": "uint256"
            },
            {
              "components": [
                {
                  "internalType": "int8",
                  "name": "temperature",
                  "type": "int8"
                },
                {
                  "internalType": "uint8",
                  "name": "humidite",
                  "type": "uint8"
                },
                {
                  "internalType": "string",
                  "name": "positionX",
                  "type": "string"
                },
                {
                  "internalType": "string",
                  "name": "positionY",
                  "type": "string"
                },
                {
                  "internalType": "uint256",
                  "name": "timestamp",
                  "type": "uint256"
                }
              ],
              "internalType": "struct Medecin.ConditionsActuelles",
              "name": "conditionsActuelles",
              "type": "tuple"
            },
            {
              "internalType": "uint256",
              "name": "timestampCreation",
              "type": "uint256"
            }
          ],
          "internalType": "struct Medecin.UniteMedicament",
          "name": "",
          "type": "tuple"
        },
        {
          "components": [
            {
              "internalType": "uint256",
              "name": "lotId",
              "type": "uint256"
            },
            {
              "internalType": "string",
              "name": "nomMedicament",
              "type": "string"
            },
            {
              "internalType": "string",
              "name": "substanceActive",
              "type": "string"
            },
            {
              "internalType": "string",
              "name": "forme",
              "type": "string"
            },
            {
              "internalType": "string",
              "name": "dateFabrication",
              "type": "string"
            },
            {
              "internalType": "string",
              "name": "datePeremption",
              "type": "string"
            },
            {
              "internalType": "string",
              "name": "nomFabricant",
              "type": "string"
            },
            {
              "internalType": "string",
              "name": "paysOrigine",
              "type": "string"
            },
            {
              "internalType": "string",
              "name": "amm",
              "type": "string"
            },
            {
              "components": [
                {
                  "internalType": "int8",
                  "name": "temperatureMax",
                  "type": "int8"
                },
                {
                  "internalType": "int8",
                  "name": "temperatureMin",
                  "type": "int8"
                },
                {
                  "internalType": "uint8",
                  "name": "humiditeMax",
                  "type": "uint8"
                },
                {
                  "internalType": "uint8",
                  "name": "humiditeMin",
                  "type": "uint8"
                }
              ],
              "internalType": "struct Medecin.Conservation",
              "name": "conditionsConservation",
              "type": "tuple"
            },
            {
              "components": [
                {
                  "internalType": "string",
                  "name": "nom",
                  "type": "string"
                },
                {
                  "internalType": "string",
                  "name": "origine",
                  "type": "string"
                },
                {
                  "internalType": "string",
                  "name": "fournisseur",
                  "type": "string"
                },
                {
                  "internalType": "string",
                  "name": "degrePurete",
                  "type": "string"
                },
                {
                  "internalType": "string",
                  "name": "quantiteParUnite",
                  "type": "string"
                },
                {
                  "internalType": "string",
                  "name": "certificatAnalyse",
                  "type": "string"
                },
                {
                  "internalType": "string",
                  "name": "dateReception",
                  "type": "string"
                },
                {
                  "internalType": "string",
                  "name": "transport",
                  "type": "string"
                }
              ],
              "internalType": "struct Medecin.MatierePremiere[]",
              "name": "matieresPremieresLot",
              "type": "tuple[]"
            },
            {
              "internalType": "uint256",
              "name": "timestamp",
              "type": "uint256"
            }
          ],
          "internalType": "struct Medecin.LotMedicament",
          "name": "",
          "type": "tuple"
        }
      ],
      "stateMutability": "view",
      "type": "function",
      "constant": true
    }
  ],
  "bytecode": "0x6080604052600160035534801561001557600080fd5b506134f3806100256000396000f3fe608060405234801561001057600080fd5b50600436106100935760003560e01c806371b401931161006657806371b401931461014857806376bb904f14610164578063d666f29e14610194578063de2aa76f146101b2578063f1648e84146101e257610093565b806315334e32146100985780634e3acf2d146100c95780634fb039ee146100f957806352dcf14d1461012c575b600080fd5b6100b260048036038101906100ad919061284d565b61021c565b6040516100c0929190613150565b60405180910390f35b6100e360048036038101906100de919061294e565b611006565b6040516100f09190613187565b60405180910390f35b610113600480360381019061010e919061284d565b61134d565b60405161012394939291906130dd565b60405180910390f35b6101466004803603810190610141919061288e565b6115bd565b005b610162600480360381019061015d91906127ce565b611756565b005b61017e600480360381019061017991906128fa565b611902565b60405161018b919061308b565b60405180910390f35b61019c6119de565b6040516101a99190613187565b60405180910390f35b6101cc60048036038101906101c7919061284d565b6119e4565b6040516101d99190613069565b60405180910390f35b6101fc60048036038101906101f791906129cd565b611aeb565b6040516102139b9a999897969594939291906131a2565b60405180910390f35b610224612083565b61022c6120b1565b610234612083565b6002846040516102449190613052565b9081526020016040518091039020604051806080016040529081600082018054600181600116156101000203166002900480601f0160208091040260200160405190810160405280929190818152602001828054600181600116156101000203166002900480156102f65780601f106102cb576101008083540402835291602001916102f6565b820191906000526020600020905b8154815290600101906020018083116102d957829003601f168201915b5050505050815260200160018201548152602001600282016040518060a00160405290816000820160009054906101000a900460000b60000b60000b81526020016000820160019054906101000a900460ff1660ff1660ff168152602001600182018054600181600116156101000203166002900480601f0160208091040260200160405190810160405280929190818152602001828054600181600116156101000203166002900480156103ec5780601f106103c1576101008083540402835291602001916103ec565b820191906000526020600020905b8154815290600101906020018083116103cf57829003601f168201915b50505050508152602001600282018054600181600116156101000203166002900480601f01602080910402602001604051908101604052809291908181526020018280546001816001161561010002031660029004801561048e5780601f106104635761010080835404028352916020019161048e565b820191906000526020600020905b81548152906001019060200180831161047157829003601f168201915b50505050508152602001600382015481525050815260200160068201548152505090506104b96120b1565b600080836020015181526020019081526020016000206040518061018001604052908160008201548152602001600182018054600181600116156101000203166002900480601f01602080910402602001604051908101604052809291908181526020018280546001816001161561010002031660029004801561057e5780601f106105535761010080835404028352916020019161057e565b820191906000526020600020905b81548152906001019060200180831161056157829003601f168201915b50505050508152602001600282018054600181600116156101000203166002900480601f0160208091040260200160405190810160405280929190818152602001828054600181600116156101000203166002900480156106205780601f106105f557610100808354040283529160200191610620565b820191906000526020600020905b81548152906001019060200180831161060357829003601f168201915b50505050508152602001600382018054600181600116156101000203166002900480601f0160208091040260200160405190810160405280929190818152602001828054600181600116156101000203166002900480156106c25780601f10610697576101008083540402835291602001916106c2565b820191906000526020600020905b8154815290600101906020018083116106a557829003601f168201915b50505050508152602001600482018054600181600116156101000203166002900480601f0160208091040260200160405190810160405280929190818152602001828054600181600116156101000203166002900480156107645780601f1061073957610100808354040283529160200191610764565b820191906000526020600020905b81548152906001019060200180831161074757829003601f168201915b50505050508152602001600582018054600181600116156101000203166002900480601f0160208091040260200160405190810160405280929190818152602001828054600181600116156101000203166002900480156108065780601f106107db57610100808354040283529160200191610806565b820191906000526020600020905b8154815290600101906020018083116107e957829003601f168201915b50505050508152602001600682018054600181600116156101000203166002900480601f0160208091040260200160405190810160405280929190818152602001828054600181600116156101000203166002900480156108a85780601f1061087d576101008083540402835291602001916108a8565b820191906000526020600020905b81548152906001019060200180831161088b57829003601f168201915b50505050508152602001600782018054600181600116156101000203166002900480601f01602080910402602001604051908101604052809291908181526020018280546001816001161561010002031660029004801561094a5780601f1061091f5761010080835404028352916020019161094a565b820191906000526020600020905b81548152906001019060200180831161092d57829003601f168201915b50505050508152602001600882018054600181600116156101000203166002900480601f0160208091040260200160405190810160405280929190818152602001828054600181600116156101000203166002900480156109ec5780601f106109c1576101008083540402835291602001916109ec565b820191906000526020600020905b8154815290600101906020018083116109cf57829003601f168201915b50505050508152602001600982016040518060800160405290816000820160009054906101000a900460000b60000b60000b81526020016000820160019054906101000a900460000b60000b60000b81526020016000820160029054906101000a900460ff1660ff1660ff1681526020016000820160039054906101000a900460ff1660ff1660ff16815250508152602001600a8201805480602002602001604051908101604052809291908181526020016000905b82821015610fe5578382906000526020600020906008020160405180610100016040529081600082018054600181600116156101000203166002900480601f016020809104026020016040519081016040528092919081815260200182805460018160011615610100020316600290048015610b5f5780601f10610b3457610100808354040283529160200191610b5f565b820191906000526020600020905b815481529060010190602001808311610b4257829003601f168201915b50505050508152602001600182018054600181600116156101000203166002900480601f016020809104026020016040519081016040528092919081815260200182805460018160011615610100020316600290048015610c015780601f10610bd657610100808354040283529160200191610c01565b820191906000526020600020905b815481529060010190602001808311610be457829003601f168201915b50505050508152602001600282018054600181600116156101000203166002900480601f016020809104026020016040519081016040528092919081815260200182805460018160011615610100020316600290048015610ca35780601f10610c7857610100808354040283529160200191610ca3565b820191906000526020600020905b815481529060010190602001808311610c8657829003601f168201915b50505050508152602001600382018054600181600116156101000203166002900480601f016020809104026020016040519081016040528092919081815260200182805460018160011615610100020316600290048015610d455780601f10610d1a57610100808354040283529160200191610d45565b820191906000526020600020905b815481529060010190602001808311610d2857829003601f168201915b50505050508152602001600482018054600181600116156101000203166002900480601f016020809104026020016040519081016040528092919081815260200182805460018160011615610100020316600290048015610de75780601f10610dbc57610100808354040283529160200191610de7565b820191906000526020600020905b815481529060010190602001808311610dca57829003601f168201915b50505050508152602001600582018054600181600116156101000203166002900480601f016020809104026020016040519081016040528092919081815260200182805460018160011615610100020316600290048015610e895780601f10610e5e57610100808354040283529160200191610e89565b820191906000526020600020905b815481529060010190602001808311610e6c57829003601f168201915b50505050508152602001600682018054600181600116156101000203166002900480601f016020809104026020016040519081016040528092919081815260200182805460018160011615610100020316600290048015610f2b5780601f10610f0057610100808354040283529160200191610f2b565b820191906000526020600020905b815481529060010190602001808311610f0e57829003601f168201915b50505050508152602001600782018054600181600116156101000203166002900480601f016020809104026020016040519081016040528092919081815260200182805460018160011615610100020316600290048015610fcd5780601f10610fa257610100808354040283529160200191610fcd565b820191906000526020600020905b815481529060010190602001808311610fb057829003601f168201915b50505050508152505081526020019060010190610aa2565b505050508152602001600b8201548152505090508181935093505050915091565b60008060036000815480929190600101919050559050600080600083815260200190815260200160002090508181600001819055508560000151816001019080519060200190611057929190612118565b508560200151816002019080519060200190611074929190612118565b508560400151816003019080519060200190611091929190612118565b5085606001518160040190805190602001906110ae929190612118565b5085608001518160050190805190602001906110cb929190612118565b508560a001518160060190805190602001906110e8929190612118565b508560c00151816007019080519060200190611105929190612118565b508560e00151816008019080519060200190611122929190612118565b50848160090160008201518160000160006101000a81548160ff021916908360000b60ff16021790555060208201518160000160016101000a81548160ff021916908360000b60ff16021790555060408201518160000160026101000a81548160ff021916908360ff16021790555060608201518160000160036101000a81548160ff021916908360ff1602179055509050504281600b018190555060005b84518110156113025781600a018582815181106111da57fe5b602002602001015190806001815401808255809150506001900390600052602060002090600802016000909190919091506000820151816000019080519060200190611227929190612118565b506020820151816001019080519060200190611244929190612118565b506040820151816002019080519060200190611261929190612118565b50606082015181600301908051906020019061127e929190612118565b50608082015181600401908051906020019061129b929190612118565b5060a08201518160050190805190602001906112b8929190612118565b5060c08201518160060190805190602001906112d5929190612118565b5060e08201518160070190805190602001906112f2929190612118565b50505080806001019150506111c1565b50817f96438370e509f7b4e5442d1afc3c7c3457b7ad2d4b175878c807d48a4d9051628760000151426040516113399291906130ad565b60405180910390a281925050509392505050565b600281805160208101820180518482526020830160208501208183528095505050505050600091509050806000018054600181600116156101000203166002900480601f01602080910402602001604051908101604052809291908181526020018280546001816001161561010002031660029004801561140f5780601f106113e45761010080835404028352916020019161140f565b820191906000526020600020905b8154815290600101906020018083116113f257829003601f168201915b505050505090806001015490806002016040518060a00160405290816000820160009054906101000a900460000b60000b60000b81526020016000820160019054906101000a900460ff1660ff1660ff168152602001600182018054600181600116156101000203166002900480601f0160208091040260200160405190810160405280929190818152602001828054600181600116156101000203166002900480156114fd5780601f106114d2576101008083540402835291602001916114fd565b820191906000526020600020905b8154815290600101906020018083116114e057829003601f168201915b50505050508152602001600282018054600181600116156101000203166002900480601f01602080910402602001604051908101604052809291908181526020018280546001816001161561010002031660029004801561159f5780601f106115745761010080835404028352916020019161159f565b820191906000526020600020905b81548152906001019060200180831161158257829003601f168201915b50505050508152602001600382015481525050908060060154905084565b60005b81518110156116cc57600060028383815181106115d957fe5b60200260200101516040516115ee9190613052565b908152602001604051809103902060000180546001816001161561010002031660029004905011611654576040517f08c379a000000000000000000000000000000000000000000000000000000000815260040161164b90613130565b60405180910390fd5b6001836040516116649190613052565b908152602001604051809103902082828151811061167e57fe5b60200260200101519080600181540180825580915050600190039060005260206000200160009091909190915090805190602001906116be929190612118565b5080806001019150506115c0565b50816040516116db9190613052565b60405180910390207fa1e72c2b1494438483667dce1ee48e91fd4c25b91d5efe16e005c9e9eb25214f60028360008151811061171357fe5b60200260200101516040516117289190613052565b908152602001604051809103902060010154835160405161174a929190613285565b60405180910390a25050565b60005b83518110156118fc57604051806080016040528085838151811061177957fe5b602002602001015181526020018481526020018381526020014281525060028583815181106117a457fe5b60200260200101516040516117b99190613052565b908152602001604051809103902060008201518160000190805190602001906117e3929190612118565b506020820151816001015560408201518160020160008201518160000160006101000a81548160ff021916908360000b60ff16021790555060208201518160000160016101000a81548160ff021916908360ff1602179055506040820151816001019080519060200190611858929190612118565b506060820151816002019080519060200190611875929190612118565b506080820151816003015550506060820151816006015590505083818151811061189b57fe5b60200260200101516040516118b09190613052565b60405180910390207f5c53b353e824876ab4ca986d8e539d2cd5a6a6aa71510449b801419ba5076e6a846040516118e79190613187565b60405180910390a28080600101915050611759565b50505050565b600182805160208101820180518482526020830160208501208183528095505050505050818154811061193157fe5b90600052602060002001600091509150508054600181600116156101000203166002900480601f0160208091040260200160405190810160405280929190818152602001828054600181600116156101000203166002900480156119d65780601f106119ab576101008083540402835291602001916119d6565b820191906000526020600020905b8154815290600101906020018083116119b957829003601f168201915b505050505081565b60035481565b60606001826040516119f69190613052565b9081526020016040518091039020805480602002602001604051908101604052809291908181526020016000905b82821015611ae0578382906000526020600020018054600181600116156101000203166002900480601f016020809104026020016040519081016040528092919081815260200182805460018160011615610100020316600290048015611acc5780601f10611aa157610100808354040283529160200191611acc565b820191906000526020600020905b815481529060010190602001808311611aaf57829003601f168201915b505050505081526020019060010190611a24565b505050509050919050565b6000602052806000526040600020600091509050806000015490806001018054600181600116156101000203166002900480601f016020809104026020016040519081016040528092919081815260200182805460018160011615610100020316600290048015611b9d5780601f10611b7257610100808354040283529160200191611b9d565b820191906000526020600020905b815481529060010190602001808311611b8057829003601f168201915b505050505090806002018054600181600116156101000203166002900480601f016020809104026020016040519081016040528092919081815260200182805460018160011615610100020316600290048015611c3b5780601f10611c1057610100808354040283529160200191611c3b565b820191906000526020600020905b815481529060010190602001808311611c1e57829003601f168201915b505050505090806003018054600181600116156101000203166002900480601f016020809104026020016040519081016040528092919081815260200182805460018160011615610100020316600290048015611cd95780601f10611cae57610100808354040283529160200191611cd9565b820191906000526020600020905b815481529060010190602001808311611cbc57829003601f168201915b505050505090806004018054600181600116156101000203166002900480601f016020809104026020016040519081016040528092919081815260200182805460018160011615610100020316600290048015611d775780601f10611d4c57610100808354040283529160200191611d77565b820191906000526020600020905b815481529060010190602001808311611d5a57829003601f168201915b505050505090806005018054600181600116156101000203166002900480601f016020809104026020016040519081016040528092919081815260200182805460018160011615610100020316600290048015611e155780601f10611dea57610100808354040283529160200191611e15565b820191906000526020600020905b815481529060010190602001808311611df857829003601f168201915b505050505090806006018054600181600116156101000203166002900480601f016020809104026020016040519081016040528092919081815260200182805460018160011615610100020316600290048015611eb35780601f10611e8857610100808354040283529160200191611eb3565b820191906000526020600020905b815481529060010190602001808311611e9657829003601f168201915b505050505090806007018054600181600116156101000203166002900480601f016020809104026020016040519081016040528092919081815260200182805460018160011615610100020316600290048015611f515780601f10611f2657610100808354040283529160200191611f51565b820191906000526020600020905b815481529060010190602001808311611f3457829003601f168201915b505050505090806008018054600181600116156101000203166002900480601f016020809104026020016040519081016040528092919081815260200182805460018160011615610100020316600290048015611fef5780601f10611fc457610100808354040283529160200191611fef565b820191906000526020600020905b815481529060010190602001808311611fd257829003601f168201915b505050505090806009016040518060800160405290816000820160009054906101000a900460000b60000b60000b81526020016000820160019054906101000a900460000b60000b60000b81526020016000820160029054906101000a900460ff1660ff1660ff1681526020016000820160039054906101000a900460ff1660ff1660ff16815250509080600b015490508b565b604051806080016040528060608152602001600081526020016120a4612198565b8152602001600081525090565b6040518061018001604052806000815260200160608152602001606081526020016060815260200160608152602001606081526020016060815260200160608152602001606081526020016121046121cc565b815260200160608152602001600081525090565b828054600181600116156101000203166002900490600052602060002090601f016020900481019282601f1061215957805160ff1916838001178555612187565b82800160010185558215612187579182015b8281111561218657825182559160200191906001019061216b565b5b50905061219491906121fe565b5090565b6040518060a001604052806000800b8152602001600060ff1681526020016060815260200160608152602001600081525090565b60405180608001604052806000800b81526020016000800b8152602001600060ff168152602001600060ff1681525090565b5b808211156122175760008160009055506001016121ff565b5090565b600082601f83011261222c57600080fd5b813561223f61223a826132db565b6132ae565b9150818183526020840193506020810190508360005b83811015612285578135860161226b8882612318565b845260208401935060208301925050600181019050612255565b5050505092915050565b600082601f8301126122a057600080fd5b81356122b36122ae82613303565b6132ae565b9150818183526020840193506020810190508360005b838110156122f957813586016122df888261261e565b8452602084019350602083019250506001810190506122c9565b5050505092915050565b60008135905061231281613478565b92915050565b600082601f83011261232957600080fd5b813561233c6123378261332b565b6132ae565b9150808252602083016020830185838301111561235857600080fd5b612363838284613425565b50505092915050565b600060a0828403121561237e57600080fd5b61238860a06132ae565b9050600061239884828501612303565b60008301525060206123ac848285016127b9565b602083015250604082013567ffffffffffffffff8111156123cc57600080fd5b6123d884828501612318565b604083015250606082013567ffffffffffffffff8111156123f857600080fd5b61240484828501612318565b6060830152506080612418848285016127a4565b60808301525092915050565b60006080828403121561243657600080fd5b61244060806132ae565b9050600061245084828501612303565b600083015250602061246484828501612303565b6020830152506040612478848285016127b9565b604083015250606061248c848285016127b9565b60608301525092915050565b600061010082840312156124ab57600080fd5b6124b66101006132ae565b9050600082013567ffffffffffffffff8111156124d257600080fd5b6124de84828501612318565b600083015250602082013567ffffffffffffffff8111156124fe57600080fd5b61250a84828501612318565b602083015250604082013567ffffffffffffffff81111561252a57600080fd5b61253684828501612318565b604083015250606082013567ffffffffffffffff81111561255657600080fd5b61256284828501612318565b606083015250608082013567ffffffffffffffff81111561258257600080fd5b61258e84828501612318565b60808301525060a082013567ffffffffffffffff8111156125ae57600080fd5b6125ba84828501612318565b60a08301525060c082013567ffffffffffffffff8111156125da57600080fd5b6125e684828501612318565b60c08301525060e082013567ffffffffffffffff81111561260657600080fd5b61261284828501612318565b60e08301525092915050565b6000610100828403121561263157600080fd5b61263c6101006132ae565b9050600082013567ffffffffffffffff81111561265857600080fd5b61266484828501612318565b600083015250602082013567ffffffffffffffff81111561268457600080fd5b61269084828501612318565b602083015250604082013567ffffffffffffffff8111156126b057600080fd5b6126bc84828501612318565b604083015250606082013567ffffffffffffffff8111156126dc57600080fd5b6126e884828501612318565b606083015250608082013567ffffffffffffffff81111561270857600080fd5b61271484828501612318565b60808301525060a082013567ffffffffffffffff81111561273457600080fd5b61274084828501612318565b60a08301525060c082013567ffffffffffffffff81111561276057600080fd5b61276c84828501612318565b60c08301525060e082013567ffffffffffffffff81111561278c57600080fd5b61279884828501612318565b60e08301525092915050565b6000813590506127b38161348f565b92915050565b6000813590506127c8816134a6565b92915050565b6000806000606084860312156127e357600080fd5b600084013567ffffffffffffffff8111156127fd57600080fd5b6128098682870161221b565b935050602061281a868287016127a4565b925050604084013567ffffffffffffffff81111561283757600080fd5b6128438682870161236c565b9150509250925092565b60006020828403121561285f57600080fd5b600082013567ffffffffffffffff81111561287957600080fd5b61288584828501612318565b91505092915050565b600080604083850312156128a157600080fd5b600083013567ffffffffffffffff8111156128bb57600080fd5b6128c785828601612318565b925050602083013567ffffffffffffffff8111156128e457600080fd5b6128f08582860161221b565b9150509250929050565b6000806040838503121561290d57600080fd5b600083013567ffffffffffffffff81111561292757600080fd5b61293385828601612318565b9250506020612944858286016127a4565b9150509250929050565b600080600060c0848603121561296357600080fd5b600084013567ffffffffffffffff81111561297d57600080fd5b61298986828701612498565b935050602061299a86828701612424565b92505060a084013567ffffffffffffffff8111156129b757600080fd5b6129c38682870161228f565b9150509250925092565b6000602082840312156129df57600080fd5b60006129ed848285016127a4565b91505092915050565b6000612a028383612b17565b905092915050565b6000612a168383612eda565b905092915050565b6000612a2982613377565b612a3381856133b2565b935083602082028501612a4585613357565b8060005b85811015612a815784840389528151612a6285826129f6565b9450612a6d83613398565b925060208a01995050600181019050612a49565b50829750879550505050505092915050565b6000612a9e82613382565b612aa881856133c3565b935083602082028501612aba85613367565b8060005b85811015612af65784840389528151612ad78582612a0a565b9450612ae2836133a5565b925060208a01995050600181019050612abe565b50829750879550505050505092915050565b612b1181613401565b82525050565b6000612b228261338d565b612b2c81856133d4565b9350612b3c818560208601613434565b612b4581613467565b840191505092915050565b6000612b5b8261338d565b612b6581856133e5565b9350612b75818560208601613434565b612b7e81613467565b840191505092915050565b6000612b948261338d565b612b9e81856133f6565b9350612bae818560208601613434565b80840191505092915050565b6000612bc76019836133e5565b91507f4d65646963616d656e7420646f6573206e6f74206578697374000000000000006000830152602082019050919050565b600060a083016000830151612c126000860182612b08565b506020830151612c256020860182613043565b5060408301518482036040860152612c3d8282612b17565b91505060608301518482036060860152612c578282612b17565b9150506080830151612c6c6080860182613025565b508091505092915050565b600060a083016000830151612c8f6000860182612b08565b506020830151612ca26020860182613043565b5060408301518482036040860152612cba8282612b17565b91505060608301518482036060860152612cd48282612b17565b9150506080830151612ce96080860182613025565b508091505092915050565b608082016000820151612d0a6000850182612b08565b506020820151612d1d6020850182612b08565b506040820151612d306040850182613043565b506060820151612d436060850182613043565b50505050565b608082016000820151612d5f6000850182612b08565b506020820151612d726020850182612b08565b506040820151612d856040850182613043565b506060820151612d986060850182613043565b50505050565b60006101e083016000830151612db76000860182613025565b5060208301518482036020860152612dcf8282612b17565b91505060408301518482036040860152612de98282612b17565b91505060608301518482036060860152612e038282612b17565b91505060808301518482036080860152612e1d8282612b17565b91505060a083015184820360a0860152612e378282612b17565b91505060c083015184820360c0860152612e518282612b17565b91505060e083015184820360e0860152612e6b8282612b17565b915050610100830151848203610100860152612e878282612b17565b915050610120830151612e9e610120860182612cf4565b506101408301518482036101a0860152612eb88282612a93565b915050610160830151612ecf6101c0860182613025565b508091505092915050565b6000610100830160008301518482036000860152612ef88282612b17565b91505060208301518482036020860152612f128282612b17565b91505060408301518482036040860152612f2c8282612b17565b91505060608301518482036060860152612f468282612b17565b91505060808301518482036080860152612f608282612b17565b91505060a083015184820360a0860152612f7a8282612b17565b91505060c083015184820360c0860152612f948282612b17565b91505060e083015184820360e0860152612fae8282612b17565b9150508091505092915050565b60006080830160008301518482036000860152612fd88282612b17565b9150506020830151612fed6020860182613025565b50604083015184820360408601526130058282612bfa565b915050606083015161301a6060860182613025565b508091505092915050565b61302e8161340e565b82525050565b61303d8161340e565b82525050565b61304c81613418565b82525050565b600061305e8284612b89565b915081905092915050565b600060208201905081810360008301526130838184612a1e565b905092915050565b600060208201905081810360008301526130a58184612b50565b905092915050565b600060408201905081810360008301526130c78185612b50565b90506130d66020830184613034565b9392505050565b600060808201905081810360008301526130f78187612b50565b90506131066020830186613034565b81810360408301526131188185612c77565b90506131276060830184613034565b95945050505050565b6000602082019050818103600083015261314981612bba565b9050919050565b6000604082019050818103600083015261316a8185612fbb565b9050818103602083015261317e8184612d9e565b90509392505050565b600060208201905061319c6000830184613034565b92915050565b60006101c0820190506131b8600083018e613034565b81810360208301526131ca818d612b50565b905081810360408301526131de818c612b50565b905081810360608301526131f2818b612b50565b90508181036080830152613206818a612b50565b905081810360a083015261321a8189612b50565b905081810360c083015261322e8188612b50565b905081810360e08301526132428187612b50565b90508181036101008301526132578186612b50565b9050613267610120830185612d49565b6132756101a0830184613034565b9c9b505050505050505050505050565b600060408201905061329a6000830185613034565b6132a76020830184613034565b9392505050565b6000604051905081810181811067ffffffffffffffff821117156132d157600080fd5b8060405250919050565b600067ffffffffffffffff8211156132f257600080fd5b602082029050602081019050919050565b600067ffffffffffffffff82111561331a57600080fd5b602082029050602081019050919050565b600067ffffffffffffffff82111561334257600080fd5b601f19601f8301169050602081019050919050565b6000819050602082019050919050565b6000819050602082019050919050565b600081519050919050565b600081519050919050565b600081519050919050565b6000602082019050919050565b6000602082019050919050565b600082825260208201905092915050565b600082825260208201905092915050565b600082825260208201905092915050565b600082825260208201905092915050565b600081905092915050565b60008160000b9050919050565b6000819050919050565b600060ff82169050919050565b82818337600083830152505050565b60005b83811015613452578082015181840152602081019050613437565b83811115613461576000848401525b50505050565b6000601f19601f8301169050919050565b61348181613401565b811461348c57600080fd5b50565b6134988161340e565b81146134a357600080fd5b50565b6134af81613418565b81146134ba57600080fd5b5056fea264697066735822122061b50c13ed0ae837537a09c66b02a2acd7bf5f41f6fbf8e64f2e2cf04a290bfb64736f6c63430007010033",
  "immutableReferences": {},
  "source": "// SPDX-License-Identifier: MIT\r\npragma solidity >=0.7.0 <0.9.0;\r\npragma experimental ABIEncoderV2;\r\n\r\ncontract Medecin {\r\n    // Structures de données\r\n    struct Conservation {\r\n        int8 temperatureMax;\r\n        int8 temperatureMin;\r\n        uint8 humiditeMax;\r\n        uint8 humiditeMin;\r\n    }\r\n\r\n    struct MatierePremiere {\r\n        string nom;\r\n        string origine;\r\n        string fournisseur;\r\n        string degrePurete;\r\n        string quantiteParUnite;\r\n        string certificatAnalyse;\r\n        string dateReception;\r\n        string transport;\r\n    }\r\n\r\n    struct ConditionsActuelles {\r\n        int8 temperature;\r\n        uint8 humidite;\r\n        string positionX;\r\n        string positionY;\r\n        uint256 timestamp;\r\n    }\r\n\r\n    struct LotDetails {\r\n        string nomMedicament;\r\n        string substanceActive;\r\n        string forme;\r\n        string dateFabrication;\r\n        string datePeremption;\r\n        string nomFabricant;\r\n        string paysOrigine;\r\n        string amm;\r\n    }\r\n\r\n    struct LotMedicament {\r\n        uint256 lotId;\r\n        string nomMedicament;\r\n        string substanceActive;\r\n        string forme;\r\n        string dateFabrication;\r\n        string datePeremption;\r\n        string nomFabricant;\r\n        string paysOrigine;\r\n        string amm;\r\n        Conservation conditionsConservation;\r\n        MatierePremiere[] matieresPremieresLot;\r\n        uint256 timestamp;\r\n    }\r\n\r\n    struct UniteMedicament {\r\n        string medicamentId;\r\n        uint256 lotId;\r\n        ConditionsActuelles conditionsActuelles;\r\n        uint256 timestampCreation;\r\n    }\r\n\r\n    // Storage\r\n    mapping(uint256 => LotMedicament) public lots;\r\n    mapping(string => string[]) public boxToMedicaments; // Maps boxId to array of medicamentIds\r\n    mapping(string => UniteMedicament) public medicaments; // Maps medicamentId to its data\r\n    uint256 public nextLotId = 1;\r\n\r\n    // Events\r\n    event LotCree(uint256 indexed lotId, string nomMedicament, uint256 timestamp);\r\n    event BoxAssembled(string indexed boxId, uint256 lotId, uint256 medicamentCount);\r\n    event MedicamentCreated(string indexed medicamentId, uint256 lotId);\r\n\r\n    // Fonction d'ajout d'un lot avec structs regroupés\r\n    function creerLotMedicament(\r\n        LotDetails memory _lotDetails,\r\n        Conservation memory _conservation,\r\n        MatierePremiere[] memory _matieresPremieresLot\r\n    ) public returns (uint256) {\r\n        uint256 lotId = nextLotId++;\r\n        \r\n        LotMedicament storage lot = lots[lotId];\r\n        lot.lotId = lotId;\r\n        lot.nomMedicament = _lotDetails.nomMedicament;\r\n        lot.substanceActive = _lotDetails.substanceActive;\r\n        lot.forme = _lotDetails.forme;\r\n        lot.dateFabrication = _lotDetails.dateFabrication;\r\n        lot.datePeremption = _lotDetails.datePeremption;\r\n        lot.nomFabricant = _lotDetails.nomFabricant;\r\n        lot.paysOrigine = _lotDetails.paysOrigine;\r\n        lot.amm = _lotDetails.amm;\r\n        lot.conditionsConservation = _conservation;\r\n        lot.timestamp = block.timestamp;\r\n\r\n        for (uint i = 0; i < _matieresPremieresLot.length; i++) {\r\n            lot.matieresPremieresLot.push(_matieresPremieresLot[i]);\r\n        }\r\n\r\n        emit LotCree(lotId, _lotDetails.nomMedicament, block.timestamp);\r\n        return lotId;\r\n    }\r\n\r\n    // Create multiple medicine units with same parameters (except IDs)\r\n    function createMedicamentUnits(\r\n        string[] memory _medicamentIds,\r\n        uint256 _lotId,\r\n        ConditionsActuelles memory _conditions\r\n    ) public {\r\n        for (uint i = 0; i < _medicamentIds.length; i++) {\r\n            medicaments[_medicamentIds[i]] = UniteMedicament({\r\n                medicamentId: _medicamentIds[i],\r\n                lotId: _lotId,\r\n                conditionsActuelles: _conditions,\r\n                timestampCreation: block.timestamp\r\n            });\r\n            \r\n            emit MedicamentCreated(_medicamentIds[i], _lotId);\r\n        }\r\n    }\r\n\r\n    // Assign multiple existing medicines to a box\r\n    function assignMedicamentsToBox(\r\n        string memory _boxId,\r\n        string[] memory _medicamentIds\r\n    ) public {\r\n        for (uint i = 0; i < _medicamentIds.length; i++) {\r\n            require(bytes(medicaments[_medicamentIds[i]].medicamentId).length > 0, \"Medicament does not exist\");\r\n            boxToMedicaments[_boxId].push(_medicamentIds[i]);\r\n        }\r\n        \r\n        emit BoxAssembled(_boxId, medicaments[_medicamentIds[0]].lotId, _medicamentIds.length);\r\n    }\r\n\r\n    // Get all medicine IDs in a box\r\n    function getMedicamentsInBox(string memory _boxId) public view returns (string[] memory) {\r\n        return boxToMedicaments[_boxId];\r\n    }\r\n\r\n    // Get medicine details\r\n    function getMedicamentDetails(string memory _medicamentId) public view returns (\r\n        UniteMedicament memory,\r\n        LotMedicament memory\r\n    ) {\r\n        UniteMedicament memory unit = medicaments[_medicamentId];\r\n        LotMedicament memory lot = lots[unit.lotId];\r\n        return (unit, lot);\r\n    }\r\n}",
  "sourcePath": "C:\\Users\\HP\\Documents\\GitHub\\medproject\\contracts\\Medecin.sol",
  "compiler": {
    "name": "solc",
    "version": "0.7.1+commit.f4a555be.Emscripten.clang"
  },
  "schemaVersion": "3.4.16",
  "updatedAt": "2025-04-17T18:20:59.062Z",
  "networkType": "ethereum",
  "devdoc": {
    "kind": "dev",
    "methods": {},
    "version": 1
  },
  "userdoc": {
    "kind": "user",
    "methods": {},
    "version": 1
  }
}