{
  "contractName": "Medecin",
  "abi": [
    {
      "anonymous": false,
      "inputs": [
        {
          "indexed": false,
          "internalType": "string",
          "name": "medicamentId",
          "type": "string"
        },
        {
          "indexed": false,
          "internalType": "uint256",
          "name": "lotId",
          "type": "uint256"
        },
        {
          "indexed": false,
          "internalType": "int8",
          "name": "temperatureActuelle",
          "type": "int8"
        },
        {
          "indexed": false,
          "internalType": "uint8",
          "name": "humiditeActuelle",
          "type": "uint8"
        },
        {
          "indexed": false,
          "internalType": "int8",
          "name": "temperatureMinRequise",
          "type": "int8"
        },
        {
          "indexed": false,
          "internalType": "int8",
          "name": "temperatureMaxRequise",
          "type": "int8"
        },
        {
          "indexed": false,
          "internalType": "uint8",
          "name": "humiditeMinRequise",
          "type": "uint8"
        },
        {
          "indexed": false,
          "internalType": "uint8",
          "name": "humiditeMaxRequise",
          "type": "uint8"
        }
      ],
      "name": "AlerteConditionsNonConformes",
      "type": "event"
    },
    {
      "anonymous": false,
      "inputs": [
        {
          "indexed": false,
          "internalType": "string",
          "name": "medicamentId",
          "type": "string"
        },
        {
          "indexed": false,
          "internalType": "int8",
          "name": "temperature",
          "type": "int8"
        },
        {
          "indexed": false,
          "internalType": "uint8",
          "name": "humidite",
          "type": "uint8"
        },
        {
          "indexed": false,
          "internalType": "string",
          "name": "positionX",
          "type": "string"
        },
        {
          "indexed": false,
          "internalType": "string",
          "name": "positionY",
          "type": "string"
        },
        {
          "indexed": false,
          "internalType": "uint256",
          "name": "timestamp",
          "type": "uint256"
        }
      ],
      "name": "ConditionsMedicamentMisesAJour",
      "type": "event"
    },
    {
      "anonymous": false,
      "inputs": [
        {
          "indexed": true,
          "internalType": "uint256",
          "name": "lotId",
          "type": "uint256"
        },
        {
          "indexed": false,
          "internalType": "string",
          "name": "nomMedicament",
          "type": "string"
        },
        {
          "indexed": false,
          "internalType": "uint256",
          "name": "timestamp",
          "type": "uint256"
        }
      ],
      "name": "LotCree",
      "type": "event"
    },
    {
      "anonymous": false,
      "inputs": [
        {
          "indexed": true,
          "internalType": "uint256",
          "name": "lotId",
          "type": "uint256"
        },
        {
          "indexed": false,
          "internalType": "string",
          "name": "nom",
          "type": "string"
        },
        {
          "indexed": false,
          "internalType": "string",
          "name": "fournisseur",
          "type": "string"
        }
      ],
      "name": "MatierePremiereAjoutee",
      "type": "event"
    },
    {
      "anonymous": false,
      "inputs": [
        {
          "indexed": false,
          "internalType": "string",
          "name": "medicamentId",
          "type": "string"
        },
        {
          "indexed": false,
          "internalType": "uint256",
          "name": "lotId",
          "type": "uint256"
        },
        {
          "indexed": false,
          "internalType": "uint256",
          "name": "timestamp",
          "type": "uint256"
        }
      ],
      "name": "UniteMedicamentCreee",
      "type": "event"
    },
    {
      "inputs": [
        {
          "internalType": "uint256",
          "name": "",
          "type": "uint256"
        }
      ],
      "name": "lots",
      "outputs": [
        {
          "internalType": "uint256",
          "name": "lotId",
          "type": "uint256"
        },
        {
          "internalType": "string",
          "name": "nomMedicament",
          "type": "string"
        },
        {
          "internalType": "string",
          "name": "substanceActive",
          "type": "string"
        },
        {
          "internalType": "string",
          "name": "forme",
          "type": "string"
        },
        {
          "internalType": "string",
          "name": "dateFabrication",
          "type": "string"
        },
        {
          "internalType": "string",
          "name": "datePeremption",
          "type": "string"
        },
        {
          "internalType": "string",
          "name": "nomFabricant",
          "type": "string"
        },
        {
          "internalType": "string",
          "name": "paysOrigine",
          "type": "string"
        },
        {
          "internalType": "string",
          "name": "amm",
          "type": "string"
        },
        {
          "components": [
            {
              "internalType": "int8",
              "name": "temperatureMax",
              "type": "int8"
            },
            {
              "internalType": "int8",
              "name": "temperatureMin",
              "type": "int8"
            },
            {
              "internalType": "uint8",
              "name": "humiditeMax",
              "type": "uint8"
            },
            {
              "internalType": "uint8",
              "name": "humiditeMin",
              "type": "uint8"
            }
          ],
          "internalType": "struct Medecin.Conservation",
          "name": "conditionsConservation",
          "type": "tuple"
        },
        {
          "internalType": "uint256",
          "name": "timestamp",
          "type": "uint256"
        }
      ],
      "stateMutability": "view",
      "type": "function"
    },
    {
      "inputs": [],
      "name": "nextLotId",
      "outputs": [
        {
          "internalType": "uint256",
          "name": "",
          "type": "uint256"
        }
      ],
      "stateMutability": "view",
      "type": "function"
    },
    {
      "inputs": [
        {
          "internalType": "string",
          "name": "",
          "type": "string"
        }
      ],
      "name": "unitesMedicament",
      "outputs": [
        {
          "internalType": "string",
          "name": "medicamentId",
          "type": "string"
        },
        {
          "internalType": "uint256",
          "name": "lotId",
          "type": "uint256"
        },
        {
          "components": [
            {
              "internalType": "int8",
              "name": "temperature",
              "type": "int8"
            },
            {
              "internalType": "uint8",
              "name": "humidite",
              "type": "uint8"
            },
            {
              "internalType": "string",
              "name": "positionX",
              "type": "string"
            },
            {
              "internalType": "string",
              "name": "positionY",
              "type": "string"
            },
            {
              "internalType": "uint256",
              "name": "timestamp",
              "type": "uint256"
            }
          ],
          "internalType": "struct Medecin.ConditionsActuelles",
          "name": "conditionsActuelles",
          "type": "tuple"
        },
        {
          "internalType": "uint256",
          "name": "timestampCreation",
          "type": "uint256"
        }
      ],
      "stateMutability": "view",
      "type": "function"
    },
    {
      "inputs": [
        {
          "components": [
            {
              "internalType": "string",
              "name": "nomMedicament",
              "type": "string"
            },
            {
              "internalType": "string",
              "name": "substanceActive",
              "type": "string"
            },
            {
              "internalType": "string",
              "name": "forme",
              "type": "string"
            },
            {
              "internalType": "string",
              "name": "dateFabrication",
              "type": "string"
            },
            {
              "internalType": "string",
              "name": "datePeremption",
              "type": "string"
            },
            {
              "internalType": "string",
              "name": "nomFabricant",
              "type": "string"
            },
            {
              "internalType": "string",
              "name": "paysOrigine",
              "type": "string"
            },
            {
              "internalType": "string",
              "name": "amm",
              "type": "string"
            },
            {
              "components": [
                {
                  "internalType": "string",
                  "name": "nom",
                  "type": "string"
                },
                {
                  "internalType": "string",
                  "name": "origine",
                  "type": "string"
                },
                {
                  "internalType": "string",
                  "name": "fournisseur",
                  "type": "string"
                },
                {
                  "internalType": "string",
                  "name": "degrePurete",
                  "type": "string"
                },
                {
                  "internalType": "string",
                  "name": "quantiteParUnite",
                  "type": "string"
                },
                {
                  "internalType": "string",
                  "name": "certificatAnalyse",
                  "type": "string"
                },
                {
                  "internalType": "string",
                  "name": "dateReception",
                  "type": "string"
                },
                {
                  "internalType": "string",
                  "name": "transport",
                  "type": "string"
                }
              ],
              "internalType": "struct Medecin.MatierePremiere[]",
              "name": "matieresPremieresLot",
              "type": "tuple[]"
            }
          ],
          "internalType": "struct Medecin.LotCreationParams",
          "name": "_params",
          "type": "tuple"
        },
        {
          "components": [
            {
              "internalType": "int8",
              "name": "temperatureMax",
              "type": "int8"
            },
            {
              "internalType": "int8",
              "name": "temperatureMin",
              "type": "int8"
            },
            {
              "internalType": "uint8",
              "name": "humiditeMax",
              "type": "uint8"
            },
            {
              "internalType": "uint8",
              "name": "humiditeMin",
              "type": "uint8"
            }
          ],
          "internalType": "struct Medecin.ConservationParams",
          "name": "_conservation",
          "type": "tuple"
        }
      ],
      "name": "creerLotMedicament",
      "outputs": [
        {
          "internalType": "uint256",
          "name": "",
          "type": "uint256"
        }
      ],
      "stateMutability": "nonpayable",
      "type": "function"
    },
    {
      "inputs": [
        {
          "internalType": "uint256",
          "name": "_lotId",
          "type": "uint256"
        },
        {
          "internalType": "string",
          "name": "_nom",
          "type": "string"
        },
        {
          "internalType": "string",
          "name": "_origine",
          "type": "string"
        },
        {
          "internalType": "string",
          "name": "_fournisseur",
          "type": "string"
        },
        {
          "internalType": "string",
          "name": "_degrePurete",
          "type": "string"
        },
        {
          "internalType": "string",
          "name": "_quantiteParUnite",
          "type": "string"
        },
        {
          "internalType": "string",
          "name": "_certificatAnalyse",
          "type": "string"
        },
        {
          "internalType": "string",
          "name": "_dateReception",
          "type": "string"
        },
        {
          "internalType": "string",
          "name": "_transport",
          "type": "string"
        }
      ],
      "name": "ajouterMatierePremiere",
      "outputs": [],
      "stateMutability": "nonpayable",
      "type": "function"
    },
    {
      "inputs": [
        {
          "components": [
            {
              "internalType": "string",
              "name": "medicamentId",
              "type": "string"
            },
            {
              "internalType": "uint256",
              "name": "lotId",
              "type": "uint256"
            },
            {
              "internalType": "int8",
              "name": "temperature",
              "type": "int8"
            },
            {
              "internalType": "uint8",
              "name": "humidite",
              "type": "uint8"
            },
            {
              "internalType": "string",
              "name": "positionX",
              "type": "string"
            },
            {
              "internalType": "string",
              "name": "positionY",
              "type": "string"
            }
          ],
          "internalType": "struct Medecin.UniteCreationParams",
          "name": "_params",
          "type": "tuple"
        }
      ],
      "name": "creerUniteMedicament",
      "outputs": [],
      "stateMutability": "nonpayable",
      "type": "function"
    },
    {
      "inputs": [
        {
          "internalType": "uint256",
          "name": "_lotId",
          "type": "uint256"
        }
      ],
      "name": "obtenirDetailsLot",
      "outputs": [
        {
          "components": [
            {
              "internalType": "uint256",
              "name": "lotId",
              "type": "uint256"
            },
            {
              "internalType": "string",
              "name": "nomMedicament",
              "type": "string"
            },
            {
              "internalType": "string",
              "name": "substanceActive",
              "type": "string"
            },
            {
              "internalType": "string",
              "name": "forme",
              "type": "string"
            },
            {
              "internalType": "string",
              "name": "dateFabrication",
              "type": "string"
            },
            {
              "internalType": "string",
              "name": "datePeremption",
              "type": "string"
            },
            {
              "internalType": "string",
              "name": "nomFabricant",
              "type": "string"
            },
            {
              "internalType": "string",
              "name": "paysOrigine",
              "type": "string"
            },
            {
              "internalType": "string",
              "name": "amm",
              "type": "string"
            },
            {
              "components": [
                {
                  "internalType": "int8",
                  "name": "temperatureMax",
                  "type": "int8"
                },
                {
                  "internalType": "int8",
                  "name": "temperatureMin",
                  "type": "int8"
                },
                {
                  "internalType": "uint8",
                  "name": "humiditeMax",
                  "type": "uint8"
                },
                {
                  "internalType": "uint8",
                  "name": "humiditeMin",
                  "type": "uint8"
                }
              ],
              "internalType": "struct Medecin.Conservation",
              "name": "conditionsConservation",
              "type": "tuple"
            },
            {
              "components": [
                {
                  "internalType": "string",
                  "name": "nom",
                  "type": "string"
                },
                {
                  "internalType": "string",
                  "name": "origine",
                  "type": "string"
                },
                {
                  "internalType": "string",
                  "name": "fournisseur",
                  "type": "string"
                },
                {
                  "internalType": "string",
                  "name": "degrePurete",
                  "type": "string"
                },
                {
                  "internalType": "string",
                  "name": "quantiteParUnite",
                  "type": "string"
                },
                {
                  "internalType": "string",
                  "name": "certificatAnalyse",
                  "type": "string"
                },
                {
                  "internalType": "string",
                  "name": "dateReception",
                  "type": "string"
                },
                {
                  "internalType": "string",
                  "name": "transport",
                  "type": "string"
                }
              ],
              "internalType": "struct Medecin.MatierePremiere[]",
              "name": "matieresPremieresLot",
              "type": "tuple[]"
            },
            {
              "internalType": "uint256",
              "name": "timestamp",
              "type": "uint256"
            }
          ],
          "internalType": "struct Medecin.LotMedicament",
          "name": "",
          "type": "tuple"
        }
      ],
      "stateMutability": "view",
      "type": "function"
    },
    {
      "inputs": [
        {
          "internalType": "string",
          "name": "_medicamentId",
          "type": "string"
        }
      ],
      "name": "obtenirUniteMedicament",
      "outputs": [
        {
          "components": [
            {
              "internalType": "string",
              "name": "medicamentId",
              "type": "string"
            },
            {
              "internalType": "uint256",
              "name": "lotId",
              "type": "uint256"
            },
            {
              "components": [
                {
                  "internalType": "int8",
                  "name": "temperature",
                  "type": "int8"
                },
                {
                  "internalType": "uint8",
                  "name": "humidite",
                  "type": "uint8"
                },
                {
                  "internalType": "string",
                  "name": "positionX",
                  "type": "string"
                },
                {
                  "internalType": "string",
                  "name": "positionY",
                  "type": "string"
                },
                {
                  "internalType": "uint256",
                  "name": "timestamp",
                  "type": "uint256"
                }
              ],
              "internalType": "struct Medecin.ConditionsActuelles",
              "name": "conditionsActuelles",
              "type": "tuple"
            },
            {
              "internalType": "uint256",
              "name": "timestampCreation",
              "type": "uint256"
            }
          ],
          "internalType": "struct Medecin.UniteMedicament",
          "name": "",
          "type": "tuple"
        }
      ],
      "stateMutability": "view",
      "type": "function"
    },
    {
      "inputs": [
        {
          "internalType": "string",
          "name": "_medicamentId",
          "type": "string"
        }
      ],
      "name": "verifierConditionsConformes",
      "outputs": [
        {
          "internalType": "bool",
          "name": "",
          "type": "bool"
        }
      ],
      "stateMutability": "view",
      "type": "function"
    }
  ],
  "bytecode": "0x6080604052600160025534801561001557600080fd5b506138fd806100256000396000f3fe608060405234801561001057600080fd5b50600436106100935760003560e01c80639c0f7877116100665780639c0f787714610147578063d666f29e14610163578063e23a137514610181578063f1648e84146101b1578063f1f97efe146101eb57610093565b806323989170146100985780632de226cf146100c857806384869d5a146100fb5780638dd9968114610117575b600080fd5b6100b260048036038101906100ad9190612a91565b61021b565b6040516100bf91906135ed565b60405180910390f35b6100e260048036038101906100dd9190612a91565b6104a5565b6040516100f294939291906134da565b60405180910390f35b61011560048036038101906101109190612b90565b610715565b005b610131600480360381019061012c9190612b67565b61091f565b60405161013e91906135cb565b60405180910390f35b610161600480360381019061015c9190612b26565b611468565b005b61016b6117bf565b604051610178919061360f565b60405180910390f35b61019b60048036038101906101969190612a91565b6117c5565b6040516101a891906133d3565b60405180910390f35b6101cb60048036038101906101c69190612b67565b6118e5565b6040516101e29b9a9998979695949392919061362a565b60405180910390f35b61020560048036038101906102009190612ad2565b611e7d565b604051610212919061360f565b60405180910390f35b61022361231b565b60018260405161023391906133bc565b9081526020016040518091039020604051806080016040529081600082018054600181600116156101000203166002900480601f0160208091040260200160405190810160405280929190818152602001828054600181600116156101000203166002900480156102e55780601f106102ba576101008083540402835291602001916102e5565b820191906000526020600020905b8154815290600101906020018083116102c857829003601f168201915b5050505050815260200160018201548152602001600282016040518060a00160405290816000820160009054906101000a900460000b60000b60000b81526020016000820160019054906101000a900460ff1660ff1660ff168152602001600182018054600181600116156101000203166002900480601f0160208091040260200160405190810160405280929190818152602001828054600181600116156101000203166002900480156103db5780601f106103b0576101008083540402835291602001916103db565b820191906000526020600020905b8154815290600101906020018083116103be57829003601f168201915b50505050508152602001600282018054600181600116156101000203166002900480601f01602080910402602001604051908101604052809291908181526020018280546001816001161561010002031660029004801561047d5780601f106104525761010080835404028352916020019161047d565b820191906000526020600020905b81548152906001019060200180831161046057829003601f168201915b5050505050815260200160038201548152505081526020016006820154815250509050919050565b600181805160208101820180518482526020830160208501208183528095505050505050600091509050806000018054600181600116156101000203166002900480601f0160208091040260200160405190810160405280929190818152602001828054600181600116156101000203166002900480156105675780601f1061053c57610100808354040283529160200191610567565b820191906000526020600020905b81548152906001019060200180831161054a57829003601f168201915b505050505090806001015490806002016040518060a00160405290816000820160009054906101000a900460000b60000b60000b81526020016000820160019054906101000a900460ff1660ff1660ff168152602001600182018054600181600116156101000203166002900480601f0160208091040260200160405190810160405280929190818152602001828054600181600116156101000203166002900480156106555780601f1061062a57610100808354040283529160200191610655565b820191906000526020600020905b81548152906001019060200180831161063857829003601f168201915b50505050508152602001600282018054600181600116156101000203166002900480601f0160208091040260200160405190810160405280929190818152602001828054600181600116156101000203166002900480156106f75780601f106106cc576101008083540402835291602001916106f7565b820191906000526020600020905b8154815290600101906020018083116106da57829003601f168201915b50505050508152602001600382015481525050908060060154905084565b886000808b8152602001908152602001600020600001541461076c576040517f08c379a00000000000000000000000000000000000000000000000000000000081526004016107639061358b565b60405180910390fd5b610774612349565b6040518061010001604052808a81526020018981526020018881526020018781526020018681526020018581526020018481526020018381525090506000808b8152602001908152602001600020600a01819080600181540180825580915050600190039060005260206000209060080201600090919091909150600082015181600001908051906020019061080b92919061238e565b50602082015181600101908051906020019061082892919061238e565b50604082015181600201908051906020019061084592919061238e565b50606082015181600301908051906020019061086292919061238e565b50608082015181600401908051906020019061087f92919061238e565b5060a082015181600501908051906020019061089c92919061238e565b5060c08201518160060190805190602001906108b992919061238e565b5060e08201518160070190805190602001906108d692919061238e565b505050897fd25d91b9175638c3a7787e2891c05148429ecac42bee425895ec9511e2b8840b8a8960405161090b9291906133ee565b60405180910390a250505050505050505050565b61092761240e565b6000808381526020019081526020016000206040518061018001604052908160008201548152602001600182018054600181600116156101000203166002900480601f0160208091040260200160405190810160405280929190818152602001828054600181600116156101000203166002900480156109e85780601f106109bd576101008083540402835291602001916109e8565b820191906000526020600020905b8154815290600101906020018083116109cb57829003601f168201915b50505050508152602001600282018054600181600116156101000203166002900480601f016020809104026020016040519081016040528092919081815260200182805460018160011615610100020316600290048015610a8a5780601f10610a5f57610100808354040283529160200191610a8a565b820191906000526020600020905b815481529060010190602001808311610a6d57829003601f168201915b50505050508152602001600382018054600181600116156101000203166002900480601f016020809104026020016040519081016040528092919081815260200182805460018160011615610100020316600290048015610b2c5780601f10610b0157610100808354040283529160200191610b2c565b820191906000526020600020905b815481529060010190602001808311610b0f57829003601f168201915b50505050508152602001600482018054600181600116156101000203166002900480601f016020809104026020016040519081016040528092919081815260200182805460018160011615610100020316600290048015610bce5780601f10610ba357610100808354040283529160200191610bce565b820191906000526020600020905b815481529060010190602001808311610bb157829003601f168201915b50505050508152602001600582018054600181600116156101000203166002900480601f016020809104026020016040519081016040528092919081815260200182805460018160011615610100020316600290048015610c705780601f10610c4557610100808354040283529160200191610c70565b820191906000526020600020905b815481529060010190602001808311610c5357829003601f168201915b50505050508152602001600682018054600181600116156101000203166002900480601f016020809104026020016040519081016040528092919081815260200182805460018160011615610100020316600290048015610d125780601f10610ce757610100808354040283529160200191610d12565b820191906000526020600020905b815481529060010190602001808311610cf557829003601f168201915b50505050508152602001600782018054600181600116156101000203166002900480601f016020809104026020016040519081016040528092919081815260200182805460018160011615610100020316600290048015610db45780601f10610d8957610100808354040283529160200191610db4565b820191906000526020600020905b815481529060010190602001808311610d9757829003601f168201915b50505050508152602001600882018054600181600116156101000203166002900480601f016020809104026020016040519081016040528092919081815260200182805460018160011615610100020316600290048015610e565780601f10610e2b57610100808354040283529160200191610e56565b820191906000526020600020905b815481529060010190602001808311610e3957829003601f168201915b50505050508152602001600982016040518060800160405290816000820160009054906101000a900460000b60000b60000b81526020016000820160019054906101000a900460000b60000b60000b81526020016000820160029054906101000a900460ff1660ff1660ff1681526020016000820160039054906101000a900460ff1660ff1660ff16815250508152602001600a8201805480602002602001604051908101604052809291908181526020016000905b8282101561144f578382906000526020600020906008020160405180610100016040529081600082018054600181600116156101000203166002900480601f016020809104026020016040519081016040528092919081815260200182805460018160011615610100020316600290048015610fc95780601f10610f9e57610100808354040283529160200191610fc9565b820191906000526020600020905b815481529060010190602001808311610fac57829003601f168201915b50505050508152602001600182018054600181600116156101000203166002900480601f01602080910402602001604051908101604052809291908181526020018280546001816001161561010002031660029004801561106b5780601f106110405761010080835404028352916020019161106b565b820191906000526020600020905b81548152906001019060200180831161104e57829003601f168201915b50505050508152602001600282018054600181600116156101000203166002900480601f01602080910402602001604051908101604052809291908181526020018280546001816001161561010002031660029004801561110d5780601f106110e25761010080835404028352916020019161110d565b820191906000526020600020905b8154815290600101906020018083116110f057829003601f168201915b50505050508152602001600382018054600181600116156101000203166002900480601f0160208091040260200160405190810160405280929190818152602001828054600181600116156101000203166002900480156111af5780601f10611184576101008083540402835291602001916111af565b820191906000526020600020905b81548152906001019060200180831161119257829003601f168201915b50505050508152602001600482018054600181600116156101000203166002900480601f0160208091040260200160405190810160405280929190818152602001828054600181600116156101000203166002900480156112515780601f1061122657610100808354040283529160200191611251565b820191906000526020600020905b81548152906001019060200180831161123457829003601f168201915b50505050508152602001600582018054600181600116156101000203166002900480601f0160208091040260200160405190810160405280929190818152602001828054600181600116156101000203166002900480156112f35780601f106112c8576101008083540402835291602001916112f3565b820191906000526020600020905b8154815290600101906020018083116112d657829003601f168201915b50505050508152602001600682018054600181600116156101000203166002900480601f0160208091040260200160405190810160405280929190818152602001828054600181600116156101000203166002900480156113955780601f1061136a57610100808354040283529160200191611395565b820191906000526020600020905b81548152906001019060200180831161137857829003601f168201915b50505050508152602001600782018054600181600116156101000203166002900480601f0160208091040260200160405190810160405280929190818152602001828054600181600116156101000203166002900480156114375780601f1061140c57610100808354040283529160200191611437565b820191906000526020600020905b81548152906001019060200180831161141a57829003601f168201915b50505050508152505081526020019060010190610f0c565b505050508152602001600b820154815250509050919050565b80602001516000808360200151815260200190815260200160002060000154146114c7576040517f08c379a00000000000000000000000000000000000000000000000000000000081526004016114be9061358b565b60405180910390fd5b60006114e0826020015183604001518460600151612215565b905080611629576114ef612475565b600080846020015181526020019081526020016000206009016040518060800160405290816000820160009054906101000a900460000b60000b60000b81526020016000820160019054906101000a900460000b60000b60000b81526020016000820160029054906101000a900460ff1660ff1660ff1681526020016000820160039054906101000a900460ff1660ff1660ff168152505090507f5df761c2e2ba4466ef4ac385862a382475b1223ffa3ecbce36b683ca5fbfa505836000015184602001518560400151866060015185602001518660000151876060015188604001516040516115e6989796959493929190613455565b60405180910390a16040517f08c379a0000000000000000000000000000000000000000000000000000000008152600401611620906135ab565b60405180910390fd5b604051806080016040528083600001518152602001836020015181526020016040518060a00160405280856040015160000b8152602001856060015160ff168152602001856080015181526020018560a00151815260200142815250815260200142815250600183600001516040516116a291906133bc565b908152602001604051809103902060008201518160000190805190602001906116cc92919061238e565b506020820151816001015560408201518160020160008201518160000160006101000a81548160ff021916908360000b60ff16021790555060208201518160000160016101000a81548160ff021916908360ff160217905550604082015181600101908051906020019061174192919061238e565b50606082015181600201908051906020019061175e92919061238e565b50608082015181600301555050606082015181600601559050507f7cd39d938b284c8ad48813215d5a285dda92c417d1f0bb42975b8710963e163c82600001518360200151426040516117b39392919061352d565b60405180910390a15050565b60025481565b6000806001836040516117d891906133bc565b90815260200160405180910390206000018054600181600116156101000203166002900490501161183e576040517f08c379a00000000000000000000000000000000000000000000000000000000081526004016118359061356b565b60405180910390fd5b600060018360405161185091906133bc565b9081526020016040518091039020600101549050600060018460405161187691906133bc565b908152602001604051809103902060020160000160009054906101000a900460000b905060006001856040516118ac91906133bc565b908152602001604051809103902060020160000160019054906101000a900460ff1690506118db838383612215565b9350505050919050565b6000602052806000526040600020600091509050806000015490806001018054600181600116156101000203166002900480601f0160208091040260200160405190810160405280929190818152602001828054600181600116156101000203166002900480156119975780601f1061196c57610100808354040283529160200191611997565b820191906000526020600020905b81548152906001019060200180831161197a57829003601f168201915b505050505090806002018054600181600116156101000203166002900480601f016020809104026020016040519081016040528092919081815260200182805460018160011615610100020316600290048015611a355780601f10611a0a57610100808354040283529160200191611a35565b820191906000526020600020905b815481529060010190602001808311611a1857829003601f168201915b505050505090806003018054600181600116156101000203166002900480601f016020809104026020016040519081016040528092919081815260200182805460018160011615610100020316600290048015611ad35780601f10611aa857610100808354040283529160200191611ad3565b820191906000526020600020905b815481529060010190602001808311611ab657829003601f168201915b505050505090806004018054600181600116156101000203166002900480601f016020809104026020016040519081016040528092919081815260200182805460018160011615610100020316600290048015611b715780601f10611b4657610100808354040283529160200191611b71565b820191906000526020600020905b815481529060010190602001808311611b5457829003601f168201915b505050505090806005018054600181600116156101000203166002900480601f016020809104026020016040519081016040528092919081815260200182805460018160011615610100020316600290048015611c0f5780601f10611be457610100808354040283529160200191611c0f565b820191906000526020600020905b815481529060010190602001808311611bf257829003601f168201915b505050505090806006018054600181600116156101000203166002900480601f016020809104026020016040519081016040528092919081815260200182805460018160011615610100020316600290048015611cad5780601f10611c8257610100808354040283529160200191611cad565b820191906000526020600020905b815481529060010190602001808311611c9057829003601f168201915b505050505090806007018054600181600116156101000203166002900480601f016020809104026020016040519081016040528092919081815260200182805460018160011615610100020316600290048015611d4b5780601f10611d2057610100808354040283529160200191611d4b565b820191906000526020600020905b815481529060010190602001808311611d2e57829003601f168201915b505050505090806008018054600181600116156101000203166002900480601f016020809104026020016040519081016040528092919081815260200182805460018160011615610100020316600290048015611de95780601f10611dbe57610100808354040283529160200191611de9565b820191906000526020600020905b815481529060010190602001808311611dcc57829003601f168201915b505050505090806009016040518060800160405290816000820160009054906101000a900460000b60000b60000b81526020016000820160019054906101000a900460000b60000b60000b81526020016000820160029054906101000a900460ff1660ff1660ff1681526020016000820160039054906101000a900460ff1660ff1660ff16815250509080600b015490508b565b60008060026000815480929190600101919050559050611e9b612475565b6040518060800160405280856000015160000b8152602001856020015160000b8152602001856040015160ff168152602001856060015160ff168152509050600080600084815260200190815260200160002090508281600001819055508560000151816001019080519060200190611f1592919061238e565b508560200151816002019080519060200190611f3292919061238e565b508560400151816003019080519060200190611f4f92919061238e565b508560600151816004019080519060200190611f6c92919061238e565b508560800151816005019080519060200190611f8992919061238e565b508560a00151816006019080519060200190611fa692919061238e565b508560c00151816007019080519060200190611fc392919061238e565b508560e00151816008019080519060200190611fe092919061238e565b50818160090160008201518160000160006101000a81548160ff021916908360000b60ff16021790555060208201518160000160016101000a81548160ff021916908360000b60ff16021790555060408201518160000160026101000a81548160ff021916908360ff16021790555060608201518160000160036101000a81548160ff021916908360ff1602179055509050504281600b018190555060005b866101000151518110156121ca5781600a0187610100015182815181106120a257fe5b6020026020010151908060018154018082558091505060019003906000526020600020906008020160009091909190915060008201518160000190805190602001906120ef92919061238e565b50602082015181600101908051906020019061210c92919061238e565b50604082015181600201908051906020019061212992919061238e565b50606082015181600301908051906020019061214692919061238e565b50608082015181600401908051906020019061216392919061238e565b5060a082015181600501908051906020019061218092919061238e565b5060c082015181600601908051906020019061219d92919061238e565b5060e08201518160070190805190602001906121ba92919061238e565b505050808060010191505061207f565b50827f96438370e509f7b4e5442d1afc3c7c3457b7ad2d4b175878c807d48a4d905162876000015142604051612201929190613425565b60405180910390a282935050505092915050565b600061221f612475565b6000808681526020019081526020016000206009016040518060800160405290816000820160009054906101000a900460000b60000b60000b81526020016000820160019054906101000a900460000b60000b60000b81526020016000820160029054906101000a900460ff1660ff1660ff1681526020016000820160039054906101000a900460ff1660ff1660ff168152505090506000816020015160000b8560000b121580156122db5750816000015160000b8560000b13155b90506000826060015160ff168560ff16101580156123035750826040015160ff168560ff1611155b905081801561230f5750805b93505050509392505050565b6040518060800160405280606081526020016000815260200161233c6124a7565b8152602001600081525090565b60405180610100016040528060608152602001606081526020016060815260200160608152602001606081526020016060815260200160608152602001606081525090565b828054600181600116156101000203166002900490600052602060002090601f016020900481019282601f106123cf57805160ff19168380011785556123fd565b828001600101855582156123fd579182015b828111156123fc5782518255916020019190600101906123e1565b5b50905061240a91906124db565b5090565b604051806101800160405280600081526020016060815260200160608152602001606081526020016060815260200160608152602001606081526020016060815260200160608152602001612461612475565b815260200160608152602001600081525090565b60405180608001604052806000800b81526020016000800b8152602001600060ff168152602001600060ff1681525090565b6040518060a001604052806000800b8152602001600060ff1681526020016060815260200160608152602001600081525090565b5b808211156124f45760008160009055506001016124dc565b5090565b600082601f83011261250957600080fd5b813561251c6125178261373a565b61370d565b9150818183526020840193506020810190508360005b83811015612562578135860161254888826127fd565b845260208401935060208301925050600181019050612532565b5050505092915050565b60008135905061257b81613882565b92915050565b600082601f83011261259257600080fd5b81356125a56125a082613762565b61370d565b915080825260208301602083018583830111156125c157600080fd5b6125cc83828461382f565b50505092915050565b6000608082840312156125e757600080fd5b6125f1608061370d565b905060006126018482850161256c565b60008301525060206126158482850161256c565b602083015250604061262984828501612a7c565b604083015250606061263d84828501612a7c565b60608301525092915050565b6000610120828403121561265c57600080fd5b61266761012061370d565b9050600082013567ffffffffffffffff81111561268357600080fd5b61268f84828501612581565b600083015250602082013567ffffffffffffffff8111156126af57600080fd5b6126bb84828501612581565b602083015250604082013567ffffffffffffffff8111156126db57600080fd5b6126e784828501612581565b604083015250606082013567ffffffffffffffff81111561270757600080fd5b61271384828501612581565b606083015250608082013567ffffffffffffffff81111561273357600080fd5b61273f84828501612581565b60808301525060a082013567ffffffffffffffff81111561275f57600080fd5b61276b84828501612581565b60a08301525060c082013567ffffffffffffffff81111561278b57600080fd5b61279784828501612581565b60c08301525060e082013567ffffffffffffffff8111156127b757600080fd5b6127c384828501612581565b60e08301525061010082013567ffffffffffffffff8111156127e457600080fd5b6127f0848285016124f8565b6101008301525092915050565b6000610100828403121561281057600080fd5b61281b61010061370d565b9050600082013567ffffffffffffffff81111561283757600080fd5b61284384828501612581565b600083015250602082013567ffffffffffffffff81111561286357600080fd5b61286f84828501612581565b602083015250604082013567ffffffffffffffff81111561288f57600080fd5b61289b84828501612581565b604083015250606082013567ffffffffffffffff8111156128bb57600080fd5b6128c784828501612581565b606083015250608082013567ffffffffffffffff8111156128e757600080fd5b6128f384828501612581565b60808301525060a082013567ffffffffffffffff81111561291357600080fd5b61291f84828501612581565b60a08301525060c082013567ffffffffffffffff81111561293f57600080fd5b61294b84828501612581565b60c08301525060e082013567ffffffffffffffff81111561296b57600080fd5b61297784828501612581565b60e08301525092915050565b600060c0828403121561299557600080fd5b61299f60c061370d565b9050600082013567ffffffffffffffff8111156129bb57600080fd5b6129c784828501612581565b60008301525060206129db84828501612a67565b60208301525060406129ef8482850161256c565b6040830152506060612a0384828501612a7c565b606083015250608082013567ffffffffffffffff811115612a2357600080fd5b612a2f84828501612581565b60808301525060a082013567ffffffffffffffff811115612a4f57600080fd5b612a5b84828501612581565b60a08301525092915050565b600081359050612a7681613899565b92915050565b600081359050612a8b816138b0565b92915050565b600060208284031215612aa357600080fd5b600082013567ffffffffffffffff811115612abd57600080fd5b612ac984828501612581565b91505092915050565b60008060a08385031215612ae557600080fd5b600083013567ffffffffffffffff811115612aff57600080fd5b612b0b85828601612649565b9250506020612b1c858286016125d5565b9150509250929050565b600060208284031215612b3857600080fd5b600082013567ffffffffffffffff811115612b5257600080fd5b612b5e84828501612983565b91505092915050565b600060208284031215612b7957600080fd5b6000612b8784828501612a67565b91505092915050565b60008060008060008060008060006101208a8c031215612baf57600080fd5b6000612bbd8c828d01612a67565b99505060208a013567ffffffffffffffff811115612bda57600080fd5b612be68c828d01612581565b98505060408a013567ffffffffffffffff811115612c0357600080fd5b612c0f8c828d01612581565b97505060608a013567ffffffffffffffff811115612c2c57600080fd5b612c388c828d01612581565b96505060808a013567ffffffffffffffff811115612c5557600080fd5b612c618c828d01612581565b95505060a08a013567ffffffffffffffff811115612c7e57600080fd5b612c8a8c828d01612581565b94505060c08a013567ffffffffffffffff811115612ca757600080fd5b612cb38c828d01612581565b93505060e08a013567ffffffffffffffff811115612cd057600080fd5b612cdc8c828d01612581565b9250506101008a013567ffffffffffffffff811115612cfa57600080fd5b612d068c828d01612581565b9150509295985092959850929598565b6000612d228383613235565b905092915050565b6000612d358261379e565b612d3f81856137c1565b935083602082028501612d518561378e565b8060005b85811015612d8d5784840389528151612d6e8582612d16565b9450612d79836137b4565b925060208a01995050600181019050612d55565b50829750879550505050505092915050565b612da8816137ff565b82525050565b612db78161380b565b82525050565b612dc68161380b565b82525050565b6000612dd7826137a9565b612de181856137d2565b9350612df181856020860161383e565b612dfa81613871565b840191505092915050565b6000612e10826137a9565b612e1a81856137e3565b9350612e2a81856020860161383e565b612e3381613871565b840191505092915050565b6000612e49826137a9565b612e5381856137f4565b9350612e6381856020860161383e565b80840191505092915050565b6000612e7c6015836137e3565b91507f4d65646963616d656e7420696e6578697374616e7400000000000000000000006000830152602082019050919050565b6000612ebc600e836137e3565b91507f4c6f7420696e6578697374616e740000000000000000000000000000000000006000830152602082019050919050565b6000612efc6028836137e3565b91507f436f6e646974696f6e7320646520636f6e736572766174696f6e206e6f6e206360008301527f6f6e666f726d65730000000000000000000000000000000000000000000000006020830152604082019050919050565b600060a083016000830151612f6d6000860182612dae565b506020830151612f80602086018261339e565b5060408301518482036040860152612f988282612dcc565b91505060608301518482036060860152612fb28282612dcc565b9150506080830151612fc76080860182613380565b508091505092915050565b600060a083016000830151612fea6000860182612dae565b506020830151612ffd602086018261339e565b50604083015184820360408601526130158282612dcc565b9150506060830151848203606086015261302f8282612dcc565b91505060808301516130446080860182613380565b508091505092915050565b6080820160008201516130656000850182612dae565b5060208201516130786020850182612dae565b50604082015161308b604085018261339e565b50606082015161309e606085018261339e565b50505050565b6080820160008201516130ba6000850182612dae565b5060208201516130cd6020850182612dae565b5060408201516130e0604085018261339e565b5060608201516130f3606085018261339e565b50505050565b60006101e0830160008301516131126000860182613380565b506020830151848203602086015261312a8282612dcc565b915050604083015184820360408601526131448282612dcc565b9150506060830151848203606086015261315e8282612dcc565b915050608083015184820360808601526131788282612dcc565b91505060a083015184820360a08601526131928282612dcc565b91505060c083015184820360c08601526131ac8282612dcc565b91505060e083015184820360e08601526131c68282612dcc565b9150506101008301518482036101008601526131e28282612dcc565b9150506101208301516131f961012086018261304f565b506101408301518482036101a08601526132138282612d2a565b91505061016083015161322a6101c0860182613380565b508091505092915050565b60006101008301600083015184820360008601526132538282612dcc565b9150506020830151848203602086015261326d8282612dcc565b915050604083015184820360408601526132878282612dcc565b915050606083015184820360608601526132a18282612dcc565b915050608083015184820360808601526132bb8282612dcc565b91505060a083015184820360a08601526132d58282612dcc565b91505060c083015184820360c08601526132ef8282612dcc565b91505060e083015184820360e08601526133098282612dcc565b9150508091505092915050565b600060808301600083015184820360008601526133338282612dcc565b91505060208301516133486020860182613380565b50604083015184820360408601526133608282612f55565b91505060608301516133756060860182613380565b508091505092915050565b61338981613818565b82525050565b61339881613818565b82525050565b6133a781613822565b82525050565b6133b681613822565b82525050565b60006133c88284612e3e565b915081905092915050565b60006020820190506133e86000830184612d9f565b92915050565b600060408201905081810360008301526134088185612e05565b9050818103602083015261341c8184612e05565b90509392505050565b6000604082019050818103600083015261343f8185612e05565b905061344e602083018461338f565b9392505050565b6000610100820190508181036000830152613470818b612e05565b905061347f602083018a61338f565b61348c6040830189612dbd565b61349960608301886133ad565b6134a66080830187612dbd565b6134b360a0830186612dbd565b6134c060c08301856133ad565b6134cd60e08301846133ad565b9998505050505050505050565b600060808201905081810360008301526134f48187612e05565b9050613503602083018661338f565b81810360408301526135158185612fd2565b9050613524606083018461338f565b95945050505050565b600060608201905081810360008301526135478186612e05565b9050613556602083018561338f565b613563604083018461338f565b949350505050565b6000602082019050818103600083015261358481612e6f565b9050919050565b600060208201905081810360008301526135a481612eaf565b9050919050565b600060208201905081810360008301526135c481612eef565b9050919050565b600060208201905081810360008301526135e581846130f9565b905092915050565b600060208201905081810360008301526136078184613316565b905092915050565b6000602082019050613624600083018461338f565b92915050565b60006101c082019050613640600083018e61338f565b8181036020830152613652818d612e05565b90508181036040830152613666818c612e05565b9050818103606083015261367a818b612e05565b9050818103608083015261368e818a612e05565b905081810360a08301526136a28189612e05565b905081810360c08301526136b68188612e05565b905081810360e08301526136ca8187612e05565b90508181036101008301526136df8186612e05565b90506136ef6101208301856130a4565b6136fd6101a083018461338f565b9c9b505050505050505050505050565b6000604051905081810181811067ffffffffffffffff8211171561373057600080fd5b8060405250919050565b600067ffffffffffffffff82111561375157600080fd5b602082029050602081019050919050565b600067ffffffffffffffff82111561377957600080fd5b601f19601f8301169050602081019050919050565b6000819050602082019050919050565b600081519050919050565b600081519050919050565b6000602082019050919050565b600082825260208201905092915050565b600082825260208201905092915050565b600082825260208201905092915050565b600081905092915050565b60008115159050919050565b60008160000b9050919050565b6000819050919050565b600060ff82169050919050565b82818337600083830152505050565b60005b8381101561385c578082015181840152602081019050613841565b8381111561386b576000848401525b50505050565b6000601f19601f8301169050919050565b61388b8161380b565b811461389657600080fd5b50565b6138a281613818565b81146138ad57600080fd5b50565b6138b981613822565b81146138c457600080fd5b5056fea26469706673582212209d66c429f0be248ed2b1cf7d36f589017683efd885f2eaf82ef5af6f8a842ccd64736f6c63430007010033",
  "immutableReferences": {},
  "source": "// SPDX-License-Identifier: MIT\r\npragma solidity >=0.7.0 <0.9.0;\r\npragma experimental ABIEncoderV2;\r\n\r\ncontract Medecin {\r\n    // Structures de donnes\r\n    struct Conservation {\r\n        int8 temperatureMax;\r\n        int8 temperatureMin;\r\n        uint8 humiditeMax;\r\n        uint8 humiditeMin;\r\n    }\r\n\r\n    struct MatierePremiere {\r\n        string nom;\r\n        string origine;\r\n        string fournisseur;\r\n        string degrePurete;\r\n        string quantiteParUnite;\r\n        string certificatAnalyse;\r\n        string dateReception;\r\n        string transport;\r\n    }\r\n\r\n    struct ConditionsActuelles {\r\n        int8 temperature;\r\n        uint8 humidite;\r\n        string positionX;\r\n        string positionY;\r\n        uint256 timestamp;\r\n    }\r\n\r\n    struct LotMedicament {\r\n        uint256 lotId;\r\n        string nomMedicament;\r\n        string substanceActive;\r\n        string forme;\r\n        string dateFabrication;\r\n        string datePeremption;\r\n        string nomFabricant;\r\n        string paysOrigine;\r\n        string amm;\r\n        Conservation conditionsConservation;\r\n        MatierePremiere[] matieresPremieresLot;\r\n        uint256 timestamp;\r\n    }\r\n\r\n    struct UniteMedicament {\r\n        string medicamentId;\r\n        uint256 lotId;\r\n        ConditionsActuelles conditionsActuelles;\r\n        uint256 timestampCreation;\r\n    }\r\n\r\n    // Parameter structs for function inputs\r\n    struct LotCreationParams {\r\n        string nomMedicament;\r\n        string substanceActive;\r\n        string forme;\r\n        string dateFabrication;\r\n        string datePeremption;\r\n        string nomFabricant;\r\n        string paysOrigine;\r\n        string amm;\r\n        MatierePremiere[] matieresPremieresLot;\r\n    }\r\n\r\n    struct ConservationParams {\r\n        int8 temperatureMax;\r\n        int8 temperatureMin;\r\n        uint8 humiditeMax;\r\n        uint8 humiditeMin;\r\n    }\r\n\r\n    struct UniteCreationParams {\r\n        string medicamentId;\r\n        uint256 lotId;\r\n        int8 temperature;\r\n        uint8 humidite;\r\n        string positionX;\r\n        string positionY;\r\n    }\r\n\r\n    // Storage\r\n    mapping(uint256 => LotMedicament) public lots;\r\n    mapping(string => UniteMedicament) public unitesMedicament;\r\n    uint256 public nextLotId = 1;\r\n\r\n    // Events\r\n    event LotCree(uint256 indexed lotId, string nomMedicament, uint256 timestamp);\r\n    event MatierePremiereAjoutee(uint256 indexed lotId, string nom, string fournisseur);\r\n    event UniteMedicamentCreee(string medicamentId, uint256 lotId, uint256 timestamp);\r\n    event ConditionsMedicamentMisesAJour(string medicamentId, int8 temperature, uint8 humidite, string positionX, string positionY, uint256 timestamp);\r\n    event AlerteConditionsNonConformes(\r\n        string medicamentId, \r\n        uint256 lotId, \r\n        int8 temperatureActuelle, \r\n        uint8 humiditeActuelle, \r\n        int8 temperatureMinRequise, \r\n        int8 temperatureMaxRequise, \r\n        uint8 humiditeMinRequise, \r\n        uint8 humiditeMaxRequise\r\n    );\r\n\r\n    // Main Functions\r\n    function creerLotMedicament(\r\n        LotCreationParams memory _params,\r\n        ConservationParams memory _conservation\r\n    ) public returns (uint256) {\r\n        uint256 lotId = nextLotId++;\r\n        \r\n        Conservation memory conservation = Conservation({\r\n            temperatureMax: _conservation.temperatureMax,\r\n            temperatureMin: _conservation.temperatureMin,\r\n            humiditeMax: _conservation.humiditeMax,\r\n            humiditeMin: _conservation.humiditeMin\r\n        });\r\n\r\n        LotMedicament storage lot = lots[lotId];\r\n        lot.lotId = lotId;\r\n        lot.nomMedicament = _params.nomMedicament;\r\n        lot.substanceActive = _params.substanceActive;\r\n        lot.forme = _params.forme;\r\n        lot.dateFabrication = _params.dateFabrication;\r\n        lot.datePeremption = _params.datePeremption;\r\n        lot.nomFabricant = _params.nomFabricant;\r\n        lot.paysOrigine = _params.paysOrigine;\r\n        lot.amm = _params.amm;\r\n        lot.conditionsConservation = conservation;\r\n        lot.timestamp = block.timestamp;\r\n\r\n        for (uint i = 0; i < _params.matieresPremieresLot.length; i++) {\r\n            lot.matieresPremieresLot.push(_params.matieresPremieresLot[i]);\r\n        }\r\n\r\n        emit LotCree(lotId, _params.nomMedicament, block.timestamp);\r\n        return lotId;\r\n    }\r\n\r\n    function ajouterMatierePremiere(\r\n        uint256 _lotId,\r\n        string memory _nom,\r\n        string memory _origine,\r\n        string memory _fournisseur,\r\n        string memory _degrePurete,\r\n        string memory _quantiteParUnite,\r\n        string memory _certificatAnalyse,\r\n        string memory _dateReception,\r\n        string memory _transport\r\n    ) public {\r\n        require(lots[_lotId].lotId == _lotId, \"Lot inexistant\");\r\n        \r\n        MatierePremiere memory matiere = MatierePremiere({\r\n            nom: _nom,\r\n            origine: _origine,\r\n            fournisseur: _fournisseur,\r\n            degrePurete: _degrePurete,\r\n            quantiteParUnite: _quantiteParUnite,\r\n            certificatAnalyse: _certificatAnalyse,\r\n            dateReception: _dateReception,\r\n            transport: _transport\r\n        });\r\n        \r\n        lots[_lotId].matieresPremieresLot.push(matiere);\r\n        emit MatierePremiereAjoutee(_lotId, _nom, _fournisseur);\r\n    }\r\n\r\n    function creerUniteMedicament(\r\n        UniteCreationParams memory _params\r\n    ) public {\r\n        require(lots[_params.lotId].lotId == _params.lotId, \"Lot inexistant\");\r\n        \r\n        bool conditionsConformes = _verifierConditionsConformite(\r\n            _params.lotId, \r\n            _params.temperature, \r\n            _params.humidite\r\n        );\r\n        \r\n        if (!conditionsConformes) {\r\n            Conservation memory conditions = lots[_params.lotId].conditionsConservation;\r\n            emit AlerteConditionsNonConformes(\r\n                _params.medicamentId,\r\n                _params.lotId,\r\n                _params.temperature,\r\n                _params.humidite,\r\n                conditions.temperatureMin,\r\n                conditions.temperatureMax,\r\n                conditions.humiditeMin,\r\n                conditions.humiditeMax\r\n            );\r\n            revert(\"Conditions de conservation non conformes\");\r\n        }\r\n        \r\n        unitesMedicament[_params.medicamentId] = UniteMedicament({\r\n            medicamentId: _params.medicamentId,\r\n            lotId: _params.lotId,\r\n            conditionsActuelles: ConditionsActuelles({\r\n                temperature: _params.temperature,\r\n                humidite: _params.humidite,\r\n                positionX: _params.positionX,\r\n                positionY: _params.positionY,\r\n                timestamp: block.timestamp\r\n            }),\r\n            timestampCreation: block.timestamp\r\n        });\r\n        \r\n        emit UniteMedicamentCreee(_params.medicamentId, _params.lotId, block.timestamp);\r\n    }\r\n\r\n    // View Functions\r\n    function obtenirDetailsLot(uint256 _lotId) public view returns (LotMedicament memory) {\r\n        return lots[_lotId];\r\n    }\r\n\r\n    function obtenirUniteMedicament(string memory _medicamentId) public view returns (UniteMedicament memory) {\r\n        return unitesMedicament[_medicamentId];\r\n    }\r\n\r\n    function verifierConditionsConformes(string memory _medicamentId) public view returns (bool) {\r\n        require(bytes(unitesMedicament[_medicamentId].medicamentId).length > 0, \"Medicament inexistant\");\r\n        uint256 lotId = unitesMedicament[_medicamentId].lotId;\r\n        int8 temperature = unitesMedicament[_medicamentId].conditionsActuelles.temperature;\r\n        uint8 humidite = unitesMedicament[_medicamentId].conditionsActuelles.humidite;\r\n        return _verifierConditionsConformite(lotId, temperature, humidite);\r\n    }\r\n\r\n    // Internal Functions\r\n    function _verifierConditionsConformite(\r\n        uint256 _lotId, \r\n        int8 _temperature, \r\n        uint8 _humidite\r\n    ) internal view returns (bool) {\r\n        Conservation memory conditions = lots[_lotId].conditionsConservation;\r\n        bool temperatureConforme = (_temperature >= conditions.temperatureMin && \r\n                                  _temperature <= conditions.temperatureMax);\r\n        bool humiditeConforme = (_humidite >= conditions.humiditeMin && \r\n                               _humidite <= conditions.humiditeMax);\r\n        return temperatureConforme && humiditeConforme;\r\n    }\r\n}",
  "sourcePath": "C:\\Users\\HP\\Documents\\GitHub\\medproject\\contracts\\Medecin.sol",
  "compiler": {
    "name": "solc",
    "version": "0.7.1+commit.f4a555be.Emscripten.clang"
  },
  "schemaVersion": "3.4.16",
  "updatedAt": "2025-04-13T15:14:51.465Z",
  "devdoc": {
    "kind": "dev",
    "methods": {},
    "version": 1
  },
  "userdoc": {
    "kind": "user",
    "methods": {},
    "version": 1
  }
}