{
  "contractName": "Medecin",
  "abi": [
    {
      "anonymous": false,
      "inputs": [
        {
          "indexed": true,
          "internalType": "string",
          "name": "boxId",
          "type": "string"
        },
        {
          "indexed": false,
          "internalType": "uint256",
          "name": "lotId",
          "type": "uint256"
        },
        {
          "indexed": false,
          "internalType": "uint256",
          "name": "medicamentCount",
          "type": "uint256"
        }
      ],
      "name": "BoxAssembled",
      "type": "event"
    },
    {
      "anonymous": false,
      "inputs": [
        {
          "indexed": true,
          "internalType": "uint256",
          "name": "lotId",
          "type": "uint256"
        },
        {
          "indexed": false,
          "internalType": "string",
          "name": "nomMedicament",
          "type": "string"
        },
        {
          "indexed": false,
          "internalType": "uint256",
          "name": "timestamp",
          "type": "uint256"
        }
      ],
      "name": "LotCree",
      "type": "event"
    },
    {
      "anonymous": false,
      "inputs": [
        {
          "indexed": true,
          "internalType": "string",
          "name": "medicamentId",
          "type": "string"
        },
        {
          "indexed": false,
          "internalType": "uint256",
          "name": "lotId",
          "type": "uint256"
        }
      ],
      "name": "MedicamentCreated",
      "type": "event"
    },
    {
      "inputs": [
        {
          "internalType": "string",
          "name": "",
          "type": "string"
        },
        {
          "internalType": "uint256",
          "name": "",
          "type": "uint256"
        }
      ],
      "name": "boxToMedicaments",
      "outputs": [
        {
          "internalType": "string",
          "name": "",
          "type": "string"
        }
      ],
      "stateMutability": "view",
      "type": "function",
      "constant": true
    },
    {
      "inputs": [
        {
          "internalType": "uint256",
          "name": "",
          "type": "uint256"
        }
      ],
      "name": "lots",
      "outputs": [
        {
          "internalType": "uint256",
          "name": "lotId",
          "type": "uint256"
        },
        {
          "internalType": "string",
          "name": "nomMedicament",
          "type": "string"
        },
        {
          "internalType": "string",
          "name": "substanceActive",
          "type": "string"
        },
        {
          "internalType": "string",
          "name": "forme",
          "type": "string"
        },
        {
          "internalType": "string",
          "name": "dateFabrication",
          "type": "string"
        },
        {
          "internalType": "string",
          "name": "datePeremption",
          "type": "string"
        },
        {
          "internalType": "string",
          "name": "nomFabricant",
          "type": "string"
        },
        {
          "internalType": "string",
          "name": "paysOrigine",
          "type": "string"
        },
        {
          "internalType": "string",
          "name": "amm",
          "type": "string"
        },
        {
          "components": [
            {
              "internalType": "int8",
              "name": "temperatureMax",
              "type": "int8"
            },
            {
              "internalType": "int8",
              "name": "temperatureMin",
              "type": "int8"
            },
            {
              "internalType": "uint8",
              "name": "humiditeMax",
              "type": "uint8"
            },
            {
              "internalType": "uint8",
              "name": "humiditeMin",
              "type": "uint8"
            }
          ],
          "internalType": "struct Medecin.Conservation",
          "name": "conditionsConservation",
          "type": "tuple"
        },
        {
          "internalType": "uint256",
          "name": "timestamp",
          "type": "uint256"
        }
      ],
      "stateMutability": "view",
      "type": "function",
      "constant": true
    },
    {
      "inputs": [
        {
          "internalType": "string",
          "name": "",
          "type": "string"
        }
      ],
      "name": "medicaments",
      "outputs": [
        {
          "internalType": "string",
          "name": "medicamentId",
          "type": "string"
        },
        {
          "internalType": "uint256",
          "name": "lotId",
          "type": "uint256"
        },
        {
          "components": [
            {
              "internalType": "int8",
              "name": "temperature",
              "type": "int8"
            },
            {
              "internalType": "uint8",
              "name": "humidite",
              "type": "uint8"
            },
            {
              "internalType": "string",
              "name": "positionX",
              "type": "string"
            },
            {
              "internalType": "string",
              "name": "positionY",
              "type": "string"
            },
            {
              "internalType": "uint256",
              "name": "timestamp",
              "type": "uint256"
            }
          ],
          "internalType": "struct Medecin.ConditionsActuelles",
          "name": "conditionsActuelles",
          "type": "tuple"
        },
        {
          "internalType": "uint256",
          "name": "timestampCreation",
          "type": "uint256"
        }
      ],
      "stateMutability": "view",
      "type": "function",
      "constant": true
    },
    {
      "inputs": [],
      "name": "nextLotId",
      "outputs": [
        {
          "internalType": "uint256",
          "name": "",
          "type": "uint256"
        }
      ],
      "stateMutability": "view",
      "type": "function",
      "constant": true
    },
    {
      "inputs": [
        {
          "components": [
            {
              "internalType": "string",
              "name": "nomMedicament",
              "type": "string"
            },
            {
              "internalType": "string",
              "name": "substanceActive",
              "type": "string"
            },
            {
              "internalType": "string",
              "name": "forme",
              "type": "string"
            },
            {
              "internalType": "string",
              "name": "dateFabrication",
              "type": "string"
            },
            {
              "internalType": "string",
              "name": "datePeremption",
              "type": "string"
            },
            {
              "internalType": "string",
              "name": "nomFabricant",
              "type": "string"
            },
            {
              "internalType": "string",
              "name": "paysOrigine",
              "type": "string"
            },
            {
              "internalType": "string",
              "name": "amm",
              "type": "string"
            }
          ],
          "internalType": "struct Medecin.LotDetails",
          "name": "_lotDetails",
          "type": "tuple"
        },
        {
          "components": [
            {
              "internalType": "int8",
              "name": "temperatureMax",
              "type": "int8"
            },
            {
              "internalType": "int8",
              "name": "temperatureMin",
              "type": "int8"
            },
            {
              "internalType": "uint8",
              "name": "humiditeMax",
              "type": "uint8"
            },
            {
              "internalType": "uint8",
              "name": "humiditeMin",
              "type": "uint8"
            }
          ],
          "internalType": "struct Medecin.Conservation",
          "name": "_conservation",
          "type": "tuple"
        },
        {
          "components": [
            {
              "internalType": "string",
              "name": "nom",
              "type": "string"
            },
            {
              "internalType": "string",
              "name": "origine",
              "type": "string"
            },
            {
              "internalType": "string",
              "name": "fournisseur",
              "type": "string"
            },
            {
              "internalType": "string",
              "name": "degrePurete",
              "type": "string"
            },
            {
              "internalType": "string",
              "name": "quantiteParUnite",
              "type": "string"
            },
            {
              "internalType": "string",
              "name": "certificatAnalyse",
              "type": "string"
            },
            {
              "internalType": "string",
              "name": "dateReception",
              "type": "string"
            },
            {
              "internalType": "string",
              "name": "transport",
              "type": "string"
            }
          ],
          "internalType": "struct Medecin.MatierePremiere[]",
          "name": "_matieresPremieresLot",
          "type": "tuple[]"
        }
      ],
      "name": "creerLotMedicament",
      "outputs": [
        {
          "internalType": "uint256",
          "name": "",
          "type": "uint256"
        }
      ],
      "stateMutability": "nonpayable",
      "type": "function"
    },
    {
      "inputs": [
        {
          "internalType": "string[]",
          "name": "_medicamentIds",
          "type": "string[]"
        },
        {
          "internalType": "uint256",
          "name": "_lotId",
          "type": "uint256"
        },
        {
          "components": [
            {
              "internalType": "int8",
              "name": "temperature",
              "type": "int8"
            },
            {
              "internalType": "uint8",
              "name": "humidite",
              "type": "uint8"
            },
            {
              "internalType": "string",
              "name": "positionX",
              "type": "string"
            },
            {
              "internalType": "string",
              "name": "positionY",
              "type": "string"
            },
            {
              "internalType": "uint256",
              "name": "timestamp",
              "type": "uint256"
            }
          ],
          "internalType": "struct Medecin.ConditionsActuelles",
          "name": "_conditions",
          "type": "tuple"
        }
      ],
      "name": "createMedicamentUnits",
      "outputs": [],
      "stateMutability": "nonpayable",
      "type": "function"
    },
    {
      "inputs": [
        {
          "internalType": "string",
          "name": "_boxId",
          "type": "string"
        },
        {
          "internalType": "string[]",
          "name": "_medicamentIds",
          "type": "string[]"
        },
        {
          "internalType": "uint256",
          "name": "_lotId",
          "type": "uint256"
        },
        {
          "components": [
            {
              "internalType": "int8",
              "name": "temperature",
              "type": "int8"
            },
            {
              "internalType": "uint8",
              "name": "humidite",
              "type": "uint8"
            },
            {
              "internalType": "string",
              "name": "positionX",
              "type": "string"
            },
            {
              "internalType": "string",
              "name": "positionY",
              "type": "string"
            },
            {
              "internalType": "uint256",
              "name": "timestamp",
              "type": "uint256"
            }
          ],
          "internalType": "struct Medecin.ConditionsActuelles",
          "name": "_conditions",
          "type": "tuple"
        }
      ],
      "name": "createAndAssignMedicaments",
      "outputs": [],
      "stateMutability": "nonpayable",
      "type": "function"
    },
    {
      "inputs": [
        {
          "internalType": "string",
          "name": "_boxId",
          "type": "string"
        }
      ],
      "name": "getMedicamentsInBox",
      "outputs": [
        {
          "internalType": "string[]",
          "name": "",
          "type": "string[]"
        }
      ],
      "stateMutability": "view",
      "type": "function",
      "constant": true
    },
    {
      "inputs": [
        {
          "internalType": "string",
          "name": "_medicamentId",
          "type": "string"
        }
      ],
      "name": "getMedicamentDetails",
      "outputs": [
        {
          "components": [
            {
              "internalType": "string",
              "name": "medicamentId",
              "type": "string"
            },
            {
              "internalType": "uint256",
              "name": "lotId",
              "type": "uint256"
            },
            {
              "components": [
                {
                  "internalType": "int8",
                  "name": "temperature",
                  "type": "int8"
                },
                {
                  "internalType": "uint8",
                  "name": "humidite",
                  "type": "uint8"
                },
                {
                  "internalType": "string",
                  "name": "positionX",
                  "type": "string"
                },
                {
                  "internalType": "string",
                  "name": "positionY",
                  "type": "string"
                },
                {
                  "internalType": "uint256",
                  "name": "timestamp",
                  "type": "uint256"
                }
              ],
              "internalType": "struct Medecin.ConditionsActuelles",
              "name": "conditionsActuelles",
              "type": "tuple"
            },
            {
              "internalType": "uint256",
              "name": "timestampCreation",
              "type": "uint256"
            }
          ],
          "internalType": "struct Medecin.UniteMedicament",
          "name": "",
          "type": "tuple"
        }
      ],
      "stateMutability": "view",
      "type": "function",
      "constant": true
    }
  ],
  "bytecode": "0x6080604052600160035534801561001557600080fd5b50612684806100256000396000f3fe608060405234801561001057600080fd5b50600436106100935760003560e01c806376bb904f1161006657806376bb904f1461014757806397f48cda14610177578063d666f29e14610193578063de2aa76f146101b1578063f1648e84146101e157610093565b806315334e32146100985780634e3acf2d146100c85780634fb039ee146100f857806371b401931461012b575b600080fd5b6100b260048036038101906100ad9190611d48565b61021b565b6040516100bf919061232f565b60405180910390f35b6100e260048036038101906100dd9190611e88565b6104b1565b6040516100ef9190612351565b60405180910390f35b610112600480360381019061010d9190611d48565b6107f8565b60405161012294939291906122dc565b60405180910390f35b61014560048036038101906101409190611cc9565b610a68565b005b610161600480360381019061015c9190611e34565b610c14565b60405161016e919061228a565b60405180910390f35b610191600480360381019061018c9190611d89565b610cf0565b005b61019b610f72565b6040516101a89190612351565b60405180910390f35b6101cb60048036038101906101c69190611d48565b610f78565b6040516101d89190612268565b60405180910390f35b6101fb60048036038101906101f69190611f07565b61107f565b6040516102129b9a9998979695949392919061236c565b60405180910390f35b610223611617565b61022b611617565b60028360405161023b9190612251565b9081526020016040518091039020604051806080016040529081600082018054600181600116156101000203166002900480601f0160208091040260200160405190810160405280929190818152602001828054600181600116156101000203166002900480156102ed5780601f106102c2576101008083540402835291602001916102ed565b820191906000526020600020905b8154815290600101906020018083116102d057829003601f168201915b5050505050815260200160018201548152602001600282016040518060a00160405290816000820160009054906101000a900460000b60000b60000b81526020016000820160019054906101000a900460ff1660ff1660ff168152602001600182018054600181600116156101000203166002900480601f0160208091040260200160405190810160405280929190818152602001828054600181600116156101000203166002900480156103e35780601f106103b8576101008083540402835291602001916103e3565b820191906000526020600020905b8154815290600101906020018083116103c657829003601f168201915b50505050508152602001600282018054600181600116156101000203166002900480601f0160208091040260200160405190810160405280929190818152602001828054600181600116156101000203166002900480156104855780601f1061045a57610100808354040283529160200191610485565b820191906000526020600020905b81548152906001019060200180831161046857829003601f168201915b505050505081526020016003820154815250508152602001600682015481525050905080915050919050565b60008060036000815480929190600101919050559050600080600083815260200190815260200160002090508181600001819055508560000151816001019080519060200190610502929190611645565b50856020015181600201908051906020019061051f929190611645565b50856040015181600301908051906020019061053c929190611645565b508560600151816004019080519060200190610559929190611645565b508560800151816005019080519060200190610576929190611645565b508560a00151816006019080519060200190610593929190611645565b508560c001518160070190805190602001906105b0929190611645565b508560e001518160080190805190602001906105cd929190611645565b50848160090160008201518160000160006101000a81548160ff021916908360000b60ff16021790555060208201518160000160016101000a81548160ff021916908360000b60ff16021790555060408201518160000160026101000a81548160ff021916908360ff16021790555060608201518160000160036101000a81548160ff021916908360ff1602179055509050504281600b018190555060005b84518110156107ad5781600a0185828151811061068557fe5b6020026020010151908060018154018082558091505060019003906000526020600020906008020160009091909190915060008201518160000190805190602001906106d2929190611645565b5060208201518160010190805190602001906106ef929190611645565b50604082015181600201908051906020019061070c929190611645565b506060820151816003019080519060200190610729929190611645565b506080820151816004019080519060200190610746929190611645565b5060a0820151816005019080519060200190610763929190611645565b5060c0820151816006019080519060200190610780929190611645565b5060e082015181600701908051906020019061079d929190611645565b505050808060010191505061066c565b50817f96438370e509f7b4e5442d1afc3c7c3457b7ad2d4b175878c807d48a4d9051628760000151426040516107e49291906122ac565b60405180910390a281925050509392505050565b600281805160208101820180518482526020830160208501208183528095505050505050600091509050806000018054600181600116156101000203166002900480601f0160208091040260200160405190810160405280929190818152602001828054600181600116156101000203166002900480156108ba5780601f1061088f576101008083540402835291602001916108ba565b820191906000526020600020905b81548152906001019060200180831161089d57829003601f168201915b505050505090806001015490806002016040518060a00160405290816000820160009054906101000a900460000b60000b60000b81526020016000820160019054906101000a900460ff1660ff1660ff168152602001600182018054600181600116156101000203166002900480601f0160208091040260200160405190810160405280929190818152602001828054600181600116156101000203166002900480156109a85780601f1061097d576101008083540402835291602001916109a8565b820191906000526020600020905b81548152906001019060200180831161098b57829003601f168201915b50505050508152602001600282018054600181600116156101000203166002900480601f016020809104026020016040519081016040528092919081815260200182805460018160011615610100020316600290048015610a4a5780601f10610a1f57610100808354040283529160200191610a4a565b820191906000526020600020905b815481529060010190602001808311610a2d57829003601f168201915b50505050508152602001600382015481525050908060060154905084565b60005b8351811015610c0e576040518060800160405280858381518110610a8b57fe5b60200260200101518152602001848152602001838152602001428152506002858381518110610ab657fe5b6020026020010151604051610acb9190612251565b90815260200160405180910390206000820151816000019080519060200190610af5929190611645565b506020820151816001015560408201518160020160008201518160000160006101000a81548160ff021916908360000b60ff16021790555060208201518160000160016101000a81548160ff021916908360ff1602179055506040820151816001019080519060200190610b6a929190611645565b506060820151816002019080519060200190610b87929190611645565b5060808201518160030155505060608201518160060155905050838181518110610bad57fe5b6020026020010151604051610bc29190612251565b60405180910390207f5c53b353e824876ab4ca986d8e539d2cd5a6a6aa71510449b801419ba5076e6a84604051610bf99190612351565b60405180910390a28080600101915050610a6b565b50505050565b6001828051602081018201805184825260208301602085012081835280955050505050508181548110610c4357fe5b90600052602060002001600091509150508054600181600116156101000203166002900480601f016020809104026020016040519081016040528092919081815260200182805460018160011615610100020316600290048015610ce85780601f10610cbd57610100808354040283529160200191610ce8565b820191906000526020600020905b815481529060010190602001808311610ccb57829003601f168201915b505050505081565b60005b8351811015610e96576040518060800160405280858381518110610d1357fe5b60200260200101518152602001848152602001838152602001428152506002858381518110610d3e57fe5b6020026020010151604051610d539190612251565b90815260200160405180910390206000820151816000019080519060200190610d7d929190611645565b506020820151816001015560408201518160020160008201518160000160006101000a81548160ff021916908360000b60ff16021790555060208201518160000160016101000a81548160ff021916908360ff1602179055506040820151816001019080519060200190610df2929190611645565b506060820151816002019080519060200190610e0f929190611645565b5060808201518160030155505060608201518160060155905050838181518110610e3557fe5b6020026020010151604051610e4a9190612251565b60405180910390207f5c53b353e824876ab4ca986d8e539d2cd5a6a6aa71510449b801419ba5076e6a84604051610e819190612351565b60405180910390a28080600101915050610cf3565b5060005b8351811015610f1b57600185604051610eb39190612251565b9081526020016040518091039020848281518110610ecd57fe5b6020026020010151908060018154018082558091505060019003906000526020600020016000909190919091509080519060200190610f0d929190611645565b508080600101915050610e9a565b5083604051610f2a9190612251565b60405180910390207fa1e72c2b1494438483667dce1ee48e91fd4c25b91d5efe16e005c9e9eb25214f838551604051610f6492919061244f565b60405180910390a250505050565b60035481565b6060600182604051610f8a9190612251565b9081526020016040518091039020805480602002602001604051908101604052809291908181526020016000905b82821015611074578382906000526020600020018054600181600116156101000203166002900480601f0160208091040260200160405190810160405280929190818152602001828054600181600116156101000203166002900480156110605780601f1061103557610100808354040283529160200191611060565b820191906000526020600020905b81548152906001019060200180831161104357829003601f168201915b505050505081526020019060010190610fb8565b505050509050919050565b6000602052806000526040600020600091509050806000015490806001018054600181600116156101000203166002900480601f0160208091040260200160405190810160405280929190818152602001828054600181600116156101000203166002900480156111315780601f1061110657610100808354040283529160200191611131565b820191906000526020600020905b81548152906001019060200180831161111457829003601f168201915b505050505090806002018054600181600116156101000203166002900480601f0160208091040260200160405190810160405280929190818152602001828054600181600116156101000203166002900480156111cf5780601f106111a4576101008083540402835291602001916111cf565b820191906000526020600020905b8154815290600101906020018083116111b257829003601f168201915b505050505090806003018054600181600116156101000203166002900480601f01602080910402602001604051908101604052809291908181526020018280546001816001161561010002031660029004801561126d5780601f106112425761010080835404028352916020019161126d565b820191906000526020600020905b81548152906001019060200180831161125057829003601f168201915b505050505090806004018054600181600116156101000203166002900480601f01602080910402602001604051908101604052809291908181526020018280546001816001161561010002031660029004801561130b5780601f106112e05761010080835404028352916020019161130b565b820191906000526020600020905b8154815290600101906020018083116112ee57829003601f168201915b505050505090806005018054600181600116156101000203166002900480601f0160208091040260200160405190810160405280929190818152602001828054600181600116156101000203166002900480156113a95780601f1061137e576101008083540402835291602001916113a9565b820191906000526020600020905b81548152906001019060200180831161138c57829003601f168201915b505050505090806006018054600181600116156101000203166002900480601f0160208091040260200160405190810160405280929190818152602001828054600181600116156101000203166002900480156114475780601f1061141c57610100808354040283529160200191611447565b820191906000526020600020905b81548152906001019060200180831161142a57829003601f168201915b505050505090806007018054600181600116156101000203166002900480601f0160208091040260200160405190810160405280929190818152602001828054600181600116156101000203166002900480156114e55780601f106114ba576101008083540402835291602001916114e5565b820191906000526020600020905b8154815290600101906020018083116114c857829003601f168201915b505050505090806008018054600181600116156101000203166002900480601f0160208091040260200160405190810160405280929190818152602001828054600181600116156101000203166002900480156115835780601f1061155857610100808354040283529160200191611583565b820191906000526020600020905b81548152906001019060200180831161156657829003601f168201915b505050505090806009016040518060800160405290816000820160009054906101000a900460000b60000b60000b81526020016000820160019054906101000a900460000b60000b60000b81526020016000820160029054906101000a900460ff1660ff1660ff1681526020016000820160039054906101000a900460ff1660ff1660ff16815250509080600b015490508b565b604051806080016040528060608152602001600081526020016116386116c5565b8152602001600081525090565b828054600181600116156101000203166002900490600052602060002090601f016020900481019282601f1061168657805160ff19168380011785556116b4565b828001600101855582156116b4579182015b828111156116b3578251825591602001919060010190611698565b5b5090506116c191906116f9565b5090565b6040518060a001604052806000800b8152602001600060ff1681526020016060815260200160608152602001600081525090565b5b808211156117125760008160009055506001016116fa565b5090565b600082601f83011261172757600080fd5b813561173a611735826124a5565b612478565b9150818183526020840193506020810190508360005b8381101561178057813586016117668882611813565b845260208401935060208301925050600181019050611750565b5050505092915050565b600082601f83011261179b57600080fd5b81356117ae6117a9826124cd565b612478565b9150818183526020840193506020810190508360005b838110156117f457813586016117da8882611b19565b8452602084019350602083019250506001810190506117c4565b5050505092915050565b60008135905061180d81612609565b92915050565b600082601f83011261182457600080fd5b8135611837611832826124f5565b612478565b9150808252602083016020830185838301111561185357600080fd5b61185e8382846125b6565b50505092915050565b600060a0828403121561187957600080fd5b61188360a0612478565b90506000611893848285016117fe565b60008301525060206118a784828501611cb4565b602083015250604082013567ffffffffffffffff8111156118c757600080fd5b6118d384828501611813565b604083015250606082013567ffffffffffffffff8111156118f357600080fd5b6118ff84828501611813565b606083015250608061191384828501611c9f565b60808301525092915050565b60006080828403121561193157600080fd5b61193b6080612478565b9050600061194b848285016117fe565b600083015250602061195f848285016117fe565b602083015250604061197384828501611cb4565b604083015250606061198784828501611cb4565b60608301525092915050565b600061010082840312156119a657600080fd5b6119b1610100612478565b9050600082013567ffffffffffffffff8111156119cd57600080fd5b6119d984828501611813565b600083015250602082013567ffffffffffffffff8111156119f957600080fd5b611a0584828501611813565b602083015250604082013567ffffffffffffffff811115611a2557600080fd5b611a3184828501611813565b604083015250606082013567ffffffffffffffff811115611a5157600080fd5b611a5d84828501611813565b606083015250608082013567ffffffffffffffff811115611a7d57600080fd5b611a8984828501611813565b60808301525060a082013567ffffffffffffffff811115611aa957600080fd5b611ab584828501611813565b60a08301525060c082013567ffffffffffffffff811115611ad557600080fd5b611ae184828501611813565b60c08301525060e082013567ffffffffffffffff811115611b0157600080fd5b611b0d84828501611813565b60e08301525092915050565b60006101008284031215611b2c57600080fd5b611b37610100612478565b9050600082013567ffffffffffffffff811115611b5357600080fd5b611b5f84828501611813565b600083015250602082013567ffffffffffffffff811115611b7f57600080fd5b611b8b84828501611813565b602083015250604082013567ffffffffffffffff811115611bab57600080fd5b611bb784828501611813565b604083015250606082013567ffffffffffffffff811115611bd757600080fd5b611be384828501611813565b606083015250608082013567ffffffffffffffff811115611c0357600080fd5b611c0f84828501611813565b60808301525060a082013567ffffffffffffffff811115611c2f57600080fd5b611c3b84828501611813565b60a08301525060c082013567ffffffffffffffff811115611c5b57600080fd5b611c6784828501611813565b60c08301525060e082013567ffffffffffffffff811115611c8757600080fd5b611c9384828501611813565b60e08301525092915050565b600081359050611cae81612620565b92915050565b600081359050611cc381612637565b92915050565b600080600060608486031215611cde57600080fd5b600084013567ffffffffffffffff811115611cf857600080fd5b611d0486828701611716565b9350506020611d1586828701611c9f565b925050604084013567ffffffffffffffff811115611d3257600080fd5b611d3e86828701611867565b9150509250925092565b600060208284031215611d5a57600080fd5b600082013567ffffffffffffffff811115611d7457600080fd5b611d8084828501611813565b91505092915050565b60008060008060808587031215611d9f57600080fd5b600085013567ffffffffffffffff811115611db957600080fd5b611dc587828801611813565b945050602085013567ffffffffffffffff811115611de257600080fd5b611dee87828801611716565b9350506040611dff87828801611c9f565b925050606085013567ffffffffffffffff811115611e1c57600080fd5b611e2887828801611867565b91505092959194509250565b60008060408385031215611e4757600080fd5b600083013567ffffffffffffffff811115611e6157600080fd5b611e6d85828601611813565b9250506020611e7e85828601611c9f565b9150509250929050565b600080600060c08486031215611e9d57600080fd5b600084013567ffffffffffffffff811115611eb757600080fd5b611ec386828701611993565b9350506020611ed48682870161191f565b92505060a084013567ffffffffffffffff811115611ef157600080fd5b611efd8682870161178a565b9150509250925092565b600060208284031215611f1957600080fd5b6000611f2784828501611c9f565b91505092915050565b6000611f3c8383611fc8565b905092915050565b6000611f4f82612531565b611f598185612554565b935083602082028501611f6b85612521565b8060005b85811015611fa75784840389528151611f888582611f30565b9450611f9383612547565b925060208a01995050600181019050611f6f565b50829750879550505050505092915050565b611fc281612592565b82525050565b6000611fd38261253c565b611fdd8185612565565b9350611fed8185602086016125c5565b611ff6816125f8565b840191505092915050565b600061200c8261253c565b6120168185612576565b93506120268185602086016125c5565b61202f816125f8565b840191505092915050565b60006120458261253c565b61204f8185612587565b935061205f8185602086016125c5565b80840191505092915050565b600060a0830160008301516120836000860182611fb9565b5060208301516120966020860182612242565b50604083015184820360408601526120ae8282611fc8565b915050606083015184820360608601526120c88282611fc8565b91505060808301516120dd6080860182612224565b508091505092915050565b600060a0830160008301516121006000860182611fb9565b5060208301516121136020860182612242565b506040830151848203604086015261212b8282611fc8565b915050606083015184820360608601526121458282611fc8565b915050608083015161215a6080860182612224565b508091505092915050565b60808201600082015161217b6000850182611fb9565b50602082015161218e6020850182611fb9565b5060408201516121a16040850182612242565b5060608201516121b46060850182612242565b50505050565b600060808301600083015184820360008601526121d78282611fc8565b91505060208301516121ec6020860182612224565b5060408301518482036040860152612204828261206b565b91505060608301516122196060860182612224565b508091505092915050565b61222d8161259f565b82525050565b61223c8161259f565b82525050565b61224b816125a9565b82525050565b600061225d828461203a565b915081905092915050565b600060208201905081810360008301526122828184611f44565b905092915050565b600060208201905081810360008301526122a48184612001565b905092915050565b600060408201905081810360008301526122c68185612001565b90506122d56020830184612233565b9392505050565b600060808201905081810360008301526122f68187612001565b90506123056020830186612233565b818103604083015261231781856120e8565b90506123266060830184612233565b95945050505050565b6000602082019050818103600083015261234981846121ba565b905092915050565b60006020820190506123666000830184612233565b92915050565b60006101c082019050612382600083018e612233565b8181036020830152612394818d612001565b905081810360408301526123a8818c612001565b905081810360608301526123bc818b612001565b905081810360808301526123d0818a612001565b905081810360a08301526123e48189612001565b905081810360c08301526123f88188612001565b905081810360e083015261240c8187612001565b90508181036101008301526124218186612001565b9050612431610120830185612165565b61243f6101a0830184612233565b9c9b505050505050505050505050565b60006040820190506124646000830185612233565b6124716020830184612233565b9392505050565b6000604051905081810181811067ffffffffffffffff8211171561249b57600080fd5b8060405250919050565b600067ffffffffffffffff8211156124bc57600080fd5b602082029050602081019050919050565b600067ffffffffffffffff8211156124e457600080fd5b602082029050602081019050919050565b600067ffffffffffffffff82111561250c57600080fd5b601f19601f8301169050602081019050919050565b6000819050602082019050919050565b600081519050919050565b600081519050919050565b6000602082019050919050565b600082825260208201905092915050565b600082825260208201905092915050565b600082825260208201905092915050565b600081905092915050565b60008160000b9050919050565b6000819050919050565b600060ff82169050919050565b82818337600083830152505050565b60005b838110156125e35780820151818401526020810190506125c8565b838111156125f2576000848401525b50505050565b6000601f19601f8301169050919050565b61261281612592565b811461261d57600080fd5b50565b6126298161259f565b811461263457600080fd5b50565b612640816125a9565b811461264b57600080fd5b5056fea26469706673582212209148195926f618225428f46d4ca5ca6bdb01b9345f44b06b00ad3cf5e937422464736f6c63430007010033",
  "immutableReferences": {},
  "source": "// SPDX-License-Identifier: MIT\r\npragma solidity >=0.7.0 <0.9.0;\r\npragma experimental ABIEncoderV2;\r\n\r\ncontract Medecin {\r\n    // Structures de données\r\n    struct Conservation {\r\n        int8 temperatureMax;\r\n        int8 temperatureMin;\r\n        uint8 humiditeMax;\r\n        uint8 humiditeMin;\r\n    }\r\n\r\n    struct MatierePremiere {\r\n        string nom;\r\n        string origine;\r\n        string fournisseur;\r\n        string degrePurete;\r\n        string quantiteParUnite;\r\n        string certificatAnalyse;\r\n        string dateReception;\r\n        string transport;\r\n    }\r\n\r\n    struct ConditionsActuelles {\r\n        int8 temperature;\r\n        uint8 humidite;\r\n        string positionX;\r\n        string positionY;\r\n        uint256 timestamp;\r\n    }\r\n\r\n    struct LotDetails {\r\n        string nomMedicament;\r\n        string substanceActive;\r\n        string forme;\r\n        string dateFabrication;\r\n        string datePeremption;\r\n        string nomFabricant;\r\n        string paysOrigine;\r\n        string amm;\r\n    }\r\n\r\n    struct LotMedicament {\r\n        uint256 lotId;\r\n        string nomMedicament;\r\n        string substanceActive;\r\n        string forme;\r\n        string dateFabrication;\r\n        string datePeremption;\r\n        string nomFabricant;\r\n        string paysOrigine;\r\n        string amm;\r\n        Conservation conditionsConservation;\r\n        MatierePremiere[] matieresPremieresLot;\r\n        uint256 timestamp;\r\n    }\r\n\r\n    struct UniteMedicament {\r\n        string medicamentId;\r\n        uint256 lotId;\r\n        ConditionsActuelles conditionsActuelles;\r\n        uint256 timestampCreation;\r\n    }\r\n\r\n    // Storage\r\n    mapping(uint256 => LotMedicament) public lots;\r\n    mapping(string => string[]) public boxToMedicaments; // Maps boxId to array of medicamentIds\r\n    mapping(string => UniteMedicament) public medicaments; // Maps medicamentId to its data\r\n    uint256 public nextLotId = 1;\r\n\r\n    // Events\r\n    event LotCree(uint256 indexed lotId, string nomMedicament, uint256 timestamp);\r\n    event BoxAssembled(string indexed boxId, uint256 lotId, uint256 medicamentCount);\r\n    event MedicamentCreated(string indexed medicamentId, uint256 lotId);\r\n\r\n    // Fonction d'ajout d'un lot avec structs regroupés\r\n    function creerLotMedicament(\r\n        LotDetails memory _lotDetails,\r\n        Conservation memory _conservation,\r\n        MatierePremiere[] memory _matieresPremieresLot\r\n    ) public returns (uint256) {\r\n        uint256 lotId = nextLotId++;\r\n        \r\n        LotMedicament storage lot = lots[lotId];\r\n        lot.lotId = lotId;\r\n        lot.nomMedicament = _lotDetails.nomMedicament;\r\n        lot.substanceActive = _lotDetails.substanceActive;\r\n        lot.forme = _lotDetails.forme;\r\n        lot.dateFabrication = _lotDetails.dateFabrication;\r\n        lot.datePeremption = _lotDetails.datePeremption;\r\n        lot.nomFabricant = _lotDetails.nomFabricant;\r\n        lot.paysOrigine = _lotDetails.paysOrigine;\r\n        lot.amm = _lotDetails.amm;\r\n        lot.conditionsConservation = _conservation;\r\n        lot.timestamp = block.timestamp;\r\n\r\n        for (uint i = 0; i < _matieresPremieresLot.length; i++) {\r\n            lot.matieresPremieresLot.push(_matieresPremieresLot[i]);\r\n        }\r\n\r\n        emit LotCree(lotId, _lotDetails.nomMedicament, block.timestamp);\r\n        return lotId;\r\n    }\r\n\r\n    // Create multiple medicine units with same parameters (except IDs)\r\n    function createMedicamentUnits(\r\n        string[] memory _medicamentIds,\r\n        uint256 _lotId,\r\n        ConditionsActuelles memory _conditions\r\n    ) public {\r\n        for (uint i = 0; i < _medicamentIds.length; i++) {\r\n            medicaments[_medicamentIds[i]] = UniteMedicament({\r\n                medicamentId: _medicamentIds[i],\r\n                lotId: _lotId,\r\n                conditionsActuelles: _conditions,\r\n                timestampCreation: block.timestamp\r\n            });\r\n            \r\n            emit MedicamentCreated(_medicamentIds[i], _lotId);\r\n        }\r\n    }\r\n\r\n    function createAndAssignMedicaments(\r\n        string memory _boxId,\r\n        string[] memory _medicamentIds,\r\n        uint256 _lotId,\r\n        ConditionsActuelles memory _conditions\r\n    ) public {\r\n        // 1. Créer les médicaments\r\n        for (uint i = 0; i < _medicamentIds.length; i++) {\r\n            medicaments[_medicamentIds[i]] = UniteMedicament({\r\n                medicamentId: _medicamentIds[i],\r\n                lotId: _lotId,\r\n                conditionsActuelles: _conditions,\r\n                timestampCreation: block.timestamp\r\n            });\r\n\r\n            emit MedicamentCreated(_medicamentIds[i], _lotId);\r\n        }\r\n\r\n        // 2. Les associer à une boîte\r\n        for (uint i = 0; i < _medicamentIds.length; i++) {\r\n            boxToMedicaments[_boxId].push(_medicamentIds[i]);\r\n        }\r\n\r\n        emit BoxAssembled(_boxId, _lotId, _medicamentIds.length);\r\n    }\r\n\r\n\r\n    // Get all medicine IDs in a box\r\n    function getMedicamentsInBox(string memory _boxId) public view returns (string[] memory) {\r\n        return boxToMedicaments[_boxId];\r\n    }\r\n\r\n    // Get medicine details\r\n    function getMedicamentDetails(string memory _medicamentId) public view returns (\r\n        UniteMedicament memory\r\n    ) {\r\n        UniteMedicament memory unit = medicaments[_medicamentId];\r\n        return (unit);\r\n    }\r\n}",
  "sourcePath": "C:\\Users\\HP\\Documents\\GitHub\\medproject\\contracts\\Medecin.sol",
  "compiler": {
    "name": "solc",
    "version": "0.7.1+commit.f4a555be.Emscripten.clang"
  },
  "schemaVersion": "3.4.16",
  "updatedAt": "2025-04-18T19:50:23.974Z",
  "networkType": "ethereum",
  "devdoc": {
    "kind": "dev",
    "methods": {},
    "version": 1
  },
  "userdoc": {
    "kind": "user",
    "methods": {},
    "version": 1
  }
}