{
  "contractName": "Medecin",
  "abi": [
    {
      "anonymous": false,
      "inputs": [
        {
          "indexed": true,
          "internalType": "string",
          "name": "boxId",
          "type": "string"
        },
        {
          "indexed": false,
          "internalType": "uint256",
          "name": "lotId",
          "type": "uint256"
        },
        {
          "indexed": false,
          "internalType": "uint256",
          "name": "medicamentCount",
          "type": "uint256"
        }
      ],
      "name": "BoxAssembled",
      "type": "event"
    },
    {
      "anonymous": false,
      "inputs": [
        {
          "indexed": true,
          "internalType": "uint256",
          "name": "lotId",
          "type": "uint256"
        },
        {
          "indexed": false,
          "internalType": "string",
          "name": "nomMedicament",
          "type": "string"
        },
        {
          "indexed": false,
          "internalType": "uint256",
          "name": "timestamp",
          "type": "uint256"
        }
      ],
      "name": "LotCree",
      "type": "event"
    },
    {
      "anonymous": false,
      "inputs": [
        {
          "indexed": true,
          "internalType": "string",
          "name": "medicamentId",
          "type": "string"
        },
        {
          "indexed": false,
          "internalType": "uint256",
          "name": "lotId",
          "type": "uint256"
        }
      ],
      "name": "MedicamentCreated",
      "type": "event"
    },
    {
      "inputs": [
        {
          "internalType": "string",
          "name": "",
          "type": "string"
        },
        {
          "internalType": "uint256",
          "name": "",
          "type": "uint256"
        }
      ],
      "name": "boxToMedicaments",
      "outputs": [
        {
          "internalType": "string",
          "name": "",
          "type": "string"
        }
      ],
      "stateMutability": "view",
      "type": "function",
      "constant": true
    },
    {
      "inputs": [
        {
          "internalType": "uint256",
          "name": "",
          "type": "uint256"
        }
      ],
      "name": "lots",
      "outputs": [
        {
          "internalType": "uint256",
          "name": "lotId",
          "type": "uint256"
        },
        {
          "internalType": "string",
          "name": "nomMedicament",
          "type": "string"
        },
        {
          "internalType": "string",
          "name": "substanceActive",
          "type": "string"
        },
        {
          "internalType": "string",
          "name": "forme",
          "type": "string"
        },
        {
          "internalType": "string",
          "name": "dateFabrication",
          "type": "string"
        },
        {
          "internalType": "string",
          "name": "datePeremption",
          "type": "string"
        },
        {
          "internalType": "string",
          "name": "nomFabricant",
          "type": "string"
        },
        {
          "internalType": "string",
          "name": "paysOrigine",
          "type": "string"
        },
        {
          "internalType": "string",
          "name": "amm",
          "type": "string"
        },
        {
          "components": [
            {
              "internalType": "int8",
              "name": "temperatureMax",
              "type": "int8"
            },
            {
              "internalType": "int8",
              "name": "temperatureMin",
              "type": "int8"
            },
            {
              "internalType": "uint8",
              "name": "humiditeMax",
              "type": "uint8"
            },
            {
              "internalType": "uint8",
              "name": "humiditeMin",
              "type": "uint8"
            }
          ],
          "internalType": "struct Medecin.Conservation",
          "name": "conditionsConservation",
          "type": "tuple"
        },
        {
          "internalType": "uint256",
          "name": "timestamp",
          "type": "uint256"
        }
      ],
      "stateMutability": "view",
      "type": "function",
      "constant": true
    },
    {
      "inputs": [
        {
          "internalType": "string",
          "name": "",
          "type": "string"
        }
      ],
      "name": "medicaments",
      "outputs": [
        {
          "internalType": "string",
          "name": "medicamentId",
          "type": "string"
        },
        {
          "internalType": "uint256",
          "name": "lotId",
          "type": "uint256"
        },
        {
          "components": [
            {
              "internalType": "int8",
              "name": "temperature",
              "type": "int8"
            },
            {
              "internalType": "uint8",
              "name": "humidite",
              "type": "uint8"
            },
            {
              "internalType": "string",
              "name": "positionX",
              "type": "string"
            },
            {
              "internalType": "string",
              "name": "positionY",
              "type": "string"
            },
            {
              "internalType": "uint256",
              "name": "timestamp",
              "type": "uint256"
            }
          ],
          "internalType": "struct Medecin.ConditionsActuelles",
          "name": "conditionsActuelles",
          "type": "tuple"
        },
        {
          "internalType": "uint256",
          "name": "timestampCreation",
          "type": "uint256"
        }
      ],
      "stateMutability": "view",
      "type": "function",
      "constant": true
    },
    {
      "inputs": [],
      "name": "nextLotId",
      "outputs": [
        {
          "internalType": "uint256",
          "name": "",
          "type": "uint256"
        }
      ],
      "stateMutability": "view",
      "type": "function",
      "constant": true
    },
    {
      "inputs": [
        {
          "components": [
            {
              "internalType": "string",
              "name": "nomMedicament",
              "type": "string"
            },
            {
              "internalType": "string",
              "name": "substanceActive",
              "type": "string"
            },
            {
              "internalType": "string",
              "name": "forme",
              "type": "string"
            },
            {
              "internalType": "string",
              "name": "dateFabrication",
              "type": "string"
            },
            {
              "internalType": "string",
              "name": "datePeremption",
              "type": "string"
            },
            {
              "internalType": "string",
              "name": "nomFabricant",
              "type": "string"
            },
            {
              "internalType": "string",
              "name": "paysOrigine",
              "type": "string"
            },
            {
              "internalType": "string",
              "name": "amm",
              "type": "string"
            }
          ],
          "internalType": "struct Medecin.LotDetails",
          "name": "_lotDetails",
          "type": "tuple"
        },
        {
          "components": [
            {
              "internalType": "int8",
              "name": "temperatureMax",
              "type": "int8"
            },
            {
              "internalType": "int8",
              "name": "temperatureMin",
              "type": "int8"
            },
            {
              "internalType": "uint8",
              "name": "humiditeMax",
              "type": "uint8"
            },
            {
              "internalType": "uint8",
              "name": "humiditeMin",
              "type": "uint8"
            }
          ],
          "internalType": "struct Medecin.Conservation",
          "name": "_conservation",
          "type": "tuple"
        },
        {
          "components": [
            {
              "internalType": "string",
              "name": "nom",
              "type": "string"
            },
            {
              "internalType": "string",
              "name": "origine",
              "type": "string"
            },
            {
              "internalType": "string",
              "name": "fournisseur",
              "type": "string"
            },
            {
              "internalType": "string",
              "name": "degrePurete",
              "type": "string"
            },
            {
              "internalType": "string",
              "name": "quantiteParUnite",
              "type": "string"
            },
            {
              "internalType": "string",
              "name": "certificatAnalyse",
              "type": "string"
            },
            {
              "internalType": "string",
              "name": "dateReception",
              "type": "string"
            },
            {
              "internalType": "string",
              "name": "transport",
              "type": "string"
            }
          ],
          "internalType": "struct Medecin.MatierePremiere[]",
          "name": "_matieresPremieresLot",
          "type": "tuple[]"
        }
      ],
      "name": "creerLotMedicament",
      "outputs": [
        {
          "internalType": "uint256",
          "name": "",
          "type": "uint256"
        }
      ],
      "stateMutability": "nonpayable",
      "type": "function"
    },
    {
      "inputs": [
        {
          "internalType": "string[]",
          "name": "_medicamentIds",
          "type": "string[]"
        },
        {
          "internalType": "uint256",
          "name": "_lotId",
          "type": "uint256"
        },
        {
          "components": [
            {
              "internalType": "int8",
              "name": "temperature",
              "type": "int8"
            },
            {
              "internalType": "uint8",
              "name": "humidite",
              "type": "uint8"
            },
            {
              "internalType": "string",
              "name": "positionX",
              "type": "string"
            },
            {
              "internalType": "string",
              "name": "positionY",
              "type": "string"
            },
            {
              "internalType": "uint256",
              "name": "timestamp",
              "type": "uint256"
            }
          ],
          "internalType": "struct Medecin.ConditionsActuelles",
          "name": "_conditions",
          "type": "tuple"
        }
      ],
      "name": "createMedicamentUnits",
      "outputs": [],
      "stateMutability": "nonpayable",
      "type": "function"
    },
    {
      "inputs": [
        {
          "components": [
            {
              "internalType": "string",
              "name": "boxId",
              "type": "string"
            },
            {
              "internalType": "string[]",
              "name": "medicamentIds",
              "type": "string[]"
            }
          ],
          "internalType": "struct Medecin.Box[]",
          "name": "_boxes",
          "type": "tuple[]"
        },
        {
          "internalType": "uint256",
          "name": "_lotId",
          "type": "uint256"
        },
        {
          "components": [
            {
              "internalType": "int8",
              "name": "temperature",
              "type": "int8"
            },
            {
              "internalType": "uint8",
              "name": "humidite",
              "type": "uint8"
            },
            {
              "internalType": "string",
              "name": "positionX",
              "type": "string"
            },
            {
              "internalType": "string",
              "name": "positionY",
              "type": "string"
            },
            {
              "internalType": "uint256",
              "name": "timestamp",
              "type": "uint256"
            }
          ],
          "internalType": "struct Medecin.ConditionsActuelles",
          "name": "_conditions",
          "type": "tuple"
        }
      ],
      "name": "createAndAssignMedicaments",
      "outputs": [],
      "stateMutability": "nonpayable",
      "type": "function"
    },
    {
      "inputs": [
        {
          "internalType": "string",
          "name": "_boxId",
          "type": "string"
        }
      ],
      "name": "getMedicamentsInBox",
      "outputs": [
        {
          "internalType": "string[]",
          "name": "",
          "type": "string[]"
        }
      ],
      "stateMutability": "view",
      "type": "function",
      "constant": true
    },
    {
      "inputs": [
        {
          "internalType": "string",
          "name": "_medicamentId",
          "type": "string"
        }
      ],
      "name": "getMedicamentDetails",
      "outputs": [
        {
          "components": [
            {
              "internalType": "string",
              "name": "medicamentId",
              "type": "string"
            },
            {
              "internalType": "uint256",
              "name": "lotId",
              "type": "uint256"
            },
            {
              "components": [
                {
                  "internalType": "int8",
                  "name": "temperature",
                  "type": "int8"
                },
                {
                  "internalType": "uint8",
                  "name": "humidite",
                  "type": "uint8"
                },
                {
                  "internalType": "string",
                  "name": "positionX",
                  "type": "string"
                },
                {
                  "internalType": "string",
                  "name": "positionY",
                  "type": "string"
                },
                {
                  "internalType": "uint256",
                  "name": "timestamp",
                  "type": "uint256"
                }
              ],
              "internalType": "struct Medecin.ConditionsActuelles",
              "name": "conditionsActuelles",
              "type": "tuple"
            },
            {
              "internalType": "uint256",
              "name": "timestampCreation",
              "type": "uint256"
            }
          ],
          "internalType": "struct Medecin.UniteMedicament",
          "name": "",
          "type": "tuple"
        }
      ],
      "stateMutability": "view",
      "type": "function",
      "constant": true
    }
  ],
  "bytecode": "0x6080604052600160035534801561001557600080fd5b506127d4806100256000396000f3fe608060405234801561001057600080fd5b50600436106100935760003560e01c806376bb904f1161006657806376bb904f1461014757806383bed83114610177578063d666f29e14610193578063de2aa76f146101b1578063f1648e84146101e157610093565b806315334e32146100985780634e3acf2d146100c85780634fb039ee146100f857806371b401931461012b575b600080fd5b6100b260048036038101906100ad9190611f1b565b61021b565b6040516100bf9190612457565b60405180910390f35b6100e260048036038101906100dd9190611fb0565b6104b1565b6040516100ef9190612479565b60405180910390f35b610112600480360381019061010d9190611f1b565b6107f8565b6040516101229493929190612404565b60405180910390f35b61014560048036038101906101409190611e1d565b610a68565b005b610161600480360381019061015c9190611f5c565b610c14565b60405161016e91906123b2565b60405180910390f35b610191600480360381019061018c9190611e9c565b610cf0565b005b61019b610fbc565b6040516101a89190612479565b60405180910390f35b6101cb60048036038101906101c69190611f1b565b610fc2565b6040516101d89190612390565b60405180910390f35b6101fb60048036038101906101f6919061202f565b6110c9565b6040516102129b9a99989796959493929190612494565b60405180910390f35b610223611661565b61022b611661565b60028360405161023b9190612379565b9081526020016040518091039020604051806080016040529081600082018054600181600116156101000203166002900480601f0160208091040260200160405190810160405280929190818152602001828054600181600116156101000203166002900480156102ed5780601f106102c2576101008083540402835291602001916102ed565b820191906000526020600020905b8154815290600101906020018083116102d057829003601f168201915b5050505050815260200160018201548152602001600282016040518060a00160405290816000820160009054906101000a900460000b60000b60000b81526020016000820160019054906101000a900460ff1660ff1660ff168152602001600182018054600181600116156101000203166002900480601f0160208091040260200160405190810160405280929190818152602001828054600181600116156101000203166002900480156103e35780601f106103b8576101008083540402835291602001916103e3565b820191906000526020600020905b8154815290600101906020018083116103c657829003601f168201915b50505050508152602001600282018054600181600116156101000203166002900480601f0160208091040260200160405190810160405280929190818152602001828054600181600116156101000203166002900480156104855780601f1061045a57610100808354040283529160200191610485565b820191906000526020600020905b81548152906001019060200180831161046857829003601f168201915b505050505081526020016003820154815250508152602001600682015481525050905080915050919050565b6000806003600081548092919060010191905055905060008060008381526020019081526020016000209050818160000181905550856000015181600101908051906020019061050292919061168f565b50856020015181600201908051906020019061051f92919061168f565b50856040015181600301908051906020019061053c92919061168f565b50856060015181600401908051906020019061055992919061168f565b50856080015181600501908051906020019061057692919061168f565b508560a0015181600601908051906020019061059392919061168f565b508560c001518160070190805190602001906105b092919061168f565b508560e001518160080190805190602001906105cd92919061168f565b50848160090160008201518160000160006101000a81548160ff021916908360000b60ff16021790555060208201518160000160016101000a81548160ff021916908360000b60ff16021790555060408201518160000160026101000a81548160ff021916908360ff16021790555060608201518160000160036101000a81548160ff021916908360ff1602179055509050504281600b018190555060005b84518110156107ad5781600a0185828151811061068557fe5b6020026020010151908060018154018082558091505060019003906000526020600020906008020160009091909190915060008201518160000190805190602001906106d292919061168f565b5060208201518160010190805190602001906106ef92919061168f565b50604082015181600201908051906020019061070c92919061168f565b50606082015181600301908051906020019061072992919061168f565b50608082015181600401908051906020019061074692919061168f565b5060a082015181600501908051906020019061076392919061168f565b5060c082015181600601908051906020019061078092919061168f565b5060e082015181600701908051906020019061079d92919061168f565b505050808060010191505061066c565b50817f96438370e509f7b4e5442d1afc3c7c3457b7ad2d4b175878c807d48a4d9051628760000151426040516107e49291906123d4565b60405180910390a281925050509392505050565b600281805160208101820180518482526020830160208501208183528095505050505050600091509050806000018054600181600116156101000203166002900480601f0160208091040260200160405190810160405280929190818152602001828054600181600116156101000203166002900480156108ba5780601f1061088f576101008083540402835291602001916108ba565b820191906000526020600020905b81548152906001019060200180831161089d57829003601f168201915b505050505090806001015490806002016040518060a00160405290816000820160009054906101000a900460000b60000b60000b81526020016000820160019054906101000a900460ff1660ff1660ff168152602001600182018054600181600116156101000203166002900480601f0160208091040260200160405190810160405280929190818152602001828054600181600116156101000203166002900480156109a85780601f1061097d576101008083540402835291602001916109a8565b820191906000526020600020905b81548152906001019060200180831161098b57829003601f168201915b50505050508152602001600282018054600181600116156101000203166002900480601f016020809104026020016040519081016040528092919081815260200182805460018160011615610100020316600290048015610a4a5780601f10610a1f57610100808354040283529160200191610a4a565b820191906000526020600020905b815481529060010190602001808311610a2d57829003601f168201915b50505050508152602001600382015481525050908060060154905084565b60005b8351811015610c0e576040518060800160405280858381518110610a8b57fe5b60200260200101518152602001848152602001838152602001428152506002858381518110610ab657fe5b6020026020010151604051610acb9190612379565b90815260200160405180910390206000820151816000019080519060200190610af592919061168f565b506020820151816001015560408201518160020160008201518160000160006101000a81548160ff021916908360000b60ff16021790555060208201518160000160016101000a81548160ff021916908360ff1602179055506040820151816001019080519060200190610b6a92919061168f565b506060820151816002019080519060200190610b8792919061168f565b5060808201518160030155505060608201518160060155905050838181518110610bad57fe5b6020026020010151604051610bc29190612379565b60405180910390207f5c53b353e824876ab4ca986d8e539d2cd5a6a6aa71510449b801419ba5076e6a84604051610bf99190612479565b60405180910390a28080600101915050610a6b565b50505050565b6001828051602081018201805184825260208301602085012081835280955050505050508181548110610c4357fe5b90600052602060002001600091509150508054600181600116156101000203166002900480601f016020809104026020016040519081016040528092919081815260200182805460018160011615610100020316600290048015610ce85780601f10610cbd57610100808354040283529160200191610ce8565b820191906000526020600020905b815481529060010190602001808311610ccb57829003601f168201915b505050505081565b60005b8351811015610fb657610d0461170f565b848281518110610d1057fe5b6020026020010151905060608160200151905060005b8151811015610ec9576040518060800160405280838381518110610d4657fe5b60200260200101518152602001878152602001868152602001428152506002838381518110610d7157fe5b6020026020010151604051610d869190612379565b90815260200160405180910390206000820151816000019080519060200190610db092919061168f565b506020820151816001015560408201518160020160008201518160000160006101000a81548160ff021916908360000b60ff16021790555060208201518160000160016101000a81548160ff021916908360ff1602179055506040820151816001019080519060200190610e2592919061168f565b506060820151816002019080519060200190610e4292919061168f565b5060808201518160030155505060608201518160060155905050818181518110610e6857fe5b6020026020010151604051610e7d9190612379565b60405180910390207f5c53b353e824876ab4ca986d8e539d2cd5a6a6aa71510449b801419ba5076e6a87604051610eb49190612479565b60405180910390a28080600101915050610d26565b5060005b8151811015610f525760018360000151604051610eea9190612379565b9081526020016040518091039020828281518110610f0457fe5b6020026020010151908060018154018082558091505060019003906000526020600020016000909190919091509080519060200190610f4492919061168f565b508080600101915050610ecd565b508160000151604051610f659190612379565b60405180910390207fa1e72c2b1494438483667dce1ee48e91fd4c25b91d5efe16e005c9e9eb25214f868351604051610f9f929190612577565b60405180910390a250508080600101915050610cf3565b50505050565b60035481565b6060600182604051610fd49190612379565b9081526020016040518091039020805480602002602001604051908101604052809291908181526020016000905b828210156110be578382906000526020600020018054600181600116156101000203166002900480601f0160208091040260200160405190810160405280929190818152602001828054600181600116156101000203166002900480156110aa5780601f1061107f576101008083540402835291602001916110aa565b820191906000526020600020905b81548152906001019060200180831161108d57829003601f168201915b505050505081526020019060010190611002565b505050509050919050565b6000602052806000526040600020600091509050806000015490806001018054600181600116156101000203166002900480601f01602080910402602001604051908101604052809291908181526020018280546001816001161561010002031660029004801561117b5780601f106111505761010080835404028352916020019161117b565b820191906000526020600020905b81548152906001019060200180831161115e57829003601f168201915b505050505090806002018054600181600116156101000203166002900480601f0160208091040260200160405190810160405280929190818152602001828054600181600116156101000203166002900480156112195780601f106111ee57610100808354040283529160200191611219565b820191906000526020600020905b8154815290600101906020018083116111fc57829003601f168201915b505050505090806003018054600181600116156101000203166002900480601f0160208091040260200160405190810160405280929190818152602001828054600181600116156101000203166002900480156112b75780601f1061128c576101008083540402835291602001916112b7565b820191906000526020600020905b81548152906001019060200180831161129a57829003601f168201915b505050505090806004018054600181600116156101000203166002900480601f0160208091040260200160405190810160405280929190818152602001828054600181600116156101000203166002900480156113555780601f1061132a57610100808354040283529160200191611355565b820191906000526020600020905b81548152906001019060200180831161133857829003601f168201915b505050505090806005018054600181600116156101000203166002900480601f0160208091040260200160405190810160405280929190818152602001828054600181600116156101000203166002900480156113f35780601f106113c8576101008083540402835291602001916113f3565b820191906000526020600020905b8154815290600101906020018083116113d657829003601f168201915b505050505090806006018054600181600116156101000203166002900480601f0160208091040260200160405190810160405280929190818152602001828054600181600116156101000203166002900480156114915780601f1061146657610100808354040283529160200191611491565b820191906000526020600020905b81548152906001019060200180831161147457829003601f168201915b505050505090806007018054600181600116156101000203166002900480601f01602080910402602001604051908101604052809291908181526020018280546001816001161561010002031660029004801561152f5780601f106115045761010080835404028352916020019161152f565b820191906000526020600020905b81548152906001019060200180831161151257829003601f168201915b505050505090806008018054600181600116156101000203166002900480601f0160208091040260200160405190810160405280929190818152602001828054600181600116156101000203166002900480156115cd5780601f106115a2576101008083540402835291602001916115cd565b820191906000526020600020905b8154815290600101906020018083116115b057829003601f168201915b505050505090806009016040518060800160405290816000820160009054906101000a900460000b60000b60000b81526020016000820160019054906101000a900460000b60000b60000b81526020016000820160029054906101000a900460ff1660ff1660ff1681526020016000820160039054906101000a900460ff1660ff1660ff16815250509080600b015490508b565b60405180608001604052806060815260200160008152602001611682611729565b8152602001600081525090565b828054600181600116156101000203166002900490600052602060002090601f016020900481019282601f106116d057805160ff19168380011785556116fe565b828001600101855582156116fe579182015b828111156116fd5782518255916020019190600101906116e2565b5b50905061170b919061175d565b5090565b604051806040016040528060608152602001606081525090565b6040518060a001604052806000800b8152602001600060ff1681526020016060815260200160608152602001600081525090565b5b8082111561177657600081600090555060010161175e565b5090565b600082601f83011261178b57600080fd5b813561179e611799826125cd565b6125a0565b9150818183526020840193506020810190508360005b838110156117e457813586016117ca88826118eb565b8452602084019350602083019250506001810190506117b4565b5050505092915050565b600082601f8301126117ff57600080fd5b813561181261180d826125f5565b6125a0565b9150818183526020840193506020810190508360005b83811015611858578135860161183e888261193f565b845260208401935060208301925050600181019050611828565b5050505092915050565b600082601f83011261187357600080fd5b81356118866118818261261d565b6125a0565b9150818183526020840193506020810190508360005b838110156118cc57813586016118b28882611c6d565b84526020840193506020830192505060018101905061189c565b5050505092915050565b6000813590506118e581612759565b92915050565b600082601f8301126118fc57600080fd5b813561190f61190a82612645565b6125a0565b9150808252602083016020830185838301111561192b57600080fd5b611936838284612706565b50505092915050565b60006040828403121561195157600080fd5b61195b60406125a0565b9050600082013567ffffffffffffffff81111561197757600080fd5b611983848285016118eb565b600083015250602082013567ffffffffffffffff8111156119a357600080fd5b6119af8482850161177a565b60208301525092915050565b600060a082840312156119cd57600080fd5b6119d760a06125a0565b905060006119e7848285016118d6565b60008301525060206119fb84828501611e08565b602083015250604082013567ffffffffffffffff811115611a1b57600080fd5b611a27848285016118eb565b604083015250606082013567ffffffffffffffff811115611a4757600080fd5b611a53848285016118eb565b6060830152506080611a6784828501611df3565b60808301525092915050565b600060808284031215611a8557600080fd5b611a8f60806125a0565b90506000611a9f848285016118d6565b6000830152506020611ab3848285016118d6565b6020830152506040611ac784828501611e08565b6040830152506060611adb84828501611e08565b60608301525092915050565b60006101008284031215611afa57600080fd5b611b056101006125a0565b9050600082013567ffffffffffffffff811115611b2157600080fd5b611b2d848285016118eb565b600083015250602082013567ffffffffffffffff811115611b4d57600080fd5b611b59848285016118eb565b602083015250604082013567ffffffffffffffff811115611b7957600080fd5b611b85848285016118eb565b604083015250606082013567ffffffffffffffff811115611ba557600080fd5b611bb1848285016118eb565b606083015250608082013567ffffffffffffffff811115611bd157600080fd5b611bdd848285016118eb565b60808301525060a082013567ffffffffffffffff811115611bfd57600080fd5b611c09848285016118eb565b60a08301525060c082013567ffffffffffffffff811115611c2957600080fd5b611c35848285016118eb565b60c08301525060e082013567ffffffffffffffff811115611c5557600080fd5b611c61848285016118eb565b60e08301525092915050565b60006101008284031215611c8057600080fd5b611c8b6101006125a0565b9050600082013567ffffffffffffffff811115611ca757600080fd5b611cb3848285016118eb565b600083015250602082013567ffffffffffffffff811115611cd357600080fd5b611cdf848285016118eb565b602083015250604082013567ffffffffffffffff811115611cff57600080fd5b611d0b848285016118eb565b604083015250606082013567ffffffffffffffff811115611d2b57600080fd5b611d37848285016118eb565b606083015250608082013567ffffffffffffffff811115611d5757600080fd5b611d63848285016118eb565b60808301525060a082013567ffffffffffffffff811115611d8357600080fd5b611d8f848285016118eb565b60a08301525060c082013567ffffffffffffffff811115611daf57600080fd5b611dbb848285016118eb565b60c08301525060e082013567ffffffffffffffff811115611ddb57600080fd5b611de7848285016118eb565b60e08301525092915050565b600081359050611e0281612770565b92915050565b600081359050611e1781612787565b92915050565b600080600060608486031215611e3257600080fd5b600084013567ffffffffffffffff811115611e4c57600080fd5b611e588682870161177a565b9350506020611e6986828701611df3565b925050604084013567ffffffffffffffff811115611e8657600080fd5b611e92868287016119bb565b9150509250925092565b600080600060608486031215611eb157600080fd5b600084013567ffffffffffffffff811115611ecb57600080fd5b611ed7868287016117ee565b9350506020611ee886828701611df3565b925050604084013567ffffffffffffffff811115611f0557600080fd5b611f11868287016119bb565b9150509250925092565b600060208284031215611f2d57600080fd5b600082013567ffffffffffffffff811115611f4757600080fd5b611f53848285016118eb565b91505092915050565b60008060408385031215611f6f57600080fd5b600083013567ffffffffffffffff811115611f8957600080fd5b611f95858286016118eb565b9250506020611fa685828601611df3565b9150509250929050565b600080600060c08486031215611fc557600080fd5b600084013567ffffffffffffffff811115611fdf57600080fd5b611feb86828701611ae7565b9350506020611ffc86828701611a73565b92505060a084013567ffffffffffffffff81111561201957600080fd5b61202586828701611862565b9150509250925092565b60006020828403121561204157600080fd5b600061204f84828501611df3565b91505092915050565b600061206483836120f0565b905092915050565b600061207782612681565b61208181856126a4565b93508360208202850161209385612671565b8060005b858110156120cf57848403895281516120b08582612058565b94506120bb83612697565b925060208a01995050600181019050612097565b50829750879550505050505092915050565b6120ea816126e2565b82525050565b60006120fb8261268c565b61210581856126b5565b9350612115818560208601612715565b61211e81612748565b840191505092915050565b60006121348261268c565b61213e81856126c6565b935061214e818560208601612715565b61215781612748565b840191505092915050565b600061216d8261268c565b61217781856126d7565b9350612187818560208601612715565b80840191505092915050565b600060a0830160008301516121ab60008601826120e1565b5060208301516121be602086018261236a565b50604083015184820360408601526121d682826120f0565b915050606083015184820360608601526121f082826120f0565b9150506080830151612205608086018261234c565b508091505092915050565b600060a08301600083015161222860008601826120e1565b50602083015161223b602086018261236a565b506040830151848203604086015261225382826120f0565b9150506060830151848203606086015261226d82826120f0565b9150506080830151612282608086018261234c565b508091505092915050565b6080820160008201516122a360008501826120e1565b5060208201516122b660208501826120e1565b5060408201516122c9604085018261236a565b5060608201516122dc606085018261236a565b50505050565b600060808301600083015184820360008601526122ff82826120f0565b9150506020830151612314602086018261234c565b506040830151848203604086015261232c8282612193565b9150506060830151612341606086018261234c565b508091505092915050565b612355816126ef565b82525050565b612364816126ef565b82525050565b612373816126f9565b82525050565b60006123858284612162565b915081905092915050565b600060208201905081810360008301526123aa818461206c565b905092915050565b600060208201905081810360008301526123cc8184612129565b905092915050565b600060408201905081810360008301526123ee8185612129565b90506123fd602083018461235b565b9392505050565b6000608082019050818103600083015261241e8187612129565b905061242d602083018661235b565b818103604083015261243f8185612210565b905061244e606083018461235b565b95945050505050565b6000602082019050818103600083015261247181846122e2565b905092915050565b600060208201905061248e600083018461235b565b92915050565b60006101c0820190506124aa600083018e61235b565b81810360208301526124bc818d612129565b905081810360408301526124d0818c612129565b905081810360608301526124e4818b612129565b905081810360808301526124f8818a612129565b905081810360a083015261250c8189612129565b905081810360c08301526125208188612129565b905081810360e08301526125348187612129565b90508181036101008301526125498186612129565b905061255961012083018561228d565b6125676101a083018461235b565b9c9b505050505050505050505050565b600060408201905061258c600083018561235b565b612599602083018461235b565b9392505050565b6000604051905081810181811067ffffffffffffffff821117156125c357600080fd5b8060405250919050565b600067ffffffffffffffff8211156125e457600080fd5b602082029050602081019050919050565b600067ffffffffffffffff82111561260c57600080fd5b602082029050602081019050919050565b600067ffffffffffffffff82111561263457600080fd5b602082029050602081019050919050565b600067ffffffffffffffff82111561265c57600080fd5b601f19601f8301169050602081019050919050565b6000819050602082019050919050565b600081519050919050565b600081519050919050565b6000602082019050919050565b600082825260208201905092915050565b600082825260208201905092915050565b600082825260208201905092915050565b600081905092915050565b60008160000b9050919050565b6000819050919050565b600060ff82169050919050565b82818337600083830152505050565b60005b83811015612733578082015181840152602081019050612718565b83811115612742576000848401525b50505050565b6000601f19601f8301169050919050565b612762816126e2565b811461276d57600080fd5b50565b612779816126ef565b811461278457600080fd5b50565b612790816126f9565b811461279b57600080fd5b5056fea26469706673582212203a7842100705578679b76d9fb878b3ac61c0e0658bf890c668424d0cde6d2e5864736f6c63430007010033",
  "immutableReferences": {},
  "source": "// SPDX-License-Identifier: MIT\r\npragma solidity >=0.7.0 <0.9.0;\r\npragma experimental ABIEncoderV2;\r\n\r\ncontract Medecin {\r\n    // Structures de données\r\n    struct Conservation {\r\n        int8 temperatureMax;\r\n        int8 temperatureMin;\r\n        uint8 humiditeMax;\r\n        uint8 humiditeMin;\r\n    }\r\n\r\n    struct MatierePremiere {\r\n        string nom;\r\n        string origine;\r\n        string fournisseur;\r\n        string degrePurete;\r\n        string quantiteParUnite;\r\n        string certificatAnalyse;\r\n        string dateReception;\r\n        string transport;\r\n    }\r\n\r\n    struct ConditionsActuelles {\r\n        int8 temperature;\r\n        uint8 humidite;\r\n        string positionX;\r\n        string positionY;\r\n        uint256 timestamp;\r\n    }\r\n\r\n    struct LotDetails {\r\n        string nomMedicament;\r\n        string substanceActive;\r\n        string forme;\r\n        string dateFabrication;\r\n        string datePeremption;\r\n        string nomFabricant;\r\n        string paysOrigine;\r\n        string amm;\r\n    }\r\n\r\n    struct LotMedicament {\r\n        uint256 lotId;\r\n        string nomMedicament;\r\n        string substanceActive;\r\n        string forme;\r\n        string dateFabrication;\r\n        string datePeremption;\r\n        string nomFabricant;\r\n        string paysOrigine;\r\n        string amm;\r\n        Conservation conditionsConservation;\r\n        MatierePremiere[] matieresPremieresLot;\r\n        uint256 timestamp;\r\n    }\r\n\r\n    struct UniteMedicament {\r\n        string medicamentId;\r\n        uint256 lotId;\r\n        ConditionsActuelles conditionsActuelles;\r\n        uint256 timestampCreation;\r\n    }\r\n\r\n    struct Box {\r\n        string boxId;\r\n        string[] medicamentIds;\r\n    }\r\n\r\n    // Storage\r\n    mapping(uint256 => LotMedicament) public lots;\r\n    mapping(string => string[]) public boxToMedicaments; // Maps boxId to array of medicamentIds\r\n    mapping(string => UniteMedicament) public medicaments; // Maps medicamentId to its data\r\n    uint256 public nextLotId = 1;\r\n\r\n    // Events\r\n    event LotCree(uint256 indexed lotId, string nomMedicament, uint256 timestamp);\r\n    event BoxAssembled(string indexed boxId, uint256 lotId, uint256 medicamentCount);\r\n    event MedicamentCreated(string indexed medicamentId, uint256 lotId);\r\n\r\n    // Fonction d'ajout d'un lot avec structs regroupés\r\n    function creerLotMedicament(\r\n        LotDetails memory _lotDetails,\r\n        Conservation memory _conservation,\r\n        MatierePremiere[] memory _matieresPremieresLot\r\n    ) public returns (uint256) {\r\n        uint256 lotId = nextLotId++;\r\n        \r\n        LotMedicament storage lot = lots[lotId];\r\n        lot.lotId = lotId;\r\n        lot.nomMedicament = _lotDetails.nomMedicament;\r\n        lot.substanceActive = _lotDetails.substanceActive;\r\n        lot.forme = _lotDetails.forme;\r\n        lot.dateFabrication = _lotDetails.dateFabrication;\r\n        lot.datePeremption = _lotDetails.datePeremption;\r\n        lot.nomFabricant = _lotDetails.nomFabricant;\r\n        lot.paysOrigine = _lotDetails.paysOrigine;\r\n        lot.amm = _lotDetails.amm;\r\n        lot.conditionsConservation = _conservation;\r\n        lot.timestamp = block.timestamp;\r\n\r\n        for (uint i = 0; i < _matieresPremieresLot.length; i++) {\r\n            lot.matieresPremieresLot.push(_matieresPremieresLot[i]);\r\n        }\r\n\r\n        emit LotCree(lotId, _lotDetails.nomMedicament, block.timestamp);\r\n        return lotId;\r\n    }\r\n\r\n    // Create multiple medicine units with same parameters (except IDs)\r\n    function createMedicamentUnits(\r\n        string[] memory _medicamentIds,\r\n        uint256 _lotId,\r\n        ConditionsActuelles memory _conditions\r\n    ) public {\r\n        for (uint i = 0; i < _medicamentIds.length; i++) {\r\n            medicaments[_medicamentIds[i]] = UniteMedicament({\r\n                medicamentId: _medicamentIds[i],\r\n                lotId: _lotId,\r\n                conditionsActuelles: _conditions,\r\n                timestampCreation: block.timestamp\r\n            });\r\n            \r\n            emit MedicamentCreated(_medicamentIds[i], _lotId);\r\n        }\r\n    }\r\n\r\n    function createAndAssignMedicaments(\r\n        Box[] memory _boxes,\r\n        uint256 _lotId,\r\n        ConditionsActuelles memory _conditions\r\n    ) public {\r\n        // Loop through each box in the input array\r\n        for (uint boxIndex = 0; boxIndex < _boxes.length; boxIndex++) {\r\n            Box memory currentBox = _boxes[boxIndex];\r\n            string[] memory medicamentIds = currentBox.medicamentIds;\r\n            \r\n            // 1. Create the medicaments for this box\r\n            for (uint i = 0; i < medicamentIds.length; i++) {\r\n                medicaments[medicamentIds[i]] = UniteMedicament({\r\n                    medicamentId: medicamentIds[i],\r\n                    lotId: _lotId,\r\n                    conditionsActuelles: _conditions,\r\n                    timestampCreation: block.timestamp\r\n                });\r\n\r\n                emit MedicamentCreated(medicamentIds[i], _lotId);\r\n            }\r\n\r\n            // 2. Associate them with the current box\r\n            for (uint i = 0; i < medicamentIds.length; i++) {\r\n                boxToMedicaments[currentBox.boxId].push(medicamentIds[i]);\r\n            }\r\n\r\n            emit BoxAssembled(currentBox.boxId, _lotId, medicamentIds.length);\r\n        }\r\n    }\r\n\r\n\r\n    // Get all medicine IDs in a box\r\n    function getMedicamentsInBox(string memory _boxId) public view returns (string[] memory) {\r\n        return boxToMedicaments[_boxId];\r\n    }\r\n\r\n    // Get medicine details\r\n    function getMedicamentDetails(string memory _medicamentId) public view returns (\r\n        UniteMedicament memory\r\n    ) {\r\n        UniteMedicament memory unit = medicaments[_medicamentId];\r\n        return (unit);\r\n    }\r\n}",
  "sourcePath": "C:\\Users\\HP\\Documents\\GitHub\\medproject\\contracts\\Medecin.sol",
  "compiler": {
    "name": "solc",
    "version": "0.7.1+commit.f4a555be.Emscripten.clang"
  },
  "schemaVersion": "3.4.16",
  "updatedAt": "2025-04-19T17:37:20.063Z",
  "networkType": "ethereum",
  "devdoc": {
    "kind": "dev",
    "methods": {},
    "version": 1
  },
  "userdoc": {
    "kind": "user",
    "methods": {},
    "version": 1
  }
}