{
  "contractName": "Users",
  "abi": [
    {
      "anonymous": false,
      "inputs": [
        {
          "indexed": true,
          "internalType": "address",
          "name": "userAddress",
          "type": "address"
        },
        {
          "indexed": false,
          "internalType": "string",
          "name": "name",
          "type": "string"
        },
        {
          "indexed": false,
          "internalType": "string",
          "name": "role",
          "type": "string"
        }
      ],
      "name": "UserAdded",
      "type": "event"
    },
    {
      "anonymous": false,
      "inputs": [
        {
          "indexed": true,
          "internalType": "address",
          "name": "userAddress",
          "type": "address"
        }
      ],
      "name": "UserRemoved",
      "type": "event"
    },
    {
      "anonymous": false,
      "inputs": [
        {
          "indexed": true,
          "internalType": "address",
          "name": "userAddress",
          "type": "address"
        },
        {
          "indexed": false,
          "internalType": "string",
          "name": "name",
          "type": "string"
        },
        {
          "indexed": false,
          "internalType": "string",
          "name": "role",
          "type": "string"
        }
      ],
      "name": "UserUpdated",
      "type": "event"
    },
    {
      "inputs": [
        {
          "internalType": "address",
          "name": "userAddress",
          "type": "address"
        },
        {
          "internalType": "string",
          "name": "name",
          "type": "string"
        },
        {
          "internalType": "string",
          "name": "role",
          "type": "string"
        }
      ],
      "name": "addUser",
      "outputs": [],
      "stateMutability": "nonpayable",
      "type": "function"
    },
    {
      "inputs": [
        {
          "internalType": "address",
          "name": "userAddress",
          "type": "address"
        }
      ],
      "name": "getUser",
      "outputs": [
        {
          "internalType": "string",
          "name": "name",
          "type": "string"
        },
        {
          "internalType": "string",
          "name": "role",
          "type": "string"
        }
      ],
      "stateMutability": "view",
      "type": "function",
      "constant": true
    },
    {
      "inputs": [
        {
          "internalType": "address",
          "name": "userAddress",
          "type": "address"
        }
      ],
      "name": "doesUserExist",
      "outputs": [
        {
          "internalType": "bool",
          "name": "",
          "type": "bool"
        }
      ],
      "stateMutability": "view",
      "type": "function",
      "constant": true
    },
    {
      "inputs": [
        {
          "internalType": "address",
          "name": "userAddress",
          "type": "address"
        },
        {
          "internalType": "string",
          "name": "name",
          "type": "string"
        },
        {
          "internalType": "string",
          "name": "role",
          "type": "string"
        }
      ],
      "name": "updateUser",
      "outputs": [],
      "stateMutability": "nonpayable",
      "type": "function"
    },
    {
      "inputs": [
        {
          "internalType": "address",
          "name": "userAddress",
          "type": "address"
        }
      ],
      "name": "removeUser",
      "outputs": [],
      "stateMutability": "nonpayable",
      "type": "function"
    },
    {
      "inputs": [],
      "name": "getUserCount",
      "outputs": [
        {
          "internalType": "uint256",
          "name": "",
          "type": "uint256"
        }
      ],
      "stateMutability": "view",
      "type": "function",
      "constant": true
    },
    {
      "inputs": [],
      "name": "getAllUserAddresses",
      "outputs": [
        {
          "internalType": "address[]",
          "name": "",
          "type": "address[]"
        }
      ],
      "stateMutability": "view",
      "type": "function",
      "constant": true
    },
    {
      "inputs": [
        {
          "internalType": "uint256",
          "name": "index",
          "type": "uint256"
        }
      ],
      "name": "getUserByIndex",
      "outputs": [
        {
          "internalType": "address",
          "name": "userAddress",
          "type": "address"
        },
        {
          "internalType": "string",
          "name": "name",
          "type": "string"
        },
        {
          "internalType": "string",
          "name": "role",
          "type": "string"
        }
      ],
      "stateMutability": "view",
      "type": "function",
      "constant": true
    }
  ],
  "bytecode": "0x608060405234801561001057600080fd5b506116b7806100206000396000f3fe608060405234801561001057600080fd5b50600436106100885760003560e01c8063b5cb15f71161005b578063b5cb15f7146103cb578063d7554a68146103e9578063ecb410541461055b578063ff5d32fe146105b557610088565b806310e8b22d1461008d5780632f330023146101ff5780636f77926b1461025e5780639857518814610387575b600080fd5b6101fd600480360360608110156100a357600080fd5b81019080803573ffffffffffffffffffffffffffffffffffffffff169060200190929190803590602001906401000000008111156100e057600080fd5b8201836020820111156100f257600080fd5b8035906020019184600183028401116401000000008311171561011457600080fd5b91908080601f016020809104026020016040519081016040528093929190818152602001838380828437600081840152601f19601f8201169050808301925050505050505091929192908035906020019064010000000081111561017757600080fd5b82018360208201111561018957600080fd5b803590602001918460018302840111640100000000831117156101ab57600080fd5b91908080601f016020809104026020016040519081016040528093929190818152602001838380828437600081840152601f19601f8201169050808301925050505050505091929192905050506106e5565b005b610207610979565b6040518080602001828103825283818151815260200191508051906020019060200280838360005b8381101561024a57808201518184015260208101905061022f565b505050509050019250505060405180910390f35b6102a06004803603602081101561027457600080fd5b81019080803573ffffffffffffffffffffffffffffffffffffffff169060200190929190505050610a07565b604051808060200180602001838103835285818151815260200191508051906020019080838360005b838110156102e45780820151818401526020810190506102c9565b50505050905090810190601f1680156103115780820380516001836020036101000a031916815260200191505b50838103825284818151815260200191508051906020019080838360005b8381101561034a57808201518184015260208101905061032f565b50505050905090810190601f1680156103775780820380516001836020036101000a031916815260200191505b5094505050505060405180910390f35b6103c96004803603602081101561039d57600080fd5b81019080803573ffffffffffffffffffffffffffffffffffffffff169060200190929190505050610c93565b005b6103d3610f8b565b6040518082815260200191505060405180910390f35b610559600480360360608110156103ff57600080fd5b81019080803573ffffffffffffffffffffffffffffffffffffffff1690602001909291908035906020019064010000000081111561043c57600080fd5b82018360208201111561044e57600080fd5b8035906020019184600183028401116401000000008311171561047057600080fd5b91908080601f016020809104026020016040519081016040528093929190818152602001838380828437600081840152601f19601f820116905080830192505050505050509192919290803590602001906401000000008111156104d357600080fd5b8201836020820111156104e557600080fd5b8035906020019184600183028401116401000000008311171561050757600080fd5b91908080601f016020809104026020016040519081016040528093929190818152602001838380828437600081840152601f19601f820116905080830192505050505050509192919290505050610f98565b005b61059d6004803603602081101561057157600080fd5b81019080803573ffffffffffffffffffffffffffffffffffffffff16906020019092919050505061129d565b60405180821515815260200191505060405180910390f35b6105e1600480360360208110156105cb57600080fd5b81019080803590602001909291905050506112f5565b604051808473ffffffffffffffffffffffffffffffffffffffff1681526020018060200180602001838103835285818151815260200191508051906020019080838360005b83811015610641578082015181840152602081019050610626565b50505050905090810190601f16801561066e5780820380516001836020036101000a031916815260200191505b50838103825284818151815260200191508051906020019080838360005b838110156106a757808201518184015260208101905061068c565b50505050905090810190601f1680156106d45780820380516001836020036101000a031916815260200191505b509550505050505060405180910390f35b826000808273ffffffffffffffffffffffffffffffffffffffff1673ffffffffffffffffffffffffffffffffffffffff16815260200190815260200160002060020160009054906101000a900460ff166107a7576040517f08c379a00000000000000000000000000000000000000000000000000000000081526004018080602001828103825260138152602001807f5573657220646f6573206e6f742065786973740000000000000000000000000081525060200191505060405180910390fd5b826000808673ffffffffffffffffffffffffffffffffffffffff1673ffffffffffffffffffffffffffffffffffffffff16815260200190815260200160002060000190805190602001906107fc929190611579565b50816000808673ffffffffffffffffffffffffffffffffffffffff1673ffffffffffffffffffffffffffffffffffffffff1681526020019081526020016000206001019080519060200190610852929190611579565b508373ffffffffffffffffffffffffffffffffffffffff167fe5d18d6612696bff7df1db8015eac613241613297fa2ba2783993e4fd0e76f3d8484604051808060200180602001838103835285818151815260200191508051906020019080838360005b838110156108d15780820151818401526020810190506108b6565b50505050905090810190601f1680156108fe5780820380516001836020036101000a031916815260200191505b50838103825284818151815260200191508051906020019080838360005b8381101561093757808201518184015260208101905061091c565b50505050905090810190601f1680156109645780820380516001836020036101000a031916815260200191505b5094505050505060405180910390a250505050565b606060018054806020026020016040519081016040528092919081815260200182805480156109fd57602002820191906000526020600020905b8160009054906101000a900473ffffffffffffffffffffffffffffffffffffffff1673ffffffffffffffffffffffffffffffffffffffff16815260200190600101908083116109b3575b5050505050905090565b606080826000808273ffffffffffffffffffffffffffffffffffffffff1673ffffffffffffffffffffffffffffffffffffffff16815260200190815260200160002060020160009054906101000a900460ff16610acc576040517f08c379a00000000000000000000000000000000000000000000000000000000081526004018080602001828103825260138152602001807f5573657220646f6573206e6f742065786973740000000000000000000000000081525060200191505060405180910390fd5b610ad46115f9565b6000808673ffffffffffffffffffffffffffffffffffffffff1673ffffffffffffffffffffffffffffffffffffffff168152602001908152602001600020604051806060016040529081600082018054600181600116156101000203166002900480601f016020809104026020016040519081016040528092919081815260200182805460018160011615610100020316600290048015610bb65780601f10610b8b57610100808354040283529160200191610bb6565b820191906000526020600020905b815481529060010190602001808311610b9957829003601f168201915b50505050508152602001600182018054600181600116156101000203166002900480601f016020809104026020016040519081016040528092919081815260200182805460018160011615610100020316600290048015610c585780601f10610c2d57610100808354040283529160200191610c58565b820191906000526020600020905b815481529060010190602001808311610c3b57829003601f168201915b505050505081526020016002820160009054906101000a900460ff161515151581525050905080600001518160200151935093505050915091565b806000808273ffffffffffffffffffffffffffffffffffffffff1673ffffffffffffffffffffffffffffffffffffffff16815260200190815260200160002060020160009054906101000a900460ff16610d55576040517f08c379a00000000000000000000000000000000000000000000000000000000081526004018080602001828103825260138152602001807f5573657220646f6573206e6f742065786973740000000000000000000000000081525060200191505060405180910390fd5b600080600090505b600180549050811015610dea578373ffffffffffffffffffffffffffffffffffffffff1660018281548110610d8e57fe5b9060005260206000200160009054906101000a900473ffffffffffffffffffffffffffffffffffffffff1673ffffffffffffffffffffffffffffffffffffffff161415610ddd57809150610dea565b8080600101915050610d5d565b506001808054905003811015610e8e5760018080805490500381548110610e0d57fe5b9060005260206000200160009054906101000a900473ffffffffffffffffffffffffffffffffffffffff1660018281548110610e4557fe5b9060005260206000200160006101000a81548173ffffffffffffffffffffffffffffffffffffffff021916908373ffffffffffffffffffffffffffffffffffffffff1602179055505b6001805480610e9957fe5b6001900381819060005260206000200160006101000a81549073ffffffffffffffffffffffffffffffffffffffff021916905590556000808473ffffffffffffffffffffffffffffffffffffffff1673ffffffffffffffffffffffffffffffffffffffff16815260200190815260200160002060008082016000610f1d919061161c565b600182016000610f2d919061161c565b6002820160006101000a81549060ff021916905550508273ffffffffffffffffffffffffffffffffffffffff167fe9dce8c992623ce791725b21e857e33248d1f190a25b5168313420eebdaae99d60405160405180910390a2505050565b6000600180549050905090565b826000808273ffffffffffffffffffffffffffffffffffffffff1673ffffffffffffffffffffffffffffffffffffffff16815260200190815260200160002060020160009054906101000a900460ff161561105b576040517f08c379a00000000000000000000000000000000000000000000000000000000081526004018080602001828103825260138152602001807f5573657220616c7265616479206578697374730000000000000000000000000081525060200191505060405180910390fd5b6040518060600160405280848152602001838152602001600115158152506000808673ffffffffffffffffffffffffffffffffffffffff1673ffffffffffffffffffffffffffffffffffffffff16815260200190815260200160002060008201518160000190805190602001906110d3929190611579565b5060208201518160010190805190602001906110f0929190611579565b5060408201518160020160006101000a81548160ff0219169083151502179055509050506001849080600181540180825580915050600190039060005260206000200160009091909190916101000a81548173ffffffffffffffffffffffffffffffffffffffff021916908373ffffffffffffffffffffffffffffffffffffffff1602179055508373ffffffffffffffffffffffffffffffffffffffff167f8eab1db142a914aff8b515eedb9177bd7effaef6d714c41e30bdf152067786078484604051808060200180602001838103835285818151815260200191508051906020019080838360005b838110156111f55780820151818401526020810190506111da565b50505050905090810190601f1680156112225780820380516001836020036101000a031916815260200191505b50838103825284818151815260200191508051906020019080838360005b8381101561125b578082015181840152602081019050611240565b50505050905090810190601f1680156112885780820380516001836020036101000a031916815260200191505b5094505050505060405180910390a250505050565b60008060008373ffffffffffffffffffffffffffffffffffffffff1673ffffffffffffffffffffffffffffffffffffffff16815260200190815260200160002060020160009054906101000a900460ff169050919050565b60006060806001805490508410611374576040517f08c379a00000000000000000000000000000000000000000000000000000000081526004018080602001828103825260138152602001807f496e646578206f7574206f6620626f756e64730000000000000000000000000081525060200191505060405180910390fd5b6001848154811061138157fe5b9060005260206000200160009054906101000a900473ffffffffffffffffffffffffffffffffffffffff1692506113b66115f9565b6000808573ffffffffffffffffffffffffffffffffffffffff1673ffffffffffffffffffffffffffffffffffffffff168152602001908152602001600020604051806060016040529081600082018054600181600116156101000203166002900480601f0160208091040260200160405190810160405280929190818152602001828054600181600116156101000203166002900480156114985780601f1061146d57610100808354040283529160200191611498565b820191906000526020600020905b81548152906001019060200180831161147b57829003601f168201915b50505050508152602001600182018054600181600116156101000203166002900480601f01602080910402602001604051908101604052809291908181526020018280546001816001161561010002031660029004801561153a5780601f1061150f5761010080835404028352916020019161153a565b820191906000526020600020905b81548152906001019060200180831161151d57829003601f168201915b505050505081526020016002820160009054906101000a900460ff16151515158152505090508381600001518260200151935093509350509193909250565b828054600181600116156101000203166002900490600052602060002090601f016020900481019282601f106115ba57805160ff19168380011785556115e8565b828001600101855582156115e8579182015b828111156115e75782518255916020019190600101906115cc565b5b5090506115f59190611664565b5090565b604051806060016040528060608152602001606081526020016000151581525090565b50805460018160011615610100020316600290046000825580601f106116425750611661565b601f0160209004906000526020600020908101906116609190611664565b5b50565b5b8082111561167d576000816000905550600101611665565b509056fea26469706673582212208911815bcb9768185c2f14cfe852b68041a1ccd902f82b1d6e20e45c1be865a664736f6c63430007010033",
  "immutableReferences": {},
  "source": "// SPDX-License-Identifier: MIT\r\npragma solidity >=0.7.0 <0.9.0;\r\ncontract Users {\r\n    // User struct definition\r\n    struct User {\r\n        string name;\r\n        string role;\r\n        bool exists;\r\n    }\r\n\r\n    // Mapping from user address to User struct\r\n    mapping(address => User) private users;\r\n    \r\n    // Array to keep track of all user addresses\r\n    address[] private userAddresses;\r\n    \r\n    // Events\r\n    event UserAdded(address indexed userAddress, string name, string role);\r\n    event UserUpdated(address indexed userAddress, string name, string role);\r\n    event UserRemoved(address indexed userAddress);\r\n    \r\n    // Modifiers\r\n    modifier userExists(address userAddress) {\r\n        require(users[userAddress].exists, \"User does not exist\");\r\n        _;\r\n    }\r\n    \r\n    modifier userDoesNotExist(address userAddress) {\r\n        require(!users[userAddress].exists, \"User already exists\");\r\n        _;\r\n    }\r\n    \r\n    /**\r\n     * @dev Add a new user to the contract\r\n     * @param userAddress The address of the user\r\n     * @param name The name of the user\r\n     * @param role The role of the user\r\n     */\r\n    function addUser(address userAddress, string memory name, string memory role) \r\n        public \r\n        userDoesNotExist(userAddress) \r\n    {\r\n        users[userAddress] = User(name, role, true);\r\n        userAddresses.push(userAddress);\r\n        \r\n        emit UserAdded(userAddress, name, role);\r\n    }\r\n    \r\n    /**\r\n     * @dev Get user information by address\r\n     * @param userAddress The address of the user to retrieve\r\n     * @return name User's name\r\n     * @return role User's role\r\n     */\r\n    function getUser(address userAddress) \r\n        public \r\n        view \r\n        userExists(userAddress) \r\n        returns (string memory name, string memory role) \r\n    {\r\n        User memory user = users[userAddress];\r\n        return (user.name, user.role);\r\n    }\r\n    \r\n    /**\r\n     * @dev Check if a user exists\r\n     * @param userAddress The address to check\r\n     * @return True if the user exists, false otherwise\r\n     */\r\n    function doesUserExist(address userAddress) public view returns (bool) {\r\n        return users[userAddress].exists;\r\n    }\r\n    \r\n    /**\r\n     * @dev Update an existing user's information\r\n     * @param userAddress The address of the user\r\n     * @param name The new name of the user\r\n     * @param role The new role of the user\r\n     */\r\n    function updateUser(address userAddress, string memory name, string memory role) \r\n        public \r\n        userExists(userAddress) \r\n    {\r\n        users[userAddress].name = name;\r\n        users[userAddress].role = role;\r\n        \r\n        emit UserUpdated(userAddress, name, role);\r\n    }\r\n    \r\n    /**\r\n     * @dev Remove a user from the contract\r\n     * @param userAddress The address of the user to remove\r\n     */\r\n    function removeUser(address userAddress) \r\n        public \r\n        userExists(userAddress) \r\n    {\r\n        // Find the index of the user address in the array\r\n        uint256 index;\r\n        for (uint256 i = 0; i < userAddresses.length; i++) {\r\n            if (userAddresses[i] == userAddress) {\r\n                index = i;\r\n                break;\r\n            }\r\n        }\r\n        \r\n        // Remove the user address from the array by swapping with the last element and popping\r\n        if (index < userAddresses.length - 1) {\r\n            userAddresses[index] = userAddresses[userAddresses.length - 1];\r\n        }\r\n        userAddresses.pop();\r\n        \r\n        // Delete the user from the mapping\r\n        delete users[userAddress];\r\n        \r\n        emit UserRemoved(userAddress);\r\n    }\r\n    \r\n    /**\r\n     * @dev Get the total number of users\r\n     * @return The total number of users\r\n     */\r\n    function getUserCount() public view returns (uint256) {\r\n        return userAddresses.length;\r\n    }\r\n    \r\n    /**\r\n     * @dev Get all user addresses\r\n     * @return Array of all user addresses\r\n     */\r\n    function getAllUserAddresses() public view returns (address[] memory) {\r\n        return userAddresses;\r\n    }\r\n    \r\n    /**\r\n     * @dev Get user by index in the array\r\n     * @param index The index of the user\r\n     * @return userAddress The address of the user\r\n     * @return name The name of the user\r\n     * @return role The role of the user\r\n     */\r\n    function getUserByIndex(uint256 index) \r\n        public \r\n        view \r\n        returns (address userAddress, string memory name, string memory role) \r\n    {\r\n        require(index < userAddresses.length, \"Index out of bounds\");\r\n        \r\n        userAddress = userAddresses[index];\r\n        User memory user = users[userAddress];\r\n        \r\n        return (userAddress, user.name, user.role);\r\n    }\r\n}",
  "sourcePath": "C:\\Users\\HP\\Documents\\GitHub\\medproject\\contracts\\Users.sol",
  "compiler": {
    "name": "solc",
    "version": "0.7.1+commit.f4a555be.Emscripten.clang"
  },
  "schemaVersion": "3.4.16",
  "updatedAt": "2025-05-01T10:21:29.862Z",
  "networkType": "ethereum",
  "devdoc": {
    "kind": "dev",
    "methods": {
      "addUser(address,string,string)": {
        "details": "Add a new user to the contract",
        "params": {
          "name": "The name of the user",
          "role": "The role of the user",
          "userAddress": "The address of the user"
        }
      },
      "doesUserExist(address)": {
        "details": "Check if a user exists",
        "params": {
          "userAddress": "The address to check"
        },
        "returns": {
          "_0": "True if the user exists, false otherwise"
        }
      },
      "getAllUserAddresses()": {
        "details": "Get all user addresses",
        "returns": {
          "_0": "Array of all user addresses"
        }
      },
      "getUser(address)": {
        "details": "Get user information by address",
        "params": {
          "userAddress": "The address of the user to retrieve"
        },
        "returns": {
          "name": "User's name",
          "role": "User's role"
        }
      },
      "getUserByIndex(uint256)": {
        "details": "Get user by index in the array",
        "params": {
          "index": "The index of the user"
        },
        "returns": {
          "name": "The name of the user",
          "role": "The role of the user",
          "userAddress": "The address of the user"
        }
      },
      "getUserCount()": {
        "details": "Get the total number of users",
        "returns": {
          "_0": "The total number of users"
        }
      },
      "removeUser(address)": {
        "details": "Remove a user from the contract",
        "params": {
          "userAddress": "The address of the user to remove"
        }
      },
      "updateUser(address,string,string)": {
        "details": "Update an existing user's information",
        "params": {
          "name": "The new name of the user",
          "role": "The new role of the user",
          "userAddress": "The address of the user"
        }
      }
    },
    "version": 1
  },
  "userdoc": {
    "kind": "user",
    "methods": {},
    "version": 1
  }
}